:10DC52000A0D496E76616C6964204D41432041642E
:10DC620064726573732C2069742077696C6C2075FB
:10DC720073652064656661756C742076616C756588
:10DC820021000A7265626F6F743D25303478202559
:10DC9200303478000A0D2573004950323130204665
:10DCA20069726D7761726520557064617465205682
:10DCB200342E3000506574657220466C617368437F
:10DCC2006865636B204572726F7221000A466C614F
:0CDCD2007368436865636B204F4B2100B2
:0DD0B000414D4100464D42000000000000CF
:07E7EA00438EC075EF102201
:079F8400D2D8D2DAC2DA22C2
:10DBB900904DC37401F07E007F067DFFFB7A4D799D
:10DBC90042129F10904D52129975A801AC02AD03F3
:10DBD9007B017A4D79427E007F06129EECEF70043C
:10DBE900904DC3F07E007F067D007B017A4D79421E
:10DBF900129F10904D52129975A801AC02AD037B8A
:10DC0900017A4D79427E007F06129EECEF700490F6
:10DC19004DC3F0904D5212997512951030E005E4FC
:10DC2900904DC3F0904DC3E07019904D5212997503
:10DC3900A801AC02AD037BFF7A8079007E007F06E4
:08DC49001294EA904DC3E0FFC4
:01DC510022B0
:10E58A0012E6C112CB8412DBB9EF70097BFF7ADC89
:10E59A007952128EFA12E3449081357401F0A3E4A1
:04E5AA00F002B8B112
:0EE784009080057401F0E4FF000FEFB40AFA74
:01E792002264
:1092260012E74D75DA4212E78412E7EAD2D9127FC5
:10923600E07BFF7ADC7984907FFEE0FFA3E0904C30
:1092460046CFF0A3EFF0907FFCE0FFA3E0904C4800
:10925600CFF0A3EFF0128EFA7BFF7ADC799B904C6D
:109266004612997E7ADC7996128EFA12E344908140
:10927600357401F0A3E4F07830E6904DA7F07B005A
:109286007A28E4FDFCFF7E80128229128B4112812E
:10929600D71291F4904DA7E0B4A6028039E4904D20
:1092A600A8F0129F841282CDEF700C904DA8E004B6
:1092B600F0E0C3940340EB1291F4904DA8E0C39400
:1092C600035004EFB466127BFF7ADC79B6128EFA8D
:1092D600904D417401F002E58A129F847BFF7ADC8F
:0892E60079CE128EFA12D87243
:0192EE00225D
:10D6B3000A0D4D414320416464726573733A20003F
:10D6C300253032782E0025303278000A0D4950205B
:10D6D30020416464726573733A200025642E00252B
:10D6E30064000A0D3D3D3D3D3D3D3D3D3D3D3D3DE0
:10D6F3003D3D3D3D3D3D3D3D3D3D3D3D3D3D3D3D57
:10D703003D3D3D3D3D3D3D3D3D3D3D3D3D3D3D3D46
:10D713003D3D3D3D3D3D000A0D544654502053745C
:10D723006172742E2E2E2E2E2E0A0D000A57656955
:10D73300726420000A204669726D77617265205514
:10D74300706461746520627920576562206661693F
:10D753006C65642C2052657374617274696E670022
:10D763000A0D544654502054696D656F7574212019
:09D77300526573746172742100A7
:10D0BD00414C3A00414C3D00434C320137B5414C97
:02D0CD00390028
:10E55F00D3904215E09400904214E09400401B12B7
:10E56F00BFE3904227129975904214E0FCA3E0FD9F
:0BE57F0012D77CE4904214F0A3F022BD
:10BD9F007BFF7AD679B3128EFAE4904DC4F0904DB2
:10BDAF00C4E0FFC394055062E0FE2430FDE4348309
:10BDBF008D82F583E0FD741A2EF582E4344CF58301
:10BDCF00EDF0904D52129975904DC4E0FEF58275CD
:10BDDF008300129529FD74BF2EF582E4344AF58352
:10BDEF00EDF0904D521299758F827583001295293F
:10BDFF00FF904C46E4F0A3EFF07BFF7AD679C312A5
:10BE0F008EFA904DC4E004F08094904DC4E0FF246E
:10BE1F0030FDE434838D82F583E0FE741A2FF582B2
:10BE2F00E4344CF583EEF0904D52129975904DC459
:10BE3F00E0FFF582758300129529FE74BF2FF582FE
:10BE4F00E4344AF583EEF0904D52129975904DC43B
:10BE5F00E0F582758300129529FF904C46E4F0A31C
:10BE6F00EFF07BFF7AD679C9128EFA7BFF7AD679FB
:10BE7F00CE128EFAE4904DC4F0904DC4E0FFFD7CDD
:10BE8F00002436FBEC34838B82F583E0FE74202F85
:10BE9F00F582E4344CF583EEF0904D52129975E92A
:10BEAF002406F9E43AFAE92DF9EC3AFA129510FF63
:10BEBF00904C46E4F0A3EFF07BFF7AD679DE128E3A
:10BECF00FA904DC4E004F0E0C3940340AC904DC42D
:10BEDF00E0FFFD7C002436FBEC34838B82F583E09E
:10BEEF00FE74202FF582E4344CF583EEF0904D5222
:10BEFF00129975E92406F9E43AFAE92DF9EC3AFAC0
:10BF0F00129510FF904C46E4F0A3EFF07BFF7AD62A
:10BF1F0079E2128EFA7BFF7AD679E5128EFA904D7E
:10BF2F0052129975900006129529FE9000071295EE
:10BF3F0029FDEDFF9037AAEEF0A3EFF09000081265
:10BF4F009529FE900009129529FDEDFF9037ACEE73
:10BF5F00F0A3EFF090000A129529FE90000B1295B6
:10BF6F0029FDEDFF903DBFEEF0A3EFF090000C1216
:10BF7F009529FE90000D129529FDEDFF903DC1EE24
:10BF8F00F0A3EFF090000E129529FE90000F12957E
:10BF9F0029FDEDFF903DBBEEF0A3EFF090001012E6
:10BFAF009529FE900011129529FDEDFF903DBDEEF4
:10BFBF00F0A3EFF0E4904C30F0A3F0904C3EF090F3
:10BFCF004C3CF0904C3FF0A3F0904C2C1299380061
:03BFDF000000005F
:01BFE200223C
:10B5CB009037C1E0FFB4081AA3E07016A3E0B445AE
:10B5DB00117B017A3779B5904C3212997E904227C4
:10B5EB00802CEF6408702A9037C2E06406702290BA
:10B5FB0037C5E0FFB40804A3E0600AEFB4F0129083
:10B60B0037C6E0700C7B017A3779B5904C320299D2
:10B61B007E904C39E0FF24C1F582E43437F583E0AA
:10B62B006408705874C22FF582E43437F583E070E8
:10B63B004B904C39E024C3F582E43437F583E06456
:10B64B00457039904DAA740CF0904DAAE0FF24B4CC
:10B65B00F582E43437F583E0FEEFFD904C39E02DB5
:10B66B00FDE433FC74B42DF58274373CF583EEF0B6
:10B67B00904DAAE014F0E070D002B719904C39E06D
:10B68B00FF24C1F582E43437F583E06408600302DC
:10B69B00B74D74C22FF582E43437F583E06406604E
:10B6AB000302B74D904C39E024C5F582E43437F5ED
:10B6BB0083E0FEB4080D74C62FF582E43437F583AE
:10B6CB00E06015EE64F0707A904C39E024C6F58298
:10B6DB00E43437F583E0706A904DAA740CF0904D0A
:10B6EB00AAE0FF24B4F582E43437F583E0FEEFFDE6
:10B6FB00904C39E02DFDE433FC74B42DF582743796
:10B70B003CF583EEF0904DAAE014F0E070D0904C35
:10B71B0039E0FFFD7C0024B5F9EC3437FA7B01905E
:10B72B004C3212997E74B52DF9EC3437FA904227CE
:10B73B0012997EC3904215E09FF0904214E0940062
:10B74B00F022904DA97401F0904DA9E0FFC3940A2B
:10B75B00400302B8A274C12FF582E43437F583E0BD
:10B76B0064087058904DA9E024C2F582E43437F593
:10B77B0083E0704874C32FF582E43437F583E064BB
:10B78B00457039904DAA740CF0904DAAE0FF24B48B
:10B79B00F582E43437F583E0FEEFFD904DA9E02D03
:10B7AB00FDE433FC74B42DF58274373CF583EEF075
:10B7BB00904DAAE014F0E070D002B85C904DA9E077
:10B7CB00FF24C1F582E43437F583E064086003029B
:10B7DB00B89974C22FF582E43437F583E0640660C0
:10B7EB000302B899904DA9E024C5F582E43437F5EE
:10B7FB0083E0FEB4080D74C62FF582E43437F5836D
:10B80B00E06018EE64F0600302B899904DA9E02453
:10B81B00C6F582E43437F583E07073904DAA740C4F
:10B82B00F0904DAAE0FF24B4F582E43437F583E0C1
:10B83B00FEEFFD904DA9E02DFDE433FC74B42DF526
:10B84B008274373CF583EEF0904DAAE014F0E07073
:10B85B00D0904DA9E0FFFD7C0024B5F9EC3437FA0C
:10B86B007B01904C3212997E74B52DF9EC3437FA7A
:10B87B0090422712997EC3904215E09FF09042149C
:10B88B00E09400F0904DA9E0904C39F08009904D78
:10B89B00A9E004F002B753904DA9E0B40A07E49075
:05B8AB004214F0A3F0BF
:01B8B0002275
:10B8B10012E7B012BD9F12E03712E16012E7F17B8F
:10B8C100FF7AD7791A128EFA129F84904C3AE0C30C
:10B8D1009414400312D87F904D41E07003128CE123
:10B8E1007B017A3779B512C42F904214EEF0A3EFA1
:10B8F100F0D3904215E09400904214E0940040038C
:10B9010012B5CB904214E0FFA3E0904D87CFF0A396
:10B91100EFF0D3904215E09422904214E09400504D
:10B921000302B9FB12D4EA904D87E0FFA3E09042F5
:10B9310014CFF0A3EFF0904C3212997590000C12D5
:10B9410096D2FFAEF0BE0833BF063012C805D390C1
:10B951004215E09400904214E09400500302B8C9EB
:10B96100904C32129975904214E0FCA3E0FD12D77D
:10B971007CE4904214F0A3F002B8C9904C321299C1
:10B981007590000C1296D27004E5F06408706BE9B2
:10B99100240EF9E43AFA90000912952964117052C3
:10B9A10012BB4FD3904215E09400904214E09400F2
:10B9B100500302B8C9904C32129975904214E0FCC0
:10B9C100A3E0FD12D77CEF700302B8C9E4904214E2
:10B9D100F0A3F0904C3EE0700302B8C97FE87E030B
:10B9E100129400E4904C3EF0904C3CF012D87F024F
:10B9F100B8C97F0112600012E55F90800F7401F0F9
:10BA0100908013E0904D29F0908012E0904D2AF043
:10BA1100908011E0904D2BF0908010E0904D2CF033
:10BA2100904C351299141298CDEF2401FFE43EFE9B
:10BA3100E43DFDE43CFC904D291299201297A3E4CA
:10BA41007B0AFAF9F8D31298F0400302BB0712DA25
:10BA51006B904C3DE064017065904BCF129914904E
:10BA61004BD3129920C31298F07008904C3BE0041C
:10BA7100F0802E904BCF129914904BD3129920D372
:10BA81001298F04013904BD3129914904BCF129906
:10BA91002CE4904C3BF080097BFF7AD7792F128EF2
:10BAA100FA904C3BE0C394644014904C3A7401F01A
:10BAB100E4904C3DF07BFF7AD77937128EFA904CA7
:10BAC1003AE0600204F0E4904D86F0904D86E0FF8C
:10BAD100C3940A5025EF75F069A424C8F9743D3563
:10BAE100F0FA7B019041E212997E7F02126000120E
:10BAF100E55F904D86E004F080D1904D29129914B4
:10BB0100904C3512992C904C3CE0700302B8C990CE
:10BB11004C2C129914EF2401FFE43EFEE43DFDE4B8
:10BB21003CFC904C2C12992C7F407E427D0F7C0076
:10BB3100904C2C129920D31298F0500302B8C97B73
:0EBB4100FF7AD77963128EFA12D87F02B8C944
:068087007530A602D84C82
:02808D00C29798
:03808F0002D846CE
:10D8440080FE787FE4F6D8FD9000007FFE7E80E4C1
:10D85400F0A3DFFCDEFA758172C2B4C2B5C297C20E
:10D86400E9C2EEE5DA4430F5DA12D8BD80D2C2B4AA
:0ED87400C2B5C297C2E9C2EE02000002FFFD7B
:03FFFD0002808DF2
:07FFF600A5A5A5A5A5A5A581
:1080000010F013F01826C0A80201FFFFFF00C0A85F
:1080100002FEA85FC0010061646D696E000000008F
:108020000000000000000073797374656D000000AB
:1080300000000000000000737769746368000000AE
:078040000000000000000039
:0FE793000A0D454550526F6D204552524F5200AE
:10D0CF00504A2B000000010000000000000001008A
:03D0DF000000004E
:10E390007B017A42792B904D7312997EE4904D72F5
:10E3A000F0129F84904D72E0FD7C002400FFEC345D
:10E3B00002FEA3129975E92DF9EC3AFA12E10CEF7D
:10E3C0007002FF22904D72E004F0E0C3944740D108
:02E3D0007F01CB
:01E3D2002228
:10DFC700E4904DACF0904DACE0FFC394085059EF8E
:10DFD7006402604CEF64036047EF64066042EF64DD
:10DFE70007603D7E007B017A4D79AB12E10CEF7043
:10DFF7000690422AF0FF22904DACE025E0242BF555
:10E0070082E4344AF583E0FEA3E0FF904DABE0FDE8
:10E01700EF6D7001EE600990422A7401F07F0022D3
:0FE02700904DACE004F0809D90422A7401F0FF10
:01E0360022C7
:10E73A00782B7C427D017BFF7A8079007E007F47BF
:03E74A000294EA4C
:10CB8400E4904D89F0A3F0A3F012E7DA12E73A1229
:10CB9400DFC7EF700302CD04E4904D89F0A3F09059
:10CBA4004D89E0FEA3E0FFC39406EE94005031EFFC
:10CBB4002408FFE43EFE7B017A4D798B12E10C9050
:10CBC4004D8BE0FF904D89A3E0243BF582E4344A89
:10CBD400F583EFF0904D89E475F00112969180BFD2
:10CBE400E4904D89F0A3F0904D89E0FEA3E0FFC3EB
:10CBF4009404EE94005031EF240EFFE43EFE7B01DA
:10CC04007A4D798B12E10C904D8BE0FF904D89A306
:10CC1400E02441F582E4344AF583EFF0904D89E451
:10CC240075F00112969180BFE4904D89F0A3F090C5
:10CC34004D89E0FEA3E0FFC39404EE94005031EF6D
:10CC44002412FFE43EFE7B017A4D798B12E10C90B5
:10CC54004D8BE0FF904D89A3E02445F582E4344AEE
:10CC6400F583EFF0904D89E475F00112969180BF41
:10CC7400E4904D89F0A3F0904D89E0FEA3E0FFC35A
:10CC84009404EE94005031EF2416FFE43EFE7B0141
:10CC94007A4D798B12E10C904D8BE0FF904D89A376
:10CCA400E02449F582E4344AF583EFF0904D89E4B9
:10CCB40075F00112969180BFE4904D89F0A3F09035
:10CCC4004D89E0FEA3E0FFC39404EE9400503AEFD4
:10CCD400241AFFE43EFE7B017A4D798B12E10C901D
:10CCE4004D8BE0FF904D89A3E0244DF582E4344A56
:10CCF400F583EFF0904D89E475F00112969180BFB1
:09CD04007BFF7AE77993128EFAA5
:01CD0D002203
:10E74D00904D4F7401F0A3F0A3F0FB7A4A793BA3EF
:03E75D0002997EA0
:0CE7B000908000E04408F0E054FBF022F0
:08E7D200E47FB87E0BFDFC2280
:10E0A3000A0D54465450204661696C212052657311
:10E0B3007461727421000A55706461746520627919
:10E0C3002057656220000A0D5446545020426C6F5D
:10E0D300636B206E756D6265723A000D090909253F
:10E0E30064002E2E2E544654502046696E69736880
:10E0F3002120000A0D20466C6173682057726974F1
:09E1030065204572726F72210063
:10BB4F00C3904215E0942E904214E094005004E408
:10BB5F0002BD9BE4904C41F0A3F0904C32129975CA
:10BB6F00E92422F9E43AFA9000021296D26445458C
:10BB7F00F0600302BD9E904C3212997590002A120C
:10BB8F0096D2FFAEF0E5F0600302BD9EEF24FE609B
:10BB9F002014700302BC2614700302BD97147003A7
:10BBAF0002BD972404600302BD9EE490421402BDBF
:10BBBF009B904C3CE0600F1281D77BFF7AE079A31A
:10BBCF00128EFA12D87F904C3212997590002AE497
:10BBDF0075F004129776E4904C3FF0A3F0E9242A15
:10BBEF00F9E43AFA900002E4F5F0129776904C3DA2
:10BBFF00E0B401087BFF7AE079B98018904C3D746E
:10BC0F0002F0904C3C14F07F047E0012C9C87BFFF9
:10BC1F007AE079C9028EFA904C3CE0700302BD9134
:10BC2F00904C2C12993800000000904C3FE475F0B6
:10BC3F0001129691904C32129975E9242AF9E43A3F
:10BC4F00FA9000021296D2FF904C3FE065F070031D
:10BC5F00A3E06F600302BD45904C32129975E92441
:10BC6F000EF9E43AFA9000021296D224E0FFE5F0C2
:10BC7F0034FFFE904C41F0FCA3EFF0FD904C3212DC
:10BC8F009975E9242AF9E43AFAE92404F9E43AFA2D
:10BC9F00E92DF9EA3CFAE41295C0904C32129975ED
:10BCAF00E9242AF9E43AFAE92404F9E43AFA128D7C
:10BCBF00B9EF6063904C3212997590002AE475F0D9
:10BCCF0004129776904C3FE0FEA3E0FFE9242AF997
:10BCDF00E43AFA900002EE8FF01297767F047E001E
:10BCEF0012C9C87BFF7AE079DE904C3FE0FFA3E0FA
:10BCFF00904C46CFF0A3EFF0128EFAC3904C41E078
:10BD0F009402400302BD9E7BFF7AE079E5128EFA22
:10BD1F00904C3E7401F022E4904214F0A3F07BFFAC
:10BD2F007AE079F6128EFA1281D77BFF7AE079A347
:10BD3F00128EFA02D87F904C32129975E9242AF9A3
:10BD4F00E43AFA9000021296D2FFD3904C40E09F53
:10BD5F00904C3FE095F04019904C3212997590003D
:10BD6F002AE475F0041297767F047E0012C9C8800A
:10BD7F0007E4904214F0A3F0904C3F74FFF5F002EB
:10BD8F009691E49042148004E4904214F0A3F022C0
:10E03700E4904B20F0904B20E0FFC39408502790CA
:10E04700000BC083C0827D00EF75F00BA424C5F9D7
:10E05700744A35F0FA7B01D007D006129F10904B17
:10E0670020E004F080CF7E007F137D007B017A4B98
:10E077007921129F10903DBBE0FFA3E0904B22CF88
:10E08700F0A3EFF0903DBDE0FFA3E0904B24CFF06D
:0CE09700A3EFF012E7D2904B3002992C5E
:10DA6B00904B34E004F0904B2C129914EF2401FFEF
:10DA7B00E43EFEE43DFDE43CFC904B2C12992C90D3
:10DA8B004B21E0700B12E5D2904B217401F0801FFB
:10DA9B00904B30129914904B2C129920D31298F072
:10DAAB00400D904B2C1299380000000012E5D2E487
:10DABB00904B20F0904B20E0FFC394085049EF753A
:10DACB00F00BA424C5F9744A35F0FA7B01900002DF
:10DADB001296D2FFAEF01296A7FDE5F04EFEED4F7B
:10DAEB004E601C90000A129529F404FF904B34E011
:10DAFB002FC3947840097E007F047D00129F109005
:07DB0B004B20E004F080ADA7
:01DB120022F0
:10C21300904D5512997E904D551299751296A7FF20
:10C22300904B22E065F07003A3E06F70469000022C
:10C233001296D2FF904B24E065F07003A3E06F7079
:10C2430032904D58129975A801AC02AD037B017A67
:10C253004D79427E007F06129EECEF700302C42EDE
:10C2630078267C4B7D01904D581299757E007F0690
:10C273000294EAE4904B20F0904B20E0FFC3940833
:10C28300400302C30BEF75F00BA424C5F582E4341D
:10C293004AF583E0FEA3E04E6065904B20E075F025
:10C2A3000BA424C7F582E4344AF583E0FCA3E04CF5
:10C2B300604D904D551299751296A7FDACF0EF7530
:10C2C300F00BA424C5F582E4344AF583E0FEA3E031
:10C2D3006D7002EE6C70289000021296D2FFAEF0E1
:10C2E300904B20E075F00BA424C7F582E4344AF5A3
:10C2F30083E0FCA3E06F7002EC6E700302C3F59061
:10C303004B20E004F002C27BE4904B20F0904B20E2
:10C31300E0FFC394085035EF75F00BA424C5F582F4
:10C32300E4344AF583E0FEA3E04E7018904B20E01E
:10C3330075F00BA424C7F582E4344AF583E0FEA329
:10C34300E04E6008904B20E004F080C1904B20E069
:10C353006408705A904A82F0904B1DF0904B20F085
:10C36300904B20E0FFC39408503CEF75F00BA424DE
:10C37300CFF582E4344AF583E0FFF404FE904B34B6
:10C38300E0FD2EFE904A82E0FCEED39C4010904BE1
:10C3930020E0FEED9F904A82F0904B1DEEF0904B13
:10C3A30020E004F080BA904B1DE0904B20F07E001B
:10C3B3007F0BC006C0077D00904B20E075F00BA4F7
:10C3C30024C5F9744A35F0FA7B01D007D006129FD1
:10C3D30010904B20E075F00BA424C5F9744A35F096
:10C3E300A801FC7D01904D551299757E007F0412C2
:10C3F30094EA904B20E075F00BA424C9F9744A35F4
:10C40300F0A801FC7D01904D581299757E007F06BE
:10C413001294EA904B34E0FF904B20E075F00BA4AC
:0CC4230024CFF582E4344AF583EFF022C8
:10D4EA0090421474FF75F0F21296919042271299A5
:10D4FA007590001E1296D2FF9037AAE065F070036D
:10D50A00A3E06F600302D5D79000201296D2FF9055
:10D51A0037ACE065F07003A3E06F600302D5D790E3
:10D52A00001A1296D2FF903DBFE0FCA3E0FDEC5535
:10D53A00F0FEED5FFF9037AAE05CFCA3E05D6F7040
:10D54A0002EE6C600302D5D79042271299759000BB
:10D55A001C1296D2FF903DC1E0FCA3E0FDEC55F011
:10D56A00FEED5FFF9037ACE05CFCA3E05D6F7002FC
:10D57A00EE6C705990422712997590001A1296D241
:10D58A00FFAEF04E700A90001C1296D245F0603D34
:10D59A00BEFF11BFFF0E90001C1296D2F47003E575
:10D5AA00F0F46029E9241AF9E43AFAC003C002C087
:10D5BA0001904227129975E92406F9E43AFA904D46
:0ED5CA005812997ED001D002D00312C2132253
:10C80500C3904215E0942A904214E094005005E448
:10C81500F0A3F022E4904214F0A3F090422712997D
:10C82500759000141296D2FFAEF0E5F0600302C9D0
:10C83500C7EF24FE700302C97204600302C9C790E2
:10C8450000261296D2FF9037AAE065F07003A3E0A8
:10C855006F600302C9C79000281296D2FF9037ACCB
:10C86500E065F07003A3E06F600302C9C79042273B
:10C87500129975900014E475F002129776E9241662
:10C88500F9E43AFAC003C002C00190422712997533
:10C89500E92420F9E43AA801FCAD03D001D002D087
:10C8A500037E007F061294EA904227129975E924C7
:10C8B50016F9E43AA801FCAD037B017A4A79BF7EFB
:10C8C500007F061294EA904227129975E92406F929
:10C8D500E43AA801FCAD037B017A4A79BF7E007F6B
:10C8E500061294EA904227129975E92420F9E43A50
:10C8F500FAC003C002C001904227129975A801AC85
:10C9050002AD03D001D002D0037E007F061294EA67
:10C9150090422712997590001C1296D2FF9000261E
:10C92500E5F08FF012977690001E1296D2FF9000D8
:10C9350028E5F08FF01297769037AAE0FFA3E090F4
:10C94500001CCF8FF01297769037ACE0FFA3E090F4
:10C95500001ECF8FF012977690000C740875F006C4
:10C96500129776904214E4F0A3742AF0229042279D
:10C975001299759000261296D2FF9037AAE0B5F06D
:10C9850041A3E0B5073C9000281296D2FF9037AC42
:10C99500E0B5F02EA3E0B50729E9241CF9E43AFA3D
:10C9A500C003C002C001904227129975E92416F907
:10C9B500E43AFA904D5812997ED001D002D0031274
:03C9C500C2132278
:10D5D8007E007F3C7D007B017A4A7983129F10E4AC
:10D5E800904B1EF0A3F0FE7F067DFF7B017A4A79FF
:10D5F80083129F107E007F067D007B017A4A79A303
:10D60800129F1078897C4A7D017B017A4A79BF7E16
:10D61800007F061294EA78997C4A7D017B017A4A58
:10D6280079BF7E007F061294EA904B35E0FFA3E0B5
:10D63800904AA9CFF0A3EFF0904B37E0FFA3E0901A
:10D648004AABCFF0A3EFF09037AAE0FFA3E0904AEF
:10D658009FCFF0A3EFF09037ACE0FFA3E0904AA192
:10D66800CFF0A3EFF0904A97E4F0A304F0904A912A
:10D67800E4F0A304F0A37408F0A3E4F0A37406F0A4
:10D68800A37404F0904A8F7408F0A37406F0904BCA
:10D698001EE4F0A3742AF07B017A4A7983FD7C00AA
:0BD6A80012D77CE4904214F0A3F022A3
:10BFE30090422712997590001E1296D2FF903DBF82
:10BFF300E0FCA3E0FDEC55F0FEED5FFF9037AAE017
:10C003005CFCA3E05DB50730EEB5042C904227122B
:10C0130099759000201296D2FF903DC1E0FCA3E0F9
:10C02300FDEC55F0FEED5FFF9037ACE05CFCA3E068
:10C033005D6F7002EE6C601C903DBBE0FFA3E0906F
:10C043004B35CFF0A3EFF0903DBDE0FFA3E0904B65
:10C0530037CF802290422712997590001E1296D2F4
:10C06300FF904B35E5F0F0A3EFF09000201296D24D
:10C07300FF904B37E5F0F0A3EFF078357C4B7D0173
:10C083007B017A3D79BB7E007F04129EECEF7058F2
:10C0930090422712997590001E1296D2FFAEF0BE01
:10C0A300FF15BFFF129000201296D2FFAEF0BEFF25
:10C0B30006BFFF0302C1A078267C4B7D017B017A7A
:10C0C3004D79427E007F06129EECEF700612E5D298
:10C0D3007F0122904227129975A801AC02AD037B20
:10C0E300017A4B792602C1D0E4904B20F0904B208B
:10C0F300E0FFC394085052EF75F00BA424C5F97404
:10C103004A35F0FA7B01904D8C12997E1296A7FF67
:10C11300904B35E0B5F02AA3E0B50725904D8C127E
:10C1230099759000021296D2FF904B37E0B5F0114B
:10C13300A3E0B5070C904B34E090000A1295D2802F
:10C1430008904B20E004F080A49042271299759048
:10C15300001E1296D2FFAEF0BEFF11BFFF0E90007D
:10C16300201296D2F47003E5F0F4600D904B20E0BA
:10C17300B4080612D5D87F012290422712997590F0
:10C18300001E1296D2FFAEF0BEFF1DBFFF1A900035
:10C19300201296D2FFAEF0BEFF0EBFFF0B7E007FD4
:10C1A300067DFF129F10802C904D8C129975E92407
:10C1B30004F9E43AFAC003C002C00190422712997D
:10C1C30075A801AC02AD03D001D002D0037E007F7D
:10C1D300061294EA904227129975E92406F9E43A83
:10C1E300A801FCAD037B017A4A79BF7E007F06126A
:10C1F30094EA90422712997590000C740875F00028
:0FC20300129776904214E475F00E1296917F0018
:01C212002209
:10E5D200904B22E0FFA3E0904B35CFF0A3EFF090F9
:10E5E2004B24E0FFA3E0904B37CFF0A3EFF002D52E
:01E5F200D850
:10C9C800904DADEEF0A3EFF04E7007904214F0A337
:10C9D800F022904C32129975E92406F9E43AFAC02B
:10C9E80003C002C001904C32129975A801AC02AD87
:10C9F80003D001D002D0037E007F061294EA904C47
:10CA080032129975E92406F9E43AA801FCAD037BD2
:10CA1800017A4C791A7E007F061294EA904C321201
:10CA28009975E9240EF9E43AFAE9240CF9E43AFA9A
:10CA3800C003C002C001904C32129975E9240EF966
:10CA4800E43AFAE92410F9E43AA801FCAD03D0016C
:10CA5800D002D0037E007F041294EA9037AAE0FE49
:10CA6800A3E0FF904C32129975E9240EF9E43AFAE2
:10CA780090000CEE8FF01297769037ACE0FFA3E0B1
:10CA880090000ECF8FF0129776904C30E475F0013D
:10CA9800129691904C30E0FCA3E0FDEC900004125B
:10CAA80095D2ED9000051295D2904DADE0FEA3E031
:10CAB800FF241CFDE43E9000028DF0129776900052
:10CAC8000AE4F5F0129776904C321299759000228C
:10CAD8001296D2FDE92422F9E43AFA900002E5F030
:10CAE8008DF01297769000021296D2FDACF0BC1F22
:10CAF80013BD4010904C32129975900022741F7526
:10CB0800F040800D904C32129975900022E475F037
:10CB180045129776EF2408FFE43EFE904C321299B6
:10CB280075E92422F9E43AFA900004EE8FF012979E
:10CB380076900006E4F5F01297769000061296D2E9
:10CB480045F07017904C32129975E92422F9E43AAD
:10CB5800FA90000674FFF5F0129776904C3212990D
:10CB680075E9240EF9E43AFA9000021296D2240EDE
:0CCB7800FEE435F0904214F0A3CEF02251
:10E70D007830A6A8908003E0A3E04404F043E10232
:07E71D00D2A8D2AF4387012F
:01E7240022D2
:10E760007830E6F5A8908003E0A3E054FBF053E195
:01E77000FDAB
:01E771002285
:10E50500904DAFEEF0A3EFF0904DAFE0908202F0AA
:10E51500904DAFA3E0908201F0EC908204F0ED9075
:0EE525008203F0EA908206F0EB908205F0226D
:09E7C800908200E0FF540370F799
:01E7D1002225
:10D90200904CFDEEF0A3EFF0A3ECF0A3EDF0A3EA50
:04D91200F0A3EBF0A3
:10D91600A3E05407904D05F064056004E0B40603E7
:10D926007F0022904D01E0131313541F04904D0401
:10D93600F0E4F9904D04E0FFE9C39F5075904D0166
:10D94600E0FAA3E0FB4A606AEF14904CFDB5010DC6
:10D95600E0FEA3E0FFA3E0FCA3E0FD800FE0FEA352
:10D96600E0FFA3E0FCA3E0FD7B007A0812E505904A
:10D976004D03E0908200F0904D05E0B4040312E7F9
:10D986000D12E7C8904D05E0B4040312E760904D10
:10D996000174F875F000129691904CFD740875F0BC
:10D9A60000129691904CFF740875F000129691093A
:04D9B60080817F01EC
:01D9BA00224A
:08DCDE00904D8FEEF0A3EFF072
:10DCE600904D8FE0908202F0904D8FA3E0908201DC
:10DCF600F0EC908206F0ED908205F09082007405BB
:10DD0600F0E4904D91F0908200E0FF904D91E00498
:10DD1600F0EF54076009E0C39460E494EA40E790AA
:10DD26004D91E0C39460E494EA40037F0022E490BE
:10DD36004D91F0904D91E0FFC3940450267E00EF84
:10DD46002407FDEE34828D82F583E0FDC374039FC4
:10DD5600FFE49E8F82F583ED1295D2904D91E004FB
:03DD6600F080D07A
:01DD69002297
:108092000A466C61736842616E6B2D2578282578DB
:1080A20029000A436865636B696E6720466C6173D9
:1080B200682E2E2E000A466C617368204368656341
:1080C2006B73756D5B253032785D2C2043616C20BB
:1080D200436865636B73756D5B253032785D000AAA
:1080E200000D20625B25645D000A625B25645D0011
:0C80F2000A0D625B25645D0013F0F013C2
:10D0E200444C9900000000424C960000414C8900DB
:10D0F200414C9800424C870000444C9200000000D2
:0ED10200414C9D05424C8E0000424C8A0000BC
:0181800022DC
:1081810004F0E4F52CF52D1281E4900AAA74AAF00A
:108191009005557455F0900AAA7490F07F037E0003
:1081A100E4FDFCC3ED9FEC9E5018E4FBFA128180C4
:1081B1000BBB00010ABA0FF5BBA0F20DBD00010C0B
:0281C10080E15B
:0181C3002299
:0D81C400EE908006F0E0908000E04420F096
:0181D100228B
:0581D200E4FF1283EC44
:0C81D700E4FF1283EC908000E054DFF025
:0181E3002279
:0681E400438E04D2DC22F0
:1081EA00E0F52EA3E0F52D900AAA74AAF0900555A1
:0C81FA007455F0900AAA74F0F01281A1F4
:06820600C2DC538EFB22D6
:10820C008E658F661281E4856682856583E0FF1238
:02821C008206D8
:01821E00223D
:0A821F007A287B00E4FDFCFF7E805E
:10822900904DB1EEF0A3EFF0904D037404F012D924
:0C82390002904DB1E0FEA3E0FF0281C402
:06824500904CDDEFF0FBA0
:10824B00904CE21299380000FFFFEB700A904CE261
:10825B0012993800005FFF904C8DE024FFFD904C8D
:10826B008CE034FFFC904CDDE0FB7E00B5050EEEA0
:10827B00B5040A904CE21299380000FFFAAF0312D2
:10828B0083EC904CE21299141293C07E00904CE652
:10829B00EEF0A3EFF07BFF7A807992904CDDE0FD5E
:1082AB00904C46E4F0A3EDF0A3EEF0A3EFF0128EAA
:1082BB00FA904CE6A3E0FF904C89E02FF0E4FF022C
:0282CB0083EC42
:1082CD00E4904D21F0A3F078257C4D7D017BFF7A64
:1082DD008079FAFE7F041294EA12821FE4904D21F8
:1082ED00F0A3F0904C8CA3E014FF1283EC904D2280
:1082FD00E024FCFF904D21E034FFFE12820C904DE6
:10830D0023EFF0129F84904D21A3E02425F582E404
:10831D00344DF583E0FF904D23E0B5071EE4FF12C9
:10832D0083EC904D21E475F001129691C3904D228E
:10833D00E09404904D21E0940040A8904D21E07010
:10834D0004A3E0640460061281D77F00227BFF7ACC
:10835D008079A4128EFAE4904C89F0904D21F0A30F
:10836D00F0904C8CE0FEA3E0FF904D21E0FCA3E0EB
:10837D00FDC39FEC9E5014AF05128245129F849051
:10838D004D21E475F00112969180D6904C8CA3E0AE
:10839D0014FF1283EC7FFB7EFF12820C904D24EFB5
:1083AD00F01281D27BFF7A8079B7904D24E0FF9057
:1083BD004C46E4F0A3EFF0904C89E0FF904C48E47C
:1083CD00F0A3EFF0128EFA904C89E0FF904D24E06F
:0883DD006F60037F00227F01A5
:0183E5002275
:0683E600904C8EA3E0FFA5
:1083EC00EF1392B5EFC3131392B4EF1313543F135F
:1083FC009297EF131313541F30E004D2E98002C29A
:0E840C00E9EFC4540F30E003D2EE22C2EE229C
:10841A00EFF01281E490055574AAF09002AA7455FF
:10842A00F09005557480F074AAF09002AA7455F081
:06843A009012347430F0D2
:10844000129F84902222E0FFE0FEEF5440FDEE54A4
:1084500040FC6D601AEF30E5E7902222E0FFE0FE7D
:10846000EF5440FDAF06EE54406D60037F00227F65
:01847000010A
:0184710022E8
:0D847200904D6FEDF0904D6DEEF0A3EFF02A
:10847F008E67F5687838F6904D6DE008F6904D6F81
:10848F00E008F6904C90E0FEA3E08EF0129AA585DE
:10849F00061CBA84DE1F1385067F4985067F5B8520
:1084AF0006BFC88506BFC984CABFD78506C249851E
:1084BF0006C25B84F2C2B60000851E1281E490559D
:1084CF005574AAF0902AAA7455F0905555803A1217
:1084DF0081E490055574AAF0900AAA7455F090059E
:1084EF005580261281E490055574AAF09002AA7463
:1084FF0055F090055580121281E4900AAA74AAF0E3
:10850F009005557455F0900AAA74A0F012820612C5
:10851F0081E4783AE6856882856783F0128206E403
:10852F00904D70F0A3F0904D70E0FEA3E0FFE4FCDF
:10853F00FD7BC07A277909F8D31298DA401E904D47
:10854F006DE0FEA3E0FF12820C904D6FE06F600CA8
:10855F00904D70E475F00112969180CA904D70E0C5
:10856F00FEA3E0FFE4FCFD7BC07A277909F8C31274
:09857F0098DA7003FF80027F010D
:0185880022D0
:03858900904DB35F
:10858C0012841AEF7005128206FF221282067F01F6
:01859C0022BC
:10859D001281E490055574AAF09002AA7455F090DA
:1085AD0005557480F074AAF09002AA7455F0EF147A
:1085BD00600804700B90000080039040007430F050
:1085CD00128440EF7005128206FF221282067F018F
:0185DD00227B
:0385DE00904DB508
:1085E10012841AEF7005128206FF221282067F01A1
:0185F1002267
:1085F200904DC6EFF01281E4900AAA74AAF0900599
:10860200557455F0900AAA7480F074AAF09005553A
:10861200128437EF7005128206FF221282067F0152
:018622002235
:108623001281E490055574AAF09002AA7455F09053
:1086330005557480F074AAF09002AA7455F0EF14F3
:10864300600804700B90000080039040007430F0C9
:10865300128440EF7005128206FF221282067F0108
:0186630022F4
:108664001281E4900AAA74AAF09005557455F0900A
:108674000AAA7480F074AAF09005557455F0EF14AA
:10868400600804700B90000080039040007430F088
:10869400128440EF7005128206FF221282067F01C7
:0186A40022B3
:1086A500EF756E00C454F0F56D1281E4900AAA745A
:1086B500AAF09005557455F0900AAA7480F074AA32
:1086C500F09005557455F0856E82856D837450F074
:0C86D5001282067F3C7E001294007F01A0
:0186E1002276
:1086E200E4F56FF5701281E4900AAA74AAF090057D
:1086F200557455F0900AAA7480F074AAF09005554A
:108702007455F0857082856F837430F01282067F13
:088712003C7E001294007F017F
:01871A00223C
:05871B00904D76EFF027
:10872000904D797404F0904D76E0757200C454F069
:10873000F5711281E490555574AAF0902AAA7455E7
:10874000F09055557480F074AAF0902AAA7455F0F0
:108750008572828571837430F01282067F3C7E00C0
:10876000129400904D79E014F0E0D3940050B77F5C
:018770000107
:0187710022E5
:108772007A201282211283E6904C8EE07002A3E0EE
:108782007068904C8AE07002A3E07015FF12862395
:10879200E4904C8EF0A3F0904C8AF0A37404F08025
:1087A20020904C8AE07004A3E0640470147F0112EC
:1087B2008623904C8EE4F0A304F0E4904C8AF0A35C
:1087C200F0904C8FE0C4F8540FC868FF904C8EE0D4
:1087D200C454F048FE904C8BE02FFF904C8AE03E50
:1087E200904C87F0A3EFF00281D7904C8EA3E0FF6C
:1087F2001285DE904C8AE07002A3E070097BFF7A5A
:108802008079E1128EFA7BFF7A8079E3904C8EE0D8
:10881200FFA3E0904C46CFF0A3EFF0128EFA128144
:10882200D2904C8EE475F001129691904C8FE0C478
:10883200F8540FC868FE904C8EE0C454F048904C37
:0688420087F0A3CEF02236
:1088480012821F1283E6904C8EE07002A3E07068DB
:10885800904C8AE07002A3E07015FF12859DE490A9
:108868004C8EF0A3F0904C8AF0A37404F080209012
:108878004C8AE07004A3E0640470147F0112859DA3
:10888800904C8EE4F0A304F0E4904C8AF0A3F090AE
:108898004C8FE0C4F8540FC868FF904C8EE0C45465
:1088A800F048FE904C8BE02FFF904C8AE03E904CB5
:1088B80087F0A3EFF00281D7904C8EA3E0FF1285DA
:1088C80089904C8AE07002A3E070097BFF7A807976
:1088D800E1128EFA7BFF7A8079E3904C8EE0FFA359
:1088E800E0904C46CFF0A3EFF0128EFA1281D290AE
:1088F8004C8EE475F001129691904C8FE0C4F854B8
:108908000FC868FE904C8EE0C454F048904C87F035
:04891800A3CEF022D8
:10891C0012821F1283E6904C8EE07002A3E0706806
:10892C00904C8AE07002A3E07015FF128664E4900C
:10893C004C8EF0A3F0904C8AF0A37404F08020903D
:10894C004C8AE07004A3E0640470147F0112866406
:10895C00904C8EE4F0A304F0E4904C8AF0A3F090D9
:10896C004C8FE0C4F8540FC868FF904C8EE0C45490
:10897C00F048FE904C8BE02FFF904C8AE03E904CE0
:10898C0087F0A3EFF00281D7904C8EA3E0FF128505
:10899C00F27BFF7A8079EB904C8EE0FFA3E0904C59
:1089AC0046CFF0A3EFF0128EFA1281D2904C8EE4E7
:1089BC0075F001129691904C8FE0C4F8540FC86872
:1089CC00FE904C8EE0C454F048904C87F0A3CEF04F
:0189DC002278
:1089DD00E4904DBBF0A3F0904C8AE07002A3E070E0
:1089ED00187BFF7A8079F2904C8EE0FFA3E0904CDB
:1089FD0046CFF0A3EFF0128EFA904C8AE0FCA3E084
:108A0D00FD2401FBE43CC4F854F0C8EBC4540F48FA
:108A1D00904DBBF0EB540FA3F0904C8EE07002A381
:108A2D00E07025D3ED9405EC9400401C904DBBE017
:108A3D00FF904C8EE48FF0129691904DBCE0FF901C
:108A4D004C8AE4F0A3EFF02212821F1283E6A3E01A
:108A5D00FEA3E08EF0129AA58A80BFC88A80BFC996
:108A6D008A75BFD700008A98904C8AA3E0FF1287C1
:108A7D001B8018904C8EE07002A3E0700B904C8A16
:108A8D00A3E0FF1286A580031286E21281D2904CDC
:108A9D0090E064BF7004A3E064D7600A904C8EE050
:108AAD007002A3E0701D904DBBE0FF904C8EE48FE3
:108ABD00F0129691904DBCE0FF904C8AE4F0A3EF3C
:108ACD00F08011904C8EE475F001129691E4904C6B
:108ADD008AF0A3F0904C8FE0C4F8540FC868FE9054
:108AED004C8EE0C454F048904C87F0A3CEF0904CDF
:0F8AFD008AE0FEA3E0FF904C87EE8FF012969177
:018B0C002246
:108B0D00E4FF0F1283EC7FFB7EFF12820CEF601FE0
:108B1D00F4601CEFFDC3904C86E09D904C85E09475
:108B2D0000400CEF54077007904C8CF0A3EFF0E46D
:048B3D00FF0283ECC4
:108B4100E4F52CF52DF52E904DC904F01281E49039
:108B5100555574AAF0902AAA7455F0905555128172
:108B61009A900000E0F52CA3E0F52D90555574AADC
:108B7100F0902AAA7455F0905555128200E52CFE0A
:108B8100E52DFF904C90EEF0A3EFF08EF0129AA538
:108B91008BB81F138BC9BF438BC9BF448BC9BF4A55
:108BA1008BC9BF4B8BB1BFD78BB8C2B600008BDA74
:108BB100904C9D740A8005904C9D74F4F0904C8CFF
:108BC100E4F0A37408F08016904C9D74C8F0904CAA
:108BD1008CE4F0A37420F08005E4904DC9F0904D31
:108BE100C9E0705F128181900000E0F52CA3128131
:108BF100EAE52CFEE52DFF904C90EEF0A3EFF08E10
:108C0100F0129AA58C197F498C1B7F5B8C2EC2496F
:108C11008C1DC25B00008C3F80138000904C9D74C2
:108C2100C8F0904C8CE4F0A37410F08016904C9D29
:108C310074C8F0904C8CE4F0A37420F08005E490AB
:108C41004DC9F0904DC9E0703704F0E52CFEE52EDA
:108C5100FF904C90EEF0A3EFF08EF0129AA58C6B82
:108C6100BFC88C6BBFC900008C7C904C9D74C8F050
:108C7100904C8CE4F0A37420F08005E4904DC9F091
:108C8100904DC9E07040128181900200E0F52C9076
:108C910000011281EAE52CFEE52DFF904C90EEF0EB
:108CA100A3EFF08EF0129AA58CB11CBA00008CC211
:108CB100904C9D74C8F0904C8CE4F0A37408F08043
:108CC10005E4904DC9F0904DC9E0B40112904C8C6F
:0F8CD100E0FFA3E0904C85CFF0A3EFF0128B0DE6
:018CE0002271
:108CE100904C86E0C4F8540FC868FF904C85E0C4EE
:108CF10054F048FE904C87E0B50608A3E0B50703A1
:108D01007F002290800F7401F0908013E0904D2934
:108D1100F0908012E0904D2AF0908011E0904D2B60
:108D2100F0908010E0904D2CF0904C92129914121A
:108D310098CDEF2401FFE43EFEE43DFDE43CFC90D0
:108D41004D291299201297A3A804A905AA06AB07D9
:108D5100904C9DE0FFE4FCFDFEC31298F04058905A
:108D61004D29129914904C9212992C904C90E0FE3E
:108D7100A3E08EF0129AA58DAE1CBA8DA91F138D9A
:108D8100AE7F498DAE7F5B8DB3BFC88DB3BFC98D3B
:108D9100B3BFD78DAEC2498DAEC25B8DA4C2B60042
:108DA100008DB6128772800D128848800812891CC6
:088DB10080031289DD7F01221D
:0E8DB900904D4812997E904D4BECF0A3EDF0DA
:108DC70012821FE4904D4DF0A3F0904D4BE0FEA3AF
:108DD700E0FFC3904D4EE09F904D4DE09E50769042
:108DE7004C98E0FF7009C3904C96E09460502612AF
:108DF70083EC904C96E0FEA3E0FF904D48129975E6
:108E0700904D4DE0FCA3E0F5828C83129529FD126D
:108E17008472BF0140904C99129914EF2401FFE42A
:108E27003EFEE43DFDE43CFC904C9912992C904C9D
:108E370096E475F001129691904C96E07002A3E0CB
:108E47007006904C98E004F0904D4DE475F00112D7
:108E57009691028DD11281D7904D4BE0FEA3E0FF92
:108E6700A3E0B50609A3E0B507047F0180027F00F0
:018E770022D8
:0C8E780012821F128B0D1281D77F012285
:0CD11000414D0700414D0800414D060054
:10E5AE00E4FF904D521299758F8275830012952952
:10E5BE00FEEF2430FDE434838D82F583EEF00FEF11
:03E5CE00B406DFB1
:01E5D1002227
:10E41600E4904DCAF0904DCAE0FFC39404502E908C
:10E426004D52129975E92406F9E43AFA7E00E92F6D
:10E43600F9EE3AFA129510FDEF2436FFEE34838F8B
:0DE4460082F583EDF0904DCAE004F080C82F
:01E4530022A6
:10E63300908100E0FD54F7F0908130EFF0E0904DD1
:0CE643000DF0A3E4F0AF05908100EDF0B5
:01E64F0022A8
:10E344007F5012E633904D0DE0FEA3E0FD90813145
:10E35400F0EEFFA3F0A3EDF0A3EFF0908100749F23
:10E36400F09081357417F0A3E4F0904D51E0B401BE
:10E374000A908000E054204487FFF0908130E090C0
:0CE384004D0DF0A3E4F012E5AE02E4162B
:0B8E8400904D07E004F0E05403F022E2
:10E25800908137E060037F002290000C129529FE20
:10E268006408702890000D129529702090001712EC
:10E278009529FDB406037F0122EDB411037F022224
:10E28800900017129529B401137F0322EEB4860C6F
:0FE2980090000D129529B4DD037F07227F00222D
:0ED77C00904D5B12997E904D5EECF0A3EDF0A7
:10D78A00904D07E075F004A42413FFE5F034818F6F
:10D79A0082F583E030E7037F0022C3904D5FE09477
:10D7AA0008904D5EE06480948050037F0022904D83
:10D7BA005B12997512E258904D60EFF0904D5B1232
:10D7CA009975E9FD904D07E075F004A42410FFE572
:10D7DA00F034818F82F583EDF0AE02EEFD904D07B5
:10D7EA00E0F975F004A4FFAEF02411FBEE34818B4E
:10D7FA0082F583EDF0904D5EA3E0FDEF2412FFEE7B
:10D80A0034818F82F583EDF0904D5EE0FF3395E031
:10D81A00EF5407FF904D60E0FE33333354F84F4422
:10D82A0080FDE975F004A42413FFE5F034818F82AA
:09D83A00F583EDF0128E847F01EC
:01D8430022C2
:10E66D00908101E04480F0908101E0448070F8E4F5
:0CE67D00904D07F0908100E04404F02272
:10E53300E4FDFCEC701FEDC394045019ED75F00479
:10E54300A42413FFE5F034818F82F583E030E702E2
:0BE553007C010D80DEEC600312E66D21
:01E55E00229A
:06C42F00904CC312997E3F
:10C43500904D0DE0FEA3E0F5828E83E020E704E455
:10C44500FEFF22E4904D06F0904D0DE0FFA3E09035
:10C455004CC8CFF0A3EFF0904CC8E0FCA3E0FDF58D
:10C46500828C83E0FF904CC6E4F0A3EFF0904CC6BD
:10C47500E0FAA3E0FB7E0054787803CEC313CE1315
:10C48500D8F9904CCAF0EB5407FF904CC6E4F0A3E2
:10C49500EFF0E0F8E4F0E8904CC6F0EDF47003EC52
:10C4A500647F6013904CC9E02401FF904CC8E034D0
:10C4B500008F82F5838009908130E0758200F583D5
:10C4C500E0FF904CC6E0F0A3E04FF0904CC8E47557
:10C4D500F002129691904CC6E0FEA3E0FFA3E0FCAB
:10C4E500A3E0FD2FFFEC3EFED3EF94FFEE947F50CB
:04C4F5000302C58DEC
:10C4F900E49DFF74809CFE904CCBF0A3EFF0E49098
:10C509004CCFF0C3EE648094805007E4904CCBF09C
:10C51900A3F0904CCBE0FAA3E0FBC3904CC7E09B9F
:10C52900FE904CC6E09A904CCDF0A3CEF0EB4A9029
:10C539004CC86022E0FEA3E0FF904CC3129975AC91
:10C5490002AD01904CCBE0FAA3E0FB904D037401DE
:10C55900F012D9028006A3E0904CCFF0908130E030
:10C56900FE904CCFE07C002400FFEC3EFE904CC3D3
:10C57900129975904CCBE0FCA3E029F9EA3CFCAD9B
:02C5890001A30C
:10C58B008015904CC8E0FEA3E0FF904CC312997548
:10C59B00AC02AD01904CC6E0FAA3E0FB904D0374E6
:10C5AB0001F012D902904CC6E0FEA3E0FFA3EE8F80
:10C5BB00F0129691904CC8E0FCA3E0FDD394FFECF5
:10C5CB00947F4024908130E0FEE49400FF74809EC1
:10C5DB00FEC3ED9FFFEC9E904CC8F0A3EFF0904D87
:10C5EB0008E004F0E05401F0904CC8E0FEA3E0FF3B
:10C5FB00904D0DEEF0A3EFF0904D08E0600AEE4485
:10C60B0080904CC8F0A3EFF0904CC8E0FEA3E090F4
:0EC61B008131F0EEA3F0904CC6E0FEA3E0FFEC
:01C6290022EE
:10E68900E9908201F0EAFFA3F0E9A3F0A3EFF0ED2E
:0CE69900A3F0ECA3F09082007416F022B5
:10E6DB00908137E070057EFF7FFF229042271299D1
:09E6EB0075AD07AC0612E68922A8
:10DD6A00904DBDECF0A3EDF09000031295292D9093
:10DD7A003DB8F0900002129529FD904DBDE02D901E
:10DD8A003DB7F0900001129529903DB6F01295101A
:10DD9A00903DB5F0904DBDE0FCA3E0FDECFF903D59
:10DDAA00B7E0C39FE49400500F903DB6E004F0E062
:10DDBA007006903DB5E004F0AF05903DB8E0C39F12
:10DDCA00E494005018903DB7E004F0E0700F903DE5
:0EDDDA00B6E004F0E07006903DB5E004F022E3
:07E7DA00908001E04410F003
:01E7E1002215
:07E7E200908001E054E7F014
:01E7E900220D
:06E10C00904D9212997E75
:10E11200AD07EE5407FF908311EDF0A3EFF0E4FF9B
:10E122009083137420F0E4FDFC908313E0FE54C04E
:10E13200700E0DBD00010CC3ED9410EC942740E964
:10E14200EE30E712908310E0FF904D92129975EF36
:0DE152001295C07F01220FEFB4C8C57F00F9
:01E15F00229D
:107FE00075985043878053890F438920904D4FE007
:107FF000B40105758DF08003758DF4D28ED299226F
:10E7720030980CC298EFB599037F01227F00227F67
:02E78200002273
:0B91F400309805C298AF99227F00223E
:10940000EDC0E0ECC0E00E7C107D65DDFEDCFADF37
:0A941000F6DEF4D0E0FCD0E0FD220F
:1093C0007D009000000E0F438E07D2DCE02DFDA340
:1093D000DFFADEF8EDFFC2DC538EF8229000000EBB
:1093E0000F758E07D2DCE064FF700DA3DFF8DEF6A8
:1093F0007F01C2DC758E00227F00C2DC758E0022E8
:0EE7A20075CB3E75CAFCE4F5CDF5CCD2CA228B
:10E45400904D29129914908010EFF0904D29129943
:10E46400147808129901908011EFF0904D291299B7
:10E47400147810129901908012EFF0904D2912999E
:0CE48400147818129901908013EFF02218
:10E6C10012E7A2904D2D12993800000000904D29BB
:0AE6D1001299380000000002E45422
:10E6F400904D2D129914EF2401FFE43EFEE43DFDFC
:09E70400E43CFC904D2D02992C1F
:0AD11C004342270137B54142160EC9
:06E7F800904D9502997E90
:01817F0022DD
:10E16000E49041E5F09041E5E0FFC394025018EFE0
:10E1700025E024A3F582E43437F583E4F0A3F0909E
:10E1800041E5E004F080DEE49041E5F09041E5E017
:10E19000FFC3940A501475F069EF903DE11299693C
:10E1A000E4F09041E5E004F080E29037A17404F0DF
:04E1B000A3E4F022D2
:0EC62A00904CE812997E904CEBECF0A3EDF0F2
:10C638009037A1E475F001129691C39037A1E09468
:10C648007D40067410F0A3E4F0E49041E5F09041D9
:10C65800E5E0FFC3940A503FEF75F069A424C8F9D8
:10C66800743D35F0FA7B01904CED12997E900019DB
:10C67800129529601A904CED129975900004129643
:10C68800D2FF9037A1E065F07003A3E06F60A1903E
:10C6980041E5E004F080B77B007A007900904CED2A
:10C6A80012997EE49041E5F09041E5E0FFC3940AD9
:10C6B800506CEF75F069A424C8F9743D35F0FA7B25
:10C6C80001904CF012997E900019129529FF700E76
:10C6D800904CF0129975904CED12997E8040EF6461
:10C6E800077033904CED129975E94A601D9041E24C
:10C6F80012997590001A129529FF904CF0129975AD
:10C7080090001A129529D39F400C904CF0129975FD
:10C71800904CED12997E9041E5E004F0808A904CAF
:10C72800ED129975E94A7004FBFAF922904CED1262
:10C73800997590001974021295D2903DC3E090004B
:10C748000C1295D2903DC4E090000D1295D2903D08
:10C75800C5E090000E1295D2903DC6E090000F12F1
:10C7680095D2900012740575F0B412977690001463
:10C77800740575F0B4129776900010E475F0011204
:10C78800977690001BE41295D290001A74011295C6
:10C79800D290001874031295D2900016E41295D224
:10C7A80090001774101295D29037A1E0FFA3E09083
:10C7B8000004CF8FF0129776904CEBE0FFA3E09047
:10C7C8000006CF8FF0129776904CE8129975129662
:10C7D800A7FF904CED129975E5F08FF012975790DE
:10C7E8004CE81299759000021296D2FF904CED1207
:0CC7F8009975900002E5F08FF012977622
:01C804002211
:10E3D300E49041E5F09041E5E0FDC394025033ED54
:10E3E30025E024A3F582E43437F583E0FCA3E0B50C
:10E3F3000718ECB506149041E5E025E024A3F58267
:10E40300E43437F583E4F0A3F0229041E5E004F02F
:03E4130080C322A1
:10804700E49041E5F09041E5E0FDC394025030ED46
:1080570025E024A3F582E43437F583E0FCA3E04C64
:1080670070159041E5E025E024A3F582E43437F567
:1080770083EEF0A3EFF0229041E5E004F080C62202
:0FE1B400903DB9E04402F0904214E0FEA3E0FF7A
:10E1C3009041E2129975E92408F9E43AFAAD07ACF3
:10E1D3000612DD6A903DB5E0FF9041E21299759019
:10E1E3000008EF1295D2903DB6E09000091295D247
:10E1F300903DB7E090000A1295D2903DB8E09000B0
:04E203000B0295D2A3
:106000009041E2129975904D7A12997E904216E075
:106010002428FDE433FC904227129975E92DF9EA12
:106020003CFA9037AE12997EEF640260030261AED3
:10603000903DC6E004F07016903DC5E004F0700E8F
:10604000903DC4E004F07006903DC3E004F0E4909D
:106050004214F0A3F0904D7A1299759000191295A0
:1060600029FF64076004EFB4052590001A7401123B
:10607000958D90001A12952964587002740260037D
:10608000027760904D7A12997590001902746390AE
:106090004D7A129975900019129529700302776054
:1060A0009000101296D245F0700302618490001A9D
:1060B00074FF129556600302776090001B129529B9
:1060C000FF64086013900019129529FE64026004B1
:1060D000EEB40117EFB40A13900019E41295D290B0
:1060E0003DB97480F01277680271A7904D7A1299C9
:1060F0007590001B129529FFD3940440067E047FFF
:106100000480007403A807088002C333D8FC900001
:106110001A1295D290001B740112958D90420EE4D4
:1061200075F001129691900019129529540F147070
:1061300003026A7224FE60331470030270A724FE07
:1061400070030270A724FE70030270A72406600388
:10615000027760904227129975904216E07E0029DE
:10616000F9EE3AFA900021E4026A88E4904214F0D1
:10617000A3F09041E6F0A3F0903DB97404F01277DB
:10618000680272A0904D7A129975900019129529A3
:10619000540F64036003027760904214F0A3F09000
:1061A00041E6F0A3F0903DB97408F0027189904186
:1061B000EAE475F001129691904227129975904287
:1061C00016E0FFF5827583001295296445601090F2
:1061D00041E8E475F0011296919041EE0263279038
:1061E00042271299757E00E92FF9EE3AFA900002E3
:1061F000129529FD904214E06D7001EE600FEDFEE6
:10620000A3E0FDEDFF904214EEF0A3EFF0904227E3
:10621000129975904216E07E0029F9EE3AFA900044
:1062200003129529FF904215E06F7001E4600D9014
:106230004214E0FE904214EEF0A3EFF090422712D9
:106240009975904216E07E0029F9EE3AFA90000620
:10625000129529543F7008900007129529601090FC
:1062600041E8E475F0011296919041F402632790A1
:1062700037ACE0FEA3E0FF9037AAE0FCA3E0FDEC22
:106280004EFEED4F4E700F9000091295296401608B
:1062900003027760805F9000101296D26D7003EC5D
:1062A00065F060059041E8807E9000121296D2FF62
:1062B0009037ACE065F07003A3E06F60059041E8B3
:1062C0008065904227129975904216E07E0029F968
:1062D000EE3AFA900009129529FF640670030263F2
:1062E000E5EF6401600F9041E8E475F001129691CA
:1062F0009041F880329041FCE475F0011296919043
:106300004227129975904216E07E0029F9EE3AFA7A
:10631000900014129529640860119041FAE475F018
:1063200001129691904200E402677B9037ACE0FE48
:10633000A3E0FF9037AAE04EFEA3E04F4E702090FE
:1063400000101296D2FF9037AAE5F0F0A3EFF0907C
:1063500000121296D2FF9037ACE5F0F0A3EFF09068
:106360004227129975904216E07E0029F9EE3AFA1A
:10637000900014E41295D2900016E4F5F01297768E
:1063800090000AE4F5F01297769000101296D2FF72
:10639000AEF0903DB3EEF0A3EFF090000C1296D269
:1063A000FD900010E5F08DF012977690000CEE8FC6
:1063B000F01297769000121296D2FFAEF0903DB395
:1063C000EEF0A3EFF090000E1296D2FD900012E5D1
:1063D000F08DF012977690000EEE8FF01297769077
:1063E00041FE02774F904204E475F0011296917BD2
:1063F000017A3D79C8904D7A12997E904D7A129922
:1064000075C39041E2E99582EA958340030264E80E
:10641000904D7A12997590001912952970030264B3
:10642000DB904227129975904216E07E0029F9EE22
:106430003AFA9000161296D2FFAEF0904D7A129969
:10644000759000041296D26F7003EE65F06003023F
:1064500064DB904227129975904216E07E0029F97C
:10646000EE3AFA9000141296D2FFAEF0904D7A12E6
:1064700099759000061296D26F7003EE65F0705B0E
:10648000904227129975904216E07E0029F9EE3A63
:10649000FA90000C1296D2FFAEF0904D7A129975D8
:1064A0001296A7B50735EEB5F031904227129975CF
:1064B000904216E07E0029F9EE3AFA90000E12960C
:1064C000D2FFAEF0904D7A1299759000021296D2DA
:1064D0006F7003EE65F07003026AE9904D7BE4751E
:1064E000F0691296910263FB9042271299759042CF
:1064F00016E07E0029F9EE3AFA900021129529540F
:106500003F640270519000161296D2FF903DB3E5A1
:10651000F0F0A3EFF0E49041E5F09041E5E0FFC337
:1065200094025028EF25E024A3F582E43437F58364
:10653000E0FEA3E0FF903DB3E06E7003A3E06F7058
:10654000030266D89041E5E004F080CE904212E468
:1065500075F001129691904227129975904216E0BB
:106560007E0029F9EE3AFA90002112952930E203D3
:1065700002776090420CE475F00112969190002130
:1065800074141295D2904214E4F0A37428F0900091
:106590002074501295D290001B129529FF9041E56E
:1065A000F090001F12952990001B1295D290001FA9
:1065B000EF1295D290001A129529FF9041E5F090C4
:1065C000001E12952990001A1295D290001EEF120B
:1065D00095D2900019129529FF9041E5F090001D89
:1065E0001295299000191295D290001DEF1295D2A4
:1065F000900018129529FF9041E5F090001C12952B
:10660000299000181295D290001CEF1295D290009C
:106610001F740112958D702B90422712997590422C
:1066200016E07E0029F9EE3AFA90001E74011295E8
:106630008D701090001D0412958D700790001C0441
:1066400012958D904227129975904216E07E00298E
:10665000F9EE3AFA9000141296D2FFAEF0903DB3E4
:10666000EEF0A3EFF09000161296D2FD900014E524
:10667000F08DF0129776900016EE8FF012977690CC
:1066800000101296D2FFAEF0903DB3EEF0A3EFF003
:1066900090000C1296D2FD900010E5F08DF012974C
:1066A0007690000CEE8FF01297769000121296D230
:1066B000FFAEF0903DB3EEF0A3EFF090000E129617
:1066C000D2FD900012E5F08DF012977690000EEE5C
:1066D0008FF01297760276A77B007A007900904DB2
:1066E0007A12997EE49041E5F09041E5E0FFC39491
:1066F0000A507B75F069EF903DE1129969E0701ADC
:106700009041E5E075F069A424C8F9743D35F0FACC
:106710007B01904D7A12997E80549041E5E0FF759F
:10672000F069903DE1129969E064077038904D7A04
:10673000129975E94A601690001A129529FE75F0B3
:1067400069EF903DE2129969E0D39E40189041E5CF
:10675000E075F069A424C8F9743D35F0FA7B019026
:106760004D7A12997E9041E5E004F00266E9904D81
:106770007A129975E94A700C90421075F0011296E0
:1067800091027760904D7A1299759041E212997E4C
:10679000904D7A12997590001A74031295D2900058
:1067A0001874031295D2900016E41295D290001737
:1067B00074041295D290001BE41295D290422712D5
:1067C0009975904216E0FF7E0029F9EE3AFA9000A2
:1067D000161296D2FD904D7A129975900004E5F04C
:1067E0008DF0129776904227129975E92FF9EE3ABB
:1067F000FA9000141296D2FF904D7A12997590007B
:1068000006E5F08FF0129776904227129975904224
:1068100016E029F9EE3AFA90000C1296D2FF904D4C
:106820007A129975E5F08FF01297579042271299D6
:1068300075904216E0FF29F9EE3AFA90000E129692
:10684000D2FD904D7A129975900002E5F08DF0120C
:10685000977690001974011295D2903DC3E0900094
:106860000C1295D2903DC4E090000D1295D2903D4F
:10687000C5E090000E1295D2903DC6E090000F1238
:1068800095D2900010E475F001129776904227128D
:106890009975E92FF9EE3AFA90001B129529FF90AD
:1068A0004D7A12997590000BEF1295D290422712F3
:1068B0009975904216E0FF29F9EE3AFA90001A1203
:1068C0009529FD904D7A12997590000AED1295D296
:1068D000904227129975E92FF9EE3AFA90001912B1
:1068E0009529FF904D7A129975900009EF1295D273
:1068F000904227129975904216E029F9EE3AFA90E3
:106900000018129529FF904D7A129975900008EFA2
:106910001295D27F0112E1C39042271299759042DD
:1069200016E07E0029F9EE3AFA90002012952954DB
:10693000F0D394505003026A72E49041E5F0904223
:1069400027129975904216E07E0029F9EE3AFA90E6
:106950000020129529C4540F24FB75F004A4FF9065
:1069600041E5E0FD7C00C39FEC95F04003026A72B4
:10697000904216E02428FFEE33CF2DCF3CFE90420C
:10698000271299758F828E83129529903DC7F070DA
:1069900003026A72903DC7E0FFB401089041E5E050
:1069A00004F0809AEF64026003026A44904216E0A9
:1069B0002429FFE433FE9041E5E0FD7C002FF582C1
:1069C000EC3EF58312952964047079904216E02418
:1069D0002AFFE433CF2DCF3CFE9042271299758FCA
:1069E000828E83129529FE904216E0242BFDEC3313
:1069F000FC9041E5E07A002DFDEA3CFC9042271234
:106A000099758D828C83129529FDEDFF903DB3EE33
:106A1000F0A3EFF0D394B4EE940540067E057FB466
:106A20008008903DB3E0FEA3E0FF904D7A12997587
:106A3000900012EE8FF0129776900014EE8FF01205
:106A40009776802E904216E02429FFE433FE904191
:106A5000E5E07C002FFFEC3EFE9042271299758FF7
:106A6000828E83129529FF60099041E5E02FF002A4
:106A7000693E904227129975904216E07E0029F9EE
:106A8000EE3AFA90002174101295D2904227129992
:106A900075904216E0FF7E0029F9EE3AFAE92421CA
:106AA000F9E43AFA12951044021295C09042271266
:106AB0009975E92FF9EE3AFA90002874021295D2EE
:106AC00090002974041295D290002A74051295D270
:106AD00090002B74B41295D2904214E4F0A3742C5D
:106AE000F090002074600274A2904D7A1299759013
:106AF00041E212997EE4903DB9F0904227129975D7
:106B0000904216E07E0029F9EE3AFA9000211295A3
:106B10002930E215904D7A129975900019E412957A
:106B2000D2903DB974200273429042271299759019
:106B30004216E07E0029F9EE3AFA900020129529DB
:106B4000C4540F75F004A4FF9041E5F0C3904215C2
:106B5000E09FFF904214E09ECF24ECCF34FFF0A3DF
:106B6000EFF0D3904215E09400904214E09400506E
:106B700003026C03900018129529FF904D7A129928
:106B8000759000081295296F600302746A9042277D
:106B9000129975904216E0FF29F9EE3AFA90001921
:106BA000129529FD904D7A12997590000912952938
:106BB0006D600302746A904227129975E92FF9EE0D
:106BC0003AFA90001A129529FF904D7A1299759011
:106BD000000A1295296F600302746A904227129985
:106BE00075904216E029F9EE3AFA90001B129529A9
:106BF000FF904D7A12997590000B1295296F6003E2
:106C000002746A904227129975904216E07E00291C
:106C1000F9EE3AFA90002112952920E403026D67FB
:106C2000904D7A1299759000101296D2FDACF04CEE
:106C30007003026D67E9240CF9E43AFA12DD6A90F8
:106C40004227129975904216E07E0029F9EE3AFA31
:106C500090001C129529FF903DB5E06F6003026D16
:106C60006790001D129529FF903DB6E06F6003020A
:106C70006D6790001E129529FF903DB7E06F60038D
:106C8000026D6790001F129529FF903DB8E06F607C
:106C900003026D67903DB5E0FF904D7A12997590B3
:106CA000000CEF1295D2903DB6E090000D1295D2F7
:106CB000903DB7E090000E1295D2903DB8E0900064
:0F6CC0000F1295D290001B1295296003026D4FA1
:106CCF00904D7A12997590001A129529FF9000181D
:106CDF00129529C39FFF904D7DF0900016129529B4
:106CEF00131313541FFEC3EF9E904D7DF0E0FF90E2
:106CFF00001612958DC3EF648094805007EFF40453
:106D0F00904D7DF0904D7DE0FF904D7A12997590EA
:106D1F0000171295291313543FFEC3EF9E904D7D1C
:106D2F00F090001712958D900016129529131313DA
:106D3F00541FFF9000171295292F9000181295D20B
:106D4F00903DB97401F0904D7A1299759000181218
:106D5F00952990001A1295D2904D7A12997590003C
:106D6F0019129529540F129A7F6D94016DD10270EB
:106D7F00040373490473E305744806746A077326A2
:106D8F000800007760903DB9E020E0030277609043
:106D9F00001974031295D2903DB97440F090001011
:106DAF00E4F5F0129776D3904215E09400904214D8
:106DBF00E09400400312E1B4E49041E6F0A3F00246
:106DCF007189903DB9E020E0030265569042271289
:106DDF009975904216E07E0029F9EE3AFA9000215B
:106DEF0012952964126003026556900020129529AE
:106DFF0054F0D394505003026F42E49041E5F09069
:106E0F004227129975904216E07E0029F9EE3AFA60
:106E1F00900020129529C4540F24FB75F004A4FF91
:106E2F009041E5E0FD7C00C39FEC95F04003026FBD
:106E3F0042904216E02428FFEE33CF2DCF3CFE9038
:106E4F0042271299758F828E83129529903DC7F034
:106E5F007003026F42903DC7E0FFB401089041E517
:106E6F00E004F0809AEF64026003026F1490421600
:106E7F00E02429FFE433FE9041E5E0FD7C002FF58F
:106E8F0082EC3EF58312952964047079904216E0E6
:106E9F00242AFFE433CF2DCF3CFE90422712997561
:106EAF008F828E83129529FE904216E0242BFDECE3
:106EBF0033FC9041E5E07A002DFDEA3CFC9042273F
:106ECF001299758D828C83129529FDEDFF903DB33C
:106EDF00EEF0A3EFF0D394B4EE940540067E057F59
:106EEF00B48008903DB3E0FEA3E0FF904D7A129975
:106EFF0075900012EE8FF0129776900014EE8FF0CF
:106F0F00129776802E904216E02429FFE433FE90EC
:106F1F0041E5E07C002FFFEC3EFE90422712997571
:106F2F008F828E83129529FF60099041E5E02FF043
:106F3F00026E0E904D7A1299759000197403129586
:106F4F00D2904227129975904216E0FF7E0029F9E0
:106F5F00EE3AFA900018129529FD904D7A12997514
:106F6F00900008ED1295D2904227129975E92FF9EA
:106F7F00EE3AFA900019129529FF904D7A129975F1
:106F8F00900009EF1295D2904227129975904216F0
:106F9F00E0FF29F9EE3AFA90001A129529FD904D6B
:106FAF007A12997590000AED1295D2904227129994
:106FBF0075E92FF9EE3AFA90001B129529FF904DC3
:106FCF007A12997590000BEF1295D27F0112E1C3DF
:106FDF00903DB97442F0904D7A129975900010E47B
:106FEF00F5F0129776E4904214F0A3F09041E6F09A
:106FFF00A3F0027189904227129975904216E07E94
:10700F000029F9EE3AFA90002112952920E00302A7
:10701F0070AA20E413904D7A129975900010129671
:10702F00D245F06003027760904215E02401FF9093
:10703F004214E03400FE12E1C3903DB97410F0D356
:10704F00904215E09400904214E094004007903D68
:10705F00B9E04402F0904227129975904216E07EF3
:10706F000029F9EE3AFA90002112952920E40790B1
:10707F003DB9E04401F0127768904D7A12997590FE
:10708F000010E475F00112977690001974081295AC
:10709F00D290001BE41295D20271ED904227129903
:1070AF0075904216E07E0029F9EE3AFA900021120F
:1070BF00952930E526900026129529FE900027127B
:1070CF009529FDEDFF9037AFEE8FF0129691C3909B
:1070DF004215E09FF0904214E09EF0D3904215E0ED
:1070EF009400904214E094004012904D7A129975DA
:1070FF0090001912952920E40312E1B4904227124F
:10710F009975904216E07E0029F9EE3AFA90002226
:10711F00129529FE9000231295297C002400FFEC84
:10712F003EFE903DB3F0A3EFF0904D7A129975901B
:10713F0000141296D2FDACF0D3EF9DEE9C500A9046
:10714F003DB3E07002A3E07008903DB3ECF0A3ED07
:10715F00F0903DB3E0FEA3E0FF904D7A1299759049
:10716F000012EE8FF0129776903DB9E05403700342
:10717F00027760E49041E6F0A3F0127768903DB992
:10718F00E030E52DE49041E6F0A3F0904D7A1299AE
:10719F0075900019E41295D290422712997590427A
:1071AF0016E07E0029F9EE3AFA9000217414027469
:1071BF0080903DB9E030E43FE49041E6F0A3F090D9
:1071CF004D7A129975900010E475F0011297769030
:1071DF00001974041295D290001BE41295D29042BC
:1071EF0027129975904216E07E0029F9EE3AFA902F
:1071FF0000217411027480D39041E7E09400904114
:10720F00E6E094004068903DB9E030E00F904D7A91
:10721F00129975900010E4F5F0129776904D7A124E
:10722F0099759000101296D245F0702A90001212A4
:10723F0096D2FFAEF0D39041E7E09F9041E6E09EFB
:10724F004005EEF0A3EFF09041E6E0FFA3E09000E1
:10725F0010CF8FF0802B904D7A12997590001012ED
:10726F0096D2FF9041E6E5F0F0A3EFF08016903D47
:10727F00B9E030E00F904D7A129975900010E4F557
:10728F00F0129776904D7A12997590001BE4129533
:10729F00D29037A71299759037AE12997ED390413D
:1072AF00E7E094009041E6E09400403C904D7A1264
:1072BF0099759000101296D2FFAEF0D39400EE9411
:1072CF00004025EF2428FFE43E904214F0A3EFF096
:1072DF00904227129975904216E07E0029F9EE3AF6
:1072EF00FA90002174188029903DB9E020E1030243
:1072FF007760904214E4F0A37428F090422712991B
:10730F0075904216E07E0029F9EE3AFA900021744A
:10731F00101295D202748C903DB9E020E0030277F1
:10732F0060904D7A129975900019E41295D2903DA4
:10733F00B97410F0127768027760D3904215E09419
:10734F0000904214E09400400312E1BE90422712D5
:10735F009975904216E07E0029F9EE3AFA900021D5
:10736F0012952930E038903DB9E0904D7A30E01D0C
:10737F0012997590001974071295D290001AE412A1
:10738F0095D2900010E4F5F0129776800B12997554
:10739F0090001974061295D27F017E008079903D7E
:1073AF00B9E030E01A904D7A129975900019740572
:1073BF001295D2900010E4F5F0129776027760D311
:1073CF00904215E09400904214E09400500302772D
:1073DF006002746AD3904215E09400904214E094D6
:1073EF0000400312E1BE904227129975904216E0B9
:1073FF007E0029F9EE3AFA90002112952930E02506
:10740F00904D7A12997590001974071295D29000C9
:10741F001AE41295D27F0112E1C3903DB97410F0B6
:10742F001277688036D3904215E09400904214E0B2
:10743F00940050030277608022903DB9E020E00372
:10744F00027760904D7A1299759000197407129512
:10745F00D290001AE41295D20277609042271299C7
:10746F0075904216E07E0029F9EE3AFA90002174E9
:10747F00101295D2904214E4F0A37428F090422792
:10748F00129975904216E07E0029F9EE3AFA9000B3
:10749F002074501295D2904D7A129975900008125F
:1074AF009529FF904227129975904216E0FD7C00B6
:1074BF0029F9EC3AFA90001CEF1295D2904D7A12FE
:1074CF009975900009129529FF904227129975E935
:1074DF002DF9EC3AFA90001DEF1295D2904D7A12D9
:1074EF00997590000A129529FF904227129975E914
:1074FF002DF9EC3AFA90001EEF1295D2904D7A12B8
:10750F00997590000B129529FF904227129975E9F2
:10751F002DF9EC3AFA90001FEF1295D2904D7A1296
:10752F00997590000C129529FF904227129975E9D1
:10753F002DF9EC3AFA900018EF1295D2904D7A127D
:10754F00997590000D129529FF904227129975E9B0
:10755F002DF9EC3AFA900019EF1295D2904D7A125C
:10756F00997590000E129529FF904227129975E98F
:10757F002DF9EC3AFA90001AEF1295D2904D7A123B
:10758F00997590000F129529FF904227129975E96E
:10759F002DF9EC3AFA90001BEF1295D29000097476
:1075AF00061295D2904D7A1299759000041296D2C8
:1075BF00FF904227129975E92DF9EC3AFA900014D1
:1075CF00E5F08FF0129776904D7A1299759000062C
:1075DF001296D2FF904227129975E92DF9EC3AFADB
:1075EF00900016E5F08FF01297769037AAE0FFA380
:1075FF00E090000CCF8FF01297769037ACE0FFA39E
:10760F00E090000ECF8FF0129776904D7A12997509
:10761F001296A7FF904227129975E92DF9EC3AFAC5
:10762F00900010E5F08FF0129776904D7A129975C1
:10763F009000021296D2FF904227129975E92DF908
:10764F00EC3AFA900012E5F08FF0129776904D7A9F
:10765F0012997590001912952990422730E41B1248
:10766F009975904216E07E0029F9EE3AFA900023C0
:10767F00E41295D2900022E4801B12997590421665
:10768F00E07E0029F9EE3AFA90002274051295D2A5
:10769F0090002374781295D2904214E0FF90422705
:1076AF00129975904216E0FD7C0029F9EC3AFA9098
:1076BF000002EF1295D2904214E0A3E09000031263
:1076CF0095D2900024E4F5F0129776900024E4F51B
:1076DF00F0129776904227129975904216E0F58234
:1076EF0075830074451295D2E92DF9EC3AFA9000A2
:1076FF0001E41295D2900007E41295D2900006E4AF
:10770F001295D290000874FF1295D2903DB0E47597
:10771F00F001129691903DB0E0FCA3E0FDEC9000DB
:10772F00041295D2ED9000051295D290000AE4F55F
:10773F00F012977690000AE4F5F0129776904206D1
:10774F00E475F0011296919041ECE475F001029608
:08775F0091E4904214F0A3F044
:0177670022FF
:10E5F3004745542000504F535420002F006D61694C
:10E603006E2E68746D002E00636769004D504B5485
:01E613000006
:04D12600414BCE00AB
:07E7F1007F507E000280470B
:10776800E4904CBDF0A3F09041E2129975E9241C15
:10777800F9E43AFA904BD712997E903DB9E030E699
:1077880026904BD7129975900004E41295D2900078
:1077980005E4F5F0129776900022E41295D2900055
:1077A8003AE4F5F0027E91903DB9E030E32A904149
:1077B800E212997590001912952930E403027E941B
:1077C800904BD71299759000227401129556C39464
:1077D8000A5003027E94806E903DB9E054306003F5
:1077E800027E94903DB9E020E103027BBB904BD729
:1077F8001299759000041295296003027B4390004A
:10780800221295D27BFF7AE579F3904D3C12997E4E
:10781800904D3FE4F0A37404F09037AE12997512BE
:10782800DEDFEF603B7BFF7AE579F8904D3C1299FB
:107838007E904D3FE4F0A37405F09037AE12997531
:1078480012DEDFEF6007903DB97420F022904CBD46
:107858007405F0904BD71299759000047406801146
:10786800904CBD7404F0904BD71299759000047435
:10787800071295D29037AE129975904214E0FEA384
:10788800E0F5828E83E41295D2904CBDE0FF904CD7
:10789800BFE4F0A3EFF09037AE129975904CBDE0BD
:1078A8007E0029F9EE3AFA12E725904CBFE0FCA3D6
:1078B800E0FDC39FEC9E50579037AE1299758D82AC
:1078C8008C8312952964206023904CBFE0FEA3E0CE
:1078D800FFF5828E83129529640D60109037AE12E1
:1078E80099758F828E83129529B40A179037AE1234
:1078F8009975904CBFE0FEA3E0F5828E83E4129563
:10790800D2800C904CBFE475F00112969180877B71
:10791800007A007900C003C002C001904BD71299C9
:1079280075900026129A26904BD7129975900004EC
:10793800129529640760030279C29037AE129975CF
:10794800904CBDE07E0029F9EE3AFAC003C002C0AF
:1079580001904BD7129975900023129A26904BD715
:107968001299759000231299F67D3F12E6A5C0037F
:10797800C002C001904BD7129975900026129A2622
:10798800904BD71299759000261299F6EA494B60E8
:1079980029904BD71299759000261299F6E4129502
:1079A800C0904BD7129975900026A3E475F0011288
:1079B800970A12CE4E904CBEEFF0904BD7129975A5
:1079C800900004129529B4062C9037AE1299759040
:1079D8004CC0E02401FF904CBFE03400FEE92FF9D1
:1079E800EA3EFAC003C002C001904BD712997590C5
:1079F8000023129A269037AE129975904CBDE07EFE
:107A08000029F9EE3AFA904CB412997E7B007A007C
:107A18007900904CB112997E904CB412997512CDA0
:107A28000E904CB112997E904CB1129975E94A4B5F
:107A3800600D904BD7129975900003E41295D2907F
:107A48004CB1129975EA494B706B7BFF7AE579FE68
:107A5800904D3C12997E904D3FE4F0A304F0904C79
:107A6800B412997512DEDFEF704B904D41E0703023
:107A7800904C86E0C4F8540FC868FF904C85E0C469
:107A880054F048FEC3904C88E09F904C87E09E508D
:107A980007E4904BCEF0800E904BCE7403F0800636
:107AA800904BCE7401F07BFF7AE6790012CD0E90F0
:107AB8004CB112997E904CB1129975EA494B7003FA
:107AC800027BBB7BFF7AE67909904CD312997E90B2
:107AD8004CB41299751292EF904CBA12997E904C50
:107AE800B112997512D2E67BFF7AE6790B904D3C7C
:107AF80012997E904D3FE4F0A37403F0904CBA12B3
:107B0800997512DEDFEF6003027BBB904CBEE0FF8D
:107B18007B017A4B79DAC003C002C0019041E212BE
:107B28009975E9241CF9E43AFA9000451299F68906
:107B3800828A83D001D002D00380759037AE129923
:107B480075904214E0FEA3E0F5828E83E41295D28C
:107B5800E4904CBEF07BFF7AE6790F904BDA1299ED
:107B68007E9037AE129975C003C002C001904BD702
:107B7800129975900023129A269037AE1299759033
:107B88004BDD12997E7B017A4B79DAC003C002C0C3
:107B9800019041E2129975E9241CF9E43AFA90003F
:107BA800451299F689828A83D001D002D003E4FF76
:107BB800129AD6903DB9E020E003027D64904BD73D
:107BC800129975900022E41295D2900021E4129542
:107BD800D29041E2129975E9241CF9E43AFA90002E
:0A7BE8004B129529F46003027CDCC7
:107BF200904BD71299759000361296D2FFAEF09044
:107C02004CC1EEF0A3EFF09000051296D2C39FE5AF
:107C1200F09E5003027CCB904BD712997590000ACC
:107C220074011295D29000041295296405904BD7E5
:107C32007063129975E92405F9E43AFAC003C002A7
:107C4200C0011296A7FF904BD712997590002F1280
:107C52009529FDC3904CC2E09DFD904CC1E094007B
:107C6200FCC3EF9DFFE5F09CD001D002D0038FF062
:107C7200129757904BD712997590002F129529FFA2
:107C8200C3904CC2E09FFF904CC1E094009000076B
:107C9200A38FF0802F129975E92405F9E43AFA12BC
:107CA20096A7FF904CC1E0FCA3E0FDC3EF9DFFE56A
:107CB200F09C8FF0129757904BD71299759000074E
:107CC200A3EC8DF012970A8054904BD712997590BD
:087CD2000005E4F5F0129776BD
:107CDA008043904BD712997590000A74011295D27D
:107CEA0090001B1296D2FF900005E5F08FF01297D4
:107CFA00769000121295299000131295D2900010D6
:107D0A001295299000111295D290001D1295299072
:107D1A00001E1295D2904BD71299759000151296A3
:107D2A00D2FF90000EE5F08FF012977690000412C1
:107D3A009529B4050E904BD71299759000047401D9
:107D4A001295D2904BD71299759000051296D2458A
:107D5A00F07007903DB97410F022E4904214F0A339
:107D6A00F0903DB9E030E303027E94904BD712992C
:107D7A0075900022E41295D2903DB9E020E2030208
:107D8A007E42900021740112958D9000211295294E
:107D9A00C3940A4009903DB97420F0027E42904B88
:107DAA00D71299759000131295299000121295D244
:107DBA00900012129529600F904BD7129975900076
:107DCA0019129529FF80027F00904BD7129975905E
:107DDA000019EF1295D290001112952990001012F5
:107DEA0095D290001E12952990001D1295D21299D3
:107DFA00879000031299F6C003C002C001904BD7C6
:107E0A00129975900007129A26904BD7129975907D
:107E1A00000E1296D2FF900007A3E5F08FF012979A
:107E2A000A904BD712997590000E1296D2FF9000C5
:107E3A0015E5F08FF0129776904BD712997590004E
:107E4A000412952964086042129987EA494B603AFC
:107E5A00904BD712997590000A129529700312D186
:107E6A00D2127E95904214E0FFA3E09041E6CFF053
:107E7A00A3EFF0904214E0FEA3E0FF904BD71299D3
:0A7E8A0075900036EE8FF012977627
:017E940022CB
:10E2F6002600485454502F312E3020000D0A00437A
:10E306006F6E6E656374696F6E3A20636C6F7365CA
:10E316000D0A00436F6E74656E742D547970653AFC
:10E326002000436F6E74656E742D4C656E6774685D
:0EE336003A2025750D0A00323030204F4B0082
:10CE4E00E4904DBFF0A3F0904BD712997590002649
:10CE5E001299F6129510700302CF7C904BD712994F
:10CE6E00759000261299F6904DBFE0FEA3E0904B10
:10CE7E00DA75F006129969EE75F006A42583F5832E
:10CE8E0012997E904BD71299759000261299F67DC5
:10CE9E003D12E6A5C003C002C001904BD712997592
:10CEAE00900026129A26904BD71299759000261252
:10CEBE0099F6EA494B700302CF7C904BD7129975C5
:10CECE009000261299F6E41295C0904BD7129975E0
:10CEDE00900026A3E475F00112970A904BD7129991
:10CEEE00759000261299F6904DBFE0FEA3E0904B90
:10CEFE00DD75F006129969EE75F006A42583F583AB
:10CF0E0012997E904BD71299759000261299F6C001
:10CF1E0003C002C0017BFF7AE279F6904D1B129995
:10CF2E007ED001D002D0031280FE904BD71299759D
:10CF3E00900026A3EE8FF012970A904BD712997598
:10CF4E009000261299F6129510B42615E41295C08B
:10CF5E00904BD7129975900026A3E475F0011297A5
:10CF6E000A904DBFE475F00112969102CE55904D88
:04CF7E00BFA3E0FF6E
:01CF8200228C
:0692EF00904CD012997EA4
:1092F50012E725904CD0129975E92FF9EA3EFA90BC
:109305004CD912997E904CD312997512E725904C41
:10931500DCEFF0904CD9129975C003C002C00190E2
:109325004CD0129975C3D082D083D0E0E99582EAFA
:10933500958340030293B9904CD3129975129510F9
:10934500FD904CD012997512E6A5904CD612997ED7
:10935500EA494B605F7F017E01904CDCE0FDEEC386
:109365009D5024904CD31299758E82758300129569
:1093750029FD904CD61299758E8275830012952918
:10938500B505010F0E80D2904CDCE0FEB5070F90BD
:109395004CD6129975EE7E0029F9EE3AFA22904CD8
:1093A500D6129975E92401F9E43AFA904CD012994C
:0A93B5007E0293187B007A00790015
:0193BF00228B
:0AE207007AE379027D027BFF7C00C0
:10E21100904DC1ECF0A3EDF0D39400EC94004036A6
:10E22100C003C002C0019037AE129975904214E04C
:10E23100FEA3E029F9EA3EA801FCAD03D001D0021A
:10E24100D003129D49904DC1E0FEA3E0FF9042141E
:07E25100EE8FF012969122FE
:10D1D200E4904214F0A3F07BFF7AE279F87D09FC37
:10D1E20012E211904BD712997590000B1299F61218
:10D1F200E725AD07AC06904BD712997590000B123C
:10D2020099F612E21112E2077AE379057D1312E22E
:10D212000D904BD71299759000301299F6EA494B4E
:10D2220060327BFF7AE379197D0E7C0012E2119065
:10D232004BD71299759000301299F612E725AD0777
:10D24200AC06904BD71299759000301299F612E203
:10D252001112E2079041E2129975E9241CF9E43AAD
:10D26200FA9000481299F6EA494B70619037AE1273
:10D272009975904214E0FEA3E029F9EA3EFAC00350
:10D28200C002C0017BFF7AE37928904C4612997E56
:10D29200904BD71299759000051296D2FF904C4987
:10D2A200E5F0F0A3EFF0D001D002D003128EF4909B
:10D2B20037AE129975904214E0FEA3E029F9EA3ED6
:10D2C200FA12E725904214EE8FF012969112E207BD
:10D2D200904214E0A3E0FF904BD712997590002F73
:04D2E200EF0295D2F0
:10D2E600904D9812997E904BD712997590000AE44A
:10D2F6001295D2900021E41295D2904D981299750C
:10D306009000061296D2FF904BD7129975900005A1
:10D31600E5F08FF0129776904D98129975C003C07C
:10D3260002C001904BD71299751299A7904D981289
:10D3360099759000031299F6C003C002C001904B84
:10D34600D7129975900007129A26904BD7129975A5
:10D3560090000474051295D2900012E41295D290B2
:10D366000013E41295D2900015E4F5F0129776902A
:10D376000017E4F5F012977690000EE4F5F0129798
:10D3860076900019E41295D2900010E41295D2908E
:10D396000011E41295D290001AE41295D290001D65
:10D3A600E41295D290001EE41295D290001FE4126A
:10D3B60095D290001BE4F5F01297767B007A0079FF
:10D3C60000C003C002C001904BD71299759000307F
:10D3D600129A267BFF7AE3793DC003C002C0019012
:0DD3E6004BD712997590000B129A26C322A6
:107E9500904BD7129975129987EA494B7003027F67
:107EA500DE904BD71299759000071299F6904BC941
:107EB50012997E9037AE129975904214E0FEA3E0B8
:107EC50029F9EA3EFA904BC612997E9041E2129941
:107ED50075E9241CF9E43AFA90004B129529B4FF90
:107EE50002D322904BD7129975900012129529FF53
:107EF5009041E2129975E9241CF9E43AFA90004C94
:107F050012952975F009904B8D1299691299758909
:107F1500828A83129AD61296A745F07044904BD761
:107F2500129975900012129529FF9041E2129975E8
:107F3500E9241CF9E43AFA90004C12952975F009E8
:107F4500904B8D12996912997589828A83129AD6F6
:107F5500E92402F9E43AFA129510700512CF83D399
:107F650022904BD7129975900012129529FF9041D6
:107F7500E2129975E9241CF9E43AFA90004C12953D
