:068087007530A602D7309F
:02808D00C29798
:03808F0002D72AEB
:10D7280080FE787FE4F6D8FD9000007F007E80E4DC
:10D73800F0A3DFFCDEFA75816E12D78780E2020063
:04D748000002FFFDDF
:03FFFD0002808DF2
:10E46800903D8A7401F0A3F0A3F0903B8B12978D36
:0DE47800E92408F9E43AFA903D8D029796E8
:10E0A8005080178013F0C0A80201FFFFFF00C0A82E
:10E0B80002FEA85FC0010061646D696E0000000087
:10E0C8000000000000000073797374656D000000A3
:10E0D800000000000000004E657420556172740055
:03E0E80000000035
:04CB1300413DE601B9
:0D920C00903DE6E0B40103D2D922C2D92280
:03921900C2D92295
:07921C00D2D8D2DAC2DA2237
:07922300438EC075EF072226
:10E400000A0D5374617274204655555F76312E3172
:10E410005F30383038313420000A0D20456E6420DA
:08E420006F66204655552000EF
:10D86F00903D747401F07E007F067DFFFB7A3D7959
:10D87F006E129D28903B8B12978DA801AC02AD03C1
:10D88F007B017A3D796E7E007F06129D04EF700456
:10D89F00903D74F07E007F067D007B017A3D796EAE
:10D8AF00129D28903B8B12978DA801AC02AD037B84
:10D8BF00017A3D796E7E007F06129D04EF70049011
:10D8CF003D74F0903B8B12978D12932830E005E456
:10D8DF00903D74F0903D74E07019903B8B12978DD2
:10D8EF00A801AC02AD037BFF7AE079A87E007F062A
:08D8FF00129302903D74E0FF5A
:01D9070022FD
:0C91D00012E52D12C2D112E3D602B368E2
:0EE60B009080057401F0E4FF000FEFB40AFAEE
:01E6190022DE
:10912D00D2DB12E60BC2D912E5C07BFF7AE47900DF
:10913D00128E0A7830E6903DFDF07B007A28E4FD32
:10914D00FCFF7E80128591128A021282931291D0B9
:09915D007BFF7AE47919028E0A05
:10CE48000A0D4D41432041646472657373202020AC
:10CE5800202020202020202020203A2000253032A9
:10CE6800782E0025303278000A0D49502020416480
:10CE78006472657373202020202020202020202029
:10CE880020203A200025642E002564000A0D3D3D2F
:10CE98003D3D3D3D3D3D3D3D3D3D3D3D3D3D3D3DBA
:10CEA8003D3D3D3D3D3D3D3D3D3D3D3D3D3D3D3DAA
:10CEB8003D3D3D3D3D3D3D3D3D3D3D3D3D3D3D3D9A
:10CEC800000A0D544654502053746172742E2E2E4D
:10CED8002E2E2E0A0D000A576569726420000A205A
:10CEE8004669726D7761726520557064617465205A
:10CEF800627920576562206661696C65642C2052EE
:10CF0800657374617274696E672070726F6772619D
:10CF18006D2C20476C6F62616C5F73757370656E02
:10CF2800645F636F756E745B25645D7E7E000A0DB9
:10CF3800544654502054696D656F757421205265AC
:07CF48007374617274210093
:08CB1700413C6F00413C72003B
:10E3AB00D390342CE0940090342BE09400401B125B
:10E3BB007D6B7B017A34792D90342BE0FCA3E0FD4F
:0BE3CB0012D7CCE490342BF0A3F0221A
:10B7EF007BFF7ACE7948128E0AE4903DFEF0903DB1
:10B7FF00FEE0FFC39405505BE0FE2430FDE434838C
:10B80F008D82F583E0FD74552EF582E4343CF5838B
:10B81F00EDF0903DFEE0FE2455F582E4343CF583D7
:10B82F00E0FD74202EF582E4343AF583EDF07BFFD2
:10B83F007ACE796574552FF582E4343CF583E0FFB9
:10B84F00903C2CE4F0A3EFF0128E0A903DFEE00442
:10B85F00F0809B903DFEE0FF2430FDE434838D8229
:10B86F00F583E0FE74552FF582E4343CF583EEF05A
:10B87F00903DFEE0FF2455F582E4343CF583E0FE75
:10B88F0074202FF582E4343AF583EEF07BFF7ACE05
:10B89F00796B903DFEE02455F582E4343CF583E06E
:10B8AF00FF903C2CE4F0A3EFF0128E0A7BFF7ACED0
:10B8BF007970128E0AE4903DFEF0903DFEE0FFC3DA
:10B8CF009403503FE0FE2436FDE434838D82F583EC
:10B8DF00E0FD745B2EF582E4343CF583EDF07BFFE5
:10B8EF007ACE798D745B2FF582E4343CF583E0FFDB
:10B8FF00903C2CE4F0A3EFF0128E0A903DFEE00492
:10B90F00F080B7903DFEE0FF2436FDE434838D8256
:10B91F00F583E0FE745B2FF582E4343CF583EEF0A3
:10B92F007BFF7ACE7991903DFEE0245BF582E43483
:10B93F003CF583E0FF903C2CE4F0A3EFF0128E0A6D
:10B94F007BFF7ACE7994128E0A903C5BE0FEA3E0E7
:10B95F00FDEDFF902FB4EEF0A3EFF0903C5DE0FE15
:10B96F00A3E0FDEDFF902FB6EEF0A3EFF0903C5F5C
:10B97F00E0FEA3E0FDEDFF902FD3EEF0A3EFF090EC
:10B98F003C61E0FEA3E0FDEDFF902FD5EEF0A3EFBD
:10B99F00F0903C63E0FEA3E0FDEDFF902FCFEEF0C3
:10B9AF00A3EFF0903C65E0FEA3E0FDEDFF902FD1FB
:10B9BF00EEF0A3EFF0E4902FC2F0A3F0903C73F001
:10B9CF00903C71F0903C74F0A3F0903C671297504C
:04B9DF000000000064
:01B9E3002241
:10B3680012B7EF12E2E012DE75128D987BFF7ACEEB
:10B3780079C9128E0A903C6FE0C39414400312D727
:10B3880049128CC87B017A34792D12B5F290342B8E
:10B39800EEF0A3EFF090342BE0FFA3E0903DC2CF96
:10B3A800F0A3EFF0D390342CE0942290342BE09467
:10B3B80000500302B49912D908903DC2E0FFA3E0FF
:10B3C80090342BCFF0A3EFF0903439E06408700488
:10B3D800A3E06406705012E34ED390342CE094003E
:10B3E80090342BE0940040028024903DC2E0FFA3FB
:10B3F800E090342BCFF0A3EFF012BF55D390342C4C
:10B40800E0940090342BE09400500302B37D7B015C
:10B418007A34792DE0FCA3E0FD12D7CCE490342BEC
:10B42800F0A3F002B37D903439E064087002A3E021
:10B43800705F903444E06411704F12BD8CD3903427
:10B448002CE0940090342BE09400500302B37D7BF1
:10B45800017A34792DE0FCA3E0FD12D7CCEF70031C
:10B4680002B37DE490342BF0A3F0903C73E07003BA
:10B4780002B37D7FE87E031291DCE4903C73F09088
:10B488003C71F012D74902B37D7F0112600012E3CC
:10B49800AB90800F7401F0908013E0903D56F090CF
:10B4A8008012E0903D57F0908011E0903D58F09068
:10B4B8008010E0903D59F0903C6B12972C1296E565
:10B4C800EF2401FFE43EFEE43DFDE43CFC903D56E4
:10B4D8001297381295BBE47B0AFAF9F8D312970849
:10B4E800400302B5AA903C72E06401706D903BE2A3
:10B4F80012972C903BE6129738C312970870089061
:10B508003C70E004F0802E903BE212972C903BE6D2
:10B51800129738D31297084013903BE612972C9055
:10B528003BE2129744E4903C70F080097BFF7ACEAE
:10B5380079DE128E0A903C70E0FFC39464401B9041
:10B548003C6F7401F0E4903C72F07BFF7ACE79E6B0
:10B55800903C2CF0A3EFF0128E0A903C6FE0600252
:10B5680004F0E4903DC1F0903DC1E0FFC3940A505F
:10B5780025EF75F069A424DCF9742F35F0FA7B0106
:10B588009033F61297967F0212600012E3AB903D5B
:10B59800C1E004F080D1903D5612972C903C6B127C
:10B5A8009744903C71E0700302B37D903C6712971A
:10B5B8002CEF2401FFE43EFEE43DFDE43CFC903C1E
:10B5C800671297447F407E427D0F7C00903C671253
:10B5D8009738D3129708500302B37D7BFF7ACF794F
:0AB5E80036128E0A12D74902B37D15
:10DDCD000A205631333320000A0D202065655B256E
:10DDDD00785D3D257820000A205631333520000A24
:10DDED0020454550524F4D20636865636B204F4B66
:10DDFD0020000A20454552504F4D204944206D6961
:10DE0D00736D617463682000000100010001000062
:04DE1D000001000000
:10CB1F00433B8B013B9E503B8E0000000100000009
:09CB2F00000000000100000000FC
:10E1F100903B8B12978D903DAE129796E4903DAD7A
:10E20100F0903DADE0FD2408FF7E00A312978D7CC8
:10E2110000E92DF9EC3AFA12DE21EF7002FF2290AB
:0DE221003DADE004F0E0C3944340D67F0122
:01E22E0022CD
:10DC8D00E4903DE8F0903DE8E0FFC394085059EF73
:10DC9D006402604CEF64036047EF64066042EF641A
:10DCAD0007603D7E007B017A3D79E712DE21EF7042
:10DCBD0006903B8AF0FF22903DE8E025E0248EF5AA
:10DCCD0082E4343BF583E0FEA3E0FF903DE7E0FD09
:10DCDD00EF6D7001EE6009903B8A7401F07F0022B8
:0FDCED00903DE8E004F0809D903B8A7401F0FFC9
:01DCFC002205
:10BBBF00903D777401F078787C3DFD7BFF7ADE79DC
:10BBCF00157E007F04129302E4903D75F0903D7551
:10BBDF00E0FFC3940450337E007B017A3D797612E7
:10BBEF00DE21EF7004903D77F0903D75E02478F5FD
:10BBFF0082E4343DF583E0FF903D76E06F6003E42F
:10BC0F00A3F0903D75E004F080C3E4903D75F09093
:10BC1F003D75E0FFC394025028EF240EFF7E007B9A
:10BC2F00017A3D797612DE21EF7004903D77F09026
:10BC3F003D76E0F46003E4A3F0903D75E004F080FE
:10BC4F00CE903D77E06401600302BD867BFF7ADD15
:10BC5F0079CD128E0AE4903D75F0903D75E0FFC3EB
:10BC6F009406502BEF2404FF7E007B017A3D7976FA
:10BC7F0012DE21903D76E0FF903D75E0249EF58227
:10BC8F00E4343BF583EFF0903D75E004F080CBE4B6
:10BC9F00903D75F0903D75E0FFC39404502BEF2459
:10BCAF000AFF7E007B017A3D797612DE21903D7688
:10BCBF00E0FF903D75E024A4F582E4343BF583EF7B
:10BCCF00F0903D75E004F080CBE4903D75F0903D31
:10BCDF0075E0FFC39404502BEF240EFF7E007B0111
:10BCEF007A3D797612DE21903D76E0FF903D75E04A
:10BCFF0024A8F582E4343BF583EFF0903D75E00422
:10BD0F00F080CBE4903D75F0903D75E0FFC3940457
:10BD1F00502BEF2412FF7E007B017A3D797612DEE5
:10BD2F0021903D76E0FF903D75E024ACF582E43440
:10BD3F003BF583EFF0903D75E004F080CBE4903D50
:10BD4F0075F0903D75E0FFC39404502BEF2416FF60
:10BD5F007E007B017A3D797612DE21903D76E0FF01
:10BD6F00903D75E024B0F582E4343BF583EFF0901D
:0CBD7F003D75E004F080CB903D77E0FFC4
:01BD8B002295
:10C11800903CED7401F078EE7C3CFD7BFF7ADE7993
:10C12800197E007F08129302E4903CEBF0903CEB00
:10C13800E0FFC3940850567E007B017A3C79EC12EC
:10C14800DE21EF7004903CEDF07BFF7ADD79D5902D
:10C158003CEBE0FF903C2CE4F0A3EFF0903CECE0EB
:10C16800FF903C2EE4F0A3EFF0128E0A903CEBE037
:10C1780024EEF582E4343CF583E0FF903CECE06F7C
:10C188006003E4A3F0903CEBE004F080A0903CED69
:10C19800E06401600302C2CB7BFF7ADD79E4128E92
:10C1A8000AE4903CEBF0903CEBE0FFC39406502B84
:10C1B800EF2408FF7E007B017A3C79EC12DE2190A7
:10C1C8003CECE0FF903CEBE0249EF582E4343BF548
:10C1D80083EFF0903CEBE004F080CBE4903CEBF094
:10C1E800903CEBE0FFC39404502BEF240EFF7E003D
:10C1F8007B017A3C79EC12DE21903CECE0FF903C2C
:10C20800EBE024A4F582E4343BF583EFF0903CEBBB
:10C21800E004F080CBE4903CEBF0903CEBE0FFC313
:10C228009404502BEF2412FF7E007B017A3C79ECBA
:10C2380012DE21903CECE0FF903CEBE024A8F58274
:10C24800E4343BF583EFF0903CEBE004F080CBE482
:10C25800903CEBF0903CEBE0FFC39404502BEF24B0
:10C2680016FF7E007B017A3C79EC12DE21903CECD3
:10C27800E0FF903CEBE024ACF582E4343BF583EF3F
:10C28800F0903CEBE004F080CBE4903CEBF0903C89
:10C29800EBE0FFC39404502BEF241AFF7E007B01D0
:10C2A8007A3C79EC12DE21903CECE0FF903CEBE02C
:10C2B80024B0F582E4343BF583EFF0903CEBE004E6
:08C2C800F080CB903CEDE0FF9B
:01C2D000224B
:10E54700903B8B12978DA801AC02AD037BFF7AE05D
:09E5570079A87E007F43029302C3
:10C2D100E4903DC4F0A3F0A3F012922A12E54712B4
:10C2E100DC8DEF700302C45A7BFF7ADD79EC128E8C
:10C2F1000AE4903DC4F0A3F0903DC4E0FEA3E0FF4A
:10C30100C39406EE94005031EF2408FFE43EFE7B17
:10C31100017A3D79C612DE21903DC6E0FF903DC411
:10C32100A3E0249EF582E4343BF583EFF0903DC415
:10C33100E475F0011294A980BFE4903DC4F0A3F02C
:10C34100903DC4E0FEA3E0FFC39404EE940050319D
:10C35100EF240EFFE43EFE7B017A3D79C612DE2119
:10C36100903DC6E0FF903DC4A3E024A4F582E434EF
:10C371003BF583EFF0903DC4E475F0011294A98080
:10C38100BFE4903DC4F0A3F0903DC4E0FEA3E0FF04
:10C39100C39404EE94005031EF2412FFE43EFE7B7F
:10C3A100017A3D79C612DE21903DC6E0FF903DC481
:10C3B100A3E024A8F582E4343BF583EFF0903DC47B
:10C3C100E475F0011294A980BFE4903DC4F0A3F09C
:10C3D100903DC4E0FEA3E0FFC39404EE940050310D
:10C3E100EF2416FFE43EFE7B017A3D79C612DE2181
:10C3F100903DC6E0FF903DC4A3E024ACF582E43457
:10C401003BF583EFF0903DC4E475F0011294A980EF
:10C41100BFE4903DC4F0A3F0903DC4E0FEA3E0FF73
:10C42100C39404EE9400503DEF241AFFE43EFE7BDA
:10C43100017A3D79C612DE21903DC6E0FF903DC4F0
:10C44100A3E024B0F582E4343BF583EFF0903DC4E2
:10C45100E475F0011294A980BF7BFF7ADD79FF12A8
:05C461008E0A12BBBFB2
:01C4660022B3
:108019000A0D54465450204661696C2120526573FB
:108029007461727421000A5570646174652E2E2E74
:108039002062792057656220000A0D544654502069
:10804900426C6F636B206E756D6265723A000D0943
:1080590009092564002E2E2E544654502046696E77
:108069006973682120000A0D20466C6173682057E6
:0C80790072697465204572726F722100FC
:10BD8C00C390342CE0942E90342BE094005004E4B7
:10BD9C0002BF51E4903C76F0A3F0903451E0700473
:10BDAC00A3E06445600302BF54903457E0FEA3E067
:10BDBC00FFEE600302BF54EF24FE601D14606F148D
:10BDCC00700302BF4D14700302BF4D2404600302C4
:10BDDC00BF54E490342B02BF51903C71E0600F12C1
:10BDEC0082937BFF7A807919128E0A12D74990348C
:10BDFC0057E4F0A37404F0E4903C74F0A3F0903496
:10BE0C0059F0A3F0903C72E0B401087BFF7A807982
:10BE1C002F8018903C727402F0903C7114F07F04E7
:10BE2C007E0012D1397BFF7A807942028E0A903CD7
:10BE3C0071E0700302BF47903C67129750000000FE
:10BE4C0000903C74E475F0011294A9903459E0FE12
:10BE5C00A3E0FF903C74E06E7003A3E06F600302FC
:10BE6C00BF1090343EE024E0FE90343DE034FF906F
:10BE7C003C76F0A3CEF0903C76E0FCA3E0FD7B0199
:10BE8C00245BF974343CFAE41293D87A34795B125B
:10BE9C00884FEF6050903457E4F0A37404F0903C5A
:10BEAC0074E0FFA3E0903459CFF0A3EFF07F047E51
:10BEBC000012D1397BFF7A807957903C74E0FFA354
:10BECC00E0903C2CCFF0A3EFF0128E0AC3903C769E
:10BEDC00E0940250737BFF7A80795E128E0A903C5C
:10BEEC00737401F022E490342BF0A3F07BFF7A8082
:10BEFC00796F128E0A1282937BFF7A807919128ED7
:10BF0C000A02D749903459E0FEA3E0FFD3903C7568
:10BF1C00E09F903C74E09E4011903457E4F0A37481
:10BF2C0004F0FF7E0012D1398007E490342BF0A38B
:10BF3C00F0903C7474FFF5F00294A9E490342B80DB
:09BF4C0004E490342BF0A3F02270
:10E2E000E4903B03F0903B03E0FFC394145027906D
:10E2F0000004C083C0827D00EF75F00BA42426F9D2
:10E30000743A35F0FA7B01D007D006129D28903B75
:07E3100003E004F080CF22BE
:10DD6C00903B04E004F0E4903B03F0903B03E0FFB5
:10DD7C00C39414504BEF75F00BA42426F9743A3568
:10DD8C00F0FA7B019000021294EAFFAEF01294BFFD
:10DD9C00FDE5F04EFEED4F4E601E90000A129341D1
:10DDAC00FF903B04E0C39FC394B0E4940440097E0D
:10DDBC00007F047D00129D28903B03E004F080ABB3
:01DDCC002234
:06C5FD00903D201297960C
:10C60300E4903B03F0903B03E0FFC394145071EFBD
:10C6130075F00BA42426F9743A35F0FA7B01903DAA
:10C62300261297961294BF45F0604D903D261297BF
:10C633008D9000021294EA45F0603D1294BFFFAE64
:10C64300F0903D2012978D1294BF6F7003E5F06E4A
:10C653007026903D2612978D9000021294EAFFAE49
:10C66300F0903D2012978D9000021294EAB50708CE
:10C67300E5F0B5060302C740903B03E004F0808574
:10C68300E4903B03F0903B03E0FFC394145034EF7A
:10C6930075F00BA42426F9743A35F0FA7B01903D2A
:10C6A300261297961294BF45F07010903D2612976C
:10C6B3008D9000021294EA45F06008903B03E00479
:10C6C300F080C2903B03E064147059903A1FF090DD
:10C6D3003B02F0A3F0903B03E0FFC39414503FEF01
:10C6E30075F00BA42426F9743A35F0FA7B01903DDA
:10C6F3002612979690000A129341FF903B04E0C3E1
:10C703009FFF903A1FE0FEEFD39E400AEFF0903B6D
:10C7130003E0903B02F0903B03E004F080B7903BD2
:10C7230002E0A3F0903D2612978DA801AC02AD0361
:10C73300903D2012978D7E007F04129302903D2638
:10C7430012978DE92404F9E43AA801FCAD03903D66
:10C753002312978D7E007F06129302903B04E0FF25
:0DC76300903D2612978D90000AEF1293EA88
:01C7700022A6
:10D9080090342B74FF75F0F21294A9903428129772
:10D918008D90001A1294EAFF902FD3E0FCA3E0FD4B
:10D92800EC55F0FEED5FFF902FB4E05CFCA3E05DEA
:10D938006F7002EE6C705B90342812978D90001C0B
:10D948001294EAFF902FD5E0FCA3E0FDEC55F0FE21
:10D95800ED5FFF902FB6E05CFCA3E05DB50733EE0A
:10D96800B5042F90342812978DE9241AF9E43AFA6D
:10D97800C003C002C00190342812978DE92406F92B
:10D98800E43AFA903D23129796D001D002D00312C0
:03D99800C5FD22A8
:10BF5500C390342CE0942A90342BE094005005E4EF
:10BF6500F0A3F022E490342BF0A3F090342812973C
:10BF75008D9000141294EAFFAEF0E5F0600302C163
:10BF850017EF24FE700302C0C204600302C11790BC
:10BF950000261294EAFF902FB4E065F07003A3E049
:10BFA5006F600302C1179000281294EAFF902FB624
:10BFB500E065F07003A3E06F600302C117903428B9
:10BFC50012978D900014E475F00212958EE92416EF
:10BFD500F9E43AFAC003C002C00190342812978DE3
:10BFE500E92420F9E43AA801FCAD03D001D002D040
:10BFF500037E007F0612930290342812978DE92460
:10C0050016F9E43AA801FCAD037B017A3A79207E62
:10C01500007F0612930290342812978DE92406F9C1
:10C02500E43AA801FCAD037B017A3A79207E007FD2
:10C035000612930290342812978DE92420F9E43AE8
:10C04500FAC003C002C00190342812978DA801AC34
:10C0550002AD03D001D002D0037E007F0612930209
:10C0650090342812978D90001C1294EAFF900026B8
:10C07500E5F08FF012958E90001E1294EAFF900065
:10C0850028E5F08FF012958E902FB4E0FFA3E09095
:10C09500001CCF8FF012958E902FB6E0FFA3E09095
:10C0A500001ECF8FF012958E90000C740875F00667
:10C0B50012958E90342BE4F0A3742AF02290342844
:10C0C50012978D9000261294EAFF902FB4E0B5F0F8
:10C0D50041A3E0B5073C9000281294EAFF902FB6E3
:10C0E500E0B5F02EA3E0B50729E9241CF9E43AFAF6
:10C0F500C003C002C00190342812978DE92416F9B7
:10C10500E43AFA903D23129796D001D002D003125B
:03C11500C5FD2243
:107D6B0090342812978D90001E1294EAFF902FD317
:107D7B00E0FCA3E0FDEC55F0FEED5FFF902FB4E0CF
:107D8B005CFCA3E05DB50730EEB5042C90342812F3
:107D9B00978D9000201294EAFF902FD5E0FCA3E082
:107DAB00FDEC55F0FEED5FFF902FB6E05CFCA3E021
:107DBB005D6F7002EE6C601C902FCFE0FFA3E09024
:107DCB003B05CFF0A3EFF0902FD1E0FFA3E0903B6A
:107DDB0007CF802290342812978D90001E1294EAC0
:107DEB00FF903B05E5F0F0A3EFF09000201294EA32
:107DFB00FF903B07E5F0F0A3EFF0E4903B03F0902E
:107E0B003B03E0FFC394145047EF75F00BA42426FB
:107E1B00F9743A35F0FA7B01903DC712979612949C
:107E2B00BFFF903B05E0B5F01FA3E0B5071A903DEF
:107E3B00C712978D9000021294EAFF903B07E06502
:107E4B00F07003A3E06F6008903B03E004F080AF99
:107E5B0090342812978D90001E1294EAFFAEF0BE5C
:107E6B00FF14BFFF119000201294EAF47003E5F0A9
:107E7B00F47003027F84903B03E064146003027F81
:107E8B0084FE7F067DFF90342812978D129D287EED
:107E9B00007F067D0090342812978DE92420F9E4A9
:107EAB003AFA129D2890342812978DE92406F9E4AA
:107EBB003AA801FCAD037B017A3A79207E007F065C
:107ECB0012930290342812978DE92416F9E43AA8FC
:107EDB0001FCAD037B017A3A79207E007F06129379
:107EEB0002903B05E0FEA3E0FF90342812978D90A3
:107EFB000026EE8FF012958E903B07E0FFA3E090EB
:107F0B000028CF8FF012958E902FB4E0FFA3E09056
:107F1B00001CCF8FF012958E902FB6E0FFA3E09050
:107F2B00001ECF8FF012958E900014E475F00112A5
:107F3B00958E90000EE475F00112958E90001074E2
:107F4B000875F00012958E90001274061293EA9049
:107F5B00001374041293EA90000C740875F0061267
:107F6B00958EE92436F9E43AFA902FB81297969049
:107F7B00342BE4F0A3742AF02290342812978D90BE
:107F8B00001E1294EAFFAEF0BEFF1DBFFF1A900059
:107F9B00201294EAFFAEF0BEFF0EBFFF0B7E007FF8
:107FAB00067DFF129D28802C903DC712978DE924EA
:107FBB0004F9E43AFAC003C002C0019034281297C6
:107FCB008DA801AC02AD03D001D002D0037E007F9F
:107FDB000612930290342812978DE92406F9E43A9D
:107FEB00A801FCAD037B017A3A79207E007F061253
:107FFB00930290342812978D90000C740875F00042
:0D800B0012958E90342BE475F00E1294A99E
:018018002245
:10D13900903DE9EEF0A3EFF04E700790342BF0A389
:10D14900F022782D7C347D017B017A3479337E009D
:10D159007F0612930278337C347D017B017A3C7916
:10D16900557E007F06129302784B7C347D017B014A
:10D179007A3479477E007F04129302902FB4E0FF3E
:10D18900A3E0903447CFF0A3EFF0902FB6E0FFA3D0
:10D19900E0903449CFF0A3EFF0902FC2E475F0018D
:10D1A9001294A9902FC2E0FCA3E0FDEC90343FF06B
:10D1B900EDA3F0903DE9E0FCA3E0FD241CFEE43C76
:10D1C90090343DF0A3CEF0E4903445F0A3F09034D0
:10D1D9004FE0FFA3E0A3CFF0A3EFF090344FE4F0CA
:10D1E900A37445F0ED2408FEE43C903453F0A3CE3B
:10D1F900F0E4A3F0A3F0700874FF903455F0A3F0A5
:10D2090090343EE0240EFE90343DE0340090342BFF
:05D21900F0A3CEF0229D
:10E592007830A6A8908003E0A3E04404F043E102AF
:07E5A200D2A8D2AF438701AC
:01E5A900224F
:10E5E7007830E6F5A8908003E0A3E054FBF053E110
:01E5F700FD26
:01E5F8002200
:10E37D00903DEBEEF0A3EFF0903DEBE0908202F0DC
:10E38D00903DEBA3E0908201F0EC908204F0ED90D3
:0EE39D008203F0EA908206F0EB908205F022F7
:09E64B00908200E0FF540370F717
:01E6540022A3
:10D46800903D29EEF0A3EFF0A3ECF0A3EDF0A3EAD2
:04D47800F0A3EBF042
:10D47C00A3E05407903D31F064056004E0B406036A
:10D48C007F0022903D2DE0131313541F04903D3068
:10D49C00F0E4F9903D30E0FFE9C39F5075903D2DCD
:10D4AC00E0FAA3E0FB4A606AEF14903D29B5010D48
:10D4BC00E0FEA3E0FFA3E0FCA3E0FD800FE0FEA3F1
:10D4CC00E0FFA3E0FCA3E0FD7B007A0812E37D9073
:10D4DC003D2FE0908200F0903D31E0B4040312E562
:10D4EC009212E64B903D31E0B4040312E5E7903D17
:10D4FC002D74F875F0001294A9903D29740875F0FC
:10D50C00001294A9903D2B740875F0001294A9098F
:04D51C0080817F018A
:01D5200022E8
:10CB3800413CF800413CF900413CFA00423CF60017
:01CB480000EC
:10916600E4FF749E2FF582E4343BF583E0FEEF24A2
:1091760030FDE434838D82F583EEF00FEFB406E222
:0191860022C6
:10E42800E4FF74A42FF582E4343BF583E0FEEF2487
:10E4380036FDE434838D82F583EEF00FEFB404E209
:01E4480022B1
:10E48500908100E0FD54F7F0908130EFF0E0903C92
:0CE49500FFF0A3E4F0AF05908100EDF073
:01E4A1002258
:10E3D600908100749FF09081357408F0A3E4F0906A
:10E3E6008000E054204487FFF0908130E0903CFFAD
:0AE3F600F0A3E4F012916602E4289F
:10E31700FF3395E0EF5407FFE0FE33333354F84FF4
:10E327004480FDE975F004A42413FFE5F034818FE0
:05E3370082F583EDF00A
:10E33C00903CF8E0903CFAF0903CF804F0E0540388
:02E34C00F022BD
:10DF6D00908137E060037F002290000C129341FEF8
:10DF7D006408702890000D129341702090001712C4
:10DF8D009341FDB406037F0122EDB411037F0222FC
:10DF9D00900017129341B401137F0322EEB4860C47
:0FDFAD0090000D129341B4DD037F07227F002205
:0ED7CC00903D90129796903D93ECF0A3EDF0F7
:10D7DA00903CF8E075F004A42413FFE5F034818F3F
:10D7EA0082F583E030E7037F0022C3903D94E09402
:10D7FA0008903D93E06480948050037F0022903D1E
:10D80A009012978D12DF6D903D95EFF0903D90123A
:10D81A00978DE9FD903CF8E075F004A42410FFE52B
:10D82A00F034818F82F583EDF0AE02EEFD903CF884
:10D83A00E0F975F004A4FFAEF02411FBEE34818BFD
:10D84A0082F583EDF0903D93A3E0FDEF2412FFEE05
:10D85A0034818F82F583EDF0903D93E0903D9512EF
:04D86A00E3177F0140
:01D86E002297
:08D99B00903DCAECF0A3EDF091
:10D9A300E4A3F0903CF8E075F004A42413FFE5F041
:10D9B30034818F82F583E030E7037F0022C3903DFB
:10D9C300CBE09408903DCAE06480948050037F00CC
:10D9D30022E9FD903CF8E075F004A42410FFE5F083
:10D9E30034818F82F583EDF0EAFD903CF8E0F97520
:10D9F300F004A4FFAEF02411FBEE34818B82F58397
:10DA0300EDF0903DCAA3E0FDEF2412FFEE34818FC9
:10DA130082F583EDF0903DCAE0903DCC12E3177F91
:01DA23000101
:01DA240022DF
:10D5D700903D7C129796903CFFE0FEA3E0F5828E8B
:0CD5E70083E020E7077B007A0079002237
:10D5F300903CFFE0FFA3E0903D7FCFF0A3EFF090DE
:10D603003D7FE0FCA3E0FDF5828C83E0FF903D814C
:10D61300E4F0A3EFF0E4903D81F0A3E05407F0E0E1
:10D62300F8E4F0E8903D81F0EDF47003EC647F6082
:10D6330013903D80E02401FF903D7FE034008F8212
:10D64300F5838009908130E0758200F583E0FF90D7
:10D653003D81E0F0A3E04FF0903D81E0FEA3E0FFC9
:10D66300903D7C12978DEE8FF012956F903D00E008
:0ED673002402FF903CFFE03400FAA9077B0080
:01D681002286
:06B5F200903CDE1297966A
:10B5F800903CFFE0FEA3E0F5828E83E020E704E4C0
:10B60800FEFF22E4903CF6F0A3F0903CFFE0FFA39D
:10B61800E0903CE3CFF0A3EFF0903CE3E0FCA3E044
:10B62800FDF5828C83E0FF903CE1E4F0A3EFF0901D
:10B638003CE1E0FAA3E0FB7E0054787803CEC31324
:10B64800CE13D8F9903CE5F0EB5407FF903CE1E4C9
:10B65800F0A3EFF0E0F8E4F0E8903CE1F0EDF470EE
:10B6680003EC647F6013903CE4E02401FF903CE32A
:10B67800E034008F82F5838009908130E075820084
:10B68800F583E0FF903CE1E0F0A3E04FF0903CE36D
:10B69800E475F0021294A9903CE1E0FEA3E0FFA358
:10B6A800E0FCA3E0FD2FFFEC3EFED3EF94FFEE9409
:06B6B8007F500302B752AF
:10B6BE00E49DFF74809CFE903CE6F0A3EFF0E490D6
:10B6CE003CEAF0C3EE648094805007E4903CE6F0D0
:10B6DE00A3F0903CE6E0FAA3E0FBC3903CE2E09BD3
:10B6EE00FE903CE1E09A903CE8F0A3CEF0EB4A905D
:10B6FE003CE36022E0FEA3E0FF903CDE12978DACAF
:10B70E0002AD01903CE6E0FAA3E0FB903D2F740100
:10B71E00F012D4688006A3E0903CEAF0908130E00D
:10B72E00FE903CEAE07C002400FFEC3EFE903CDE06
:10B73E0012978D903CE6E0FCA3E029F9EA3CFCADC3
:02B74E0001A355
:10B750008015903CE3E0FEA3E0FF903CDE12978D65
:10B76000AC02AD01903CE1E0FAA3E0FB903D2F7408
:10B7700001F012D468903CE1E0FEA3E0FFA3EE8F5D
:10B78000F01294A9903CE3E0FCA3E0FDD394FFEC1D
:10B79000947F4024908130E0FEE49400FF74809E0A
:10B7A000FEC3ED9FFFEC9E903CE3F0A3EFF0903CD6
:10B7B000F9E004F0E05401F0903CE3E0FEA3E0FF88
:10B7C000903CFFEEF0A3EFF0903CF9E0600AEE440D
:10B7D00080903CE3F0A3EFF0903CE3E0FEA3E09028
:0EB7E0008131F0EEA3F0903CE1E0FEA3E0FF2B
:01B7EE002238
:10D2F100903CFFE0FCA3E0FDF5828C83E020E70495
:10D30100E4FEFF228D828C83E0FF903DEDE4F0A3EB
:10D31100EFF0E4903DEDF0A3E05407F0E0F8E4F025
:10D32100E8903DEDF0EDF47003EC647F600CED24CA
:10D3310001FFE43C8F82F5838009908130E07582A2
:10D3410000F583E0FF903DEDE0F0A3E04FF0903D6C
:10D35100EEE02402FF903DEDE03400FEEF2DFDEE06
:10D361003CFCD3ED94FFEC947F401E908130E0FEB5
:10D37100E49400FF74809EFEC3ED9FFDEC9EFC9043
:10D381003CF9E004F0E05401F0903CFFECF0A3ED37
:10D39100F0903CF9E06004EC4480FCED908131F0C8
:0BD3A100ECA3F0903DEDE0FEA3E0FFE8
:01D3AC00225E
:10DFBC00908134E0FE908133E0FDAC06903CFFE0B4
:10DFCC00B50409A3E0B50504E4FEFF22903CFFE094
:10DFDC00FAA3E0FBD39DEA9C4007EB9DFFEA9CFE75
:10DFEC0022908130E0FEC374FF9400FF747F9EFE8C
:0EDFFC00C3ED9BFDEC9AFCC3EF9DFFEE9CFE77
:01E00A0022F3
:10DAA600903DEFECF0A3EDF09000031293412D9022
:10DAB6002FCAF0900002129341FD903DEFE02D90A9
:10DAC6002FC9F0900001129341902FC8F0129328AD
:10DAD600902FC7F0903DEFE0FCA3E0FDECFF902F08
:10DAE600C9E0C39FE49400500F902FC8E004F0E013
:10DAF6007006902FC7E004F0AF05902FCAE0C39FD1
:10DB0600E494005018902FC9E004F0E0700F902FB5
:0EDB1600C8E004F0E07006902FC7E004F02293
:10E4F70012921C903CFAE075F004A42413FFE5F097
:0BE5070034818F82F583E020E7E622DC
:07922A00908001E04410F008
:01923100221A
:06DE2100903DCD12979622
:10DE2700AD07EE5407FF908311EDF0A3EFF0E4FF89
:10DE37009083137420F0E4FDFC908313E0FE54C03C
:10DE4700700E0DBD00010CC3ED9410EC942740E952
:10DE5700EE30E712908310E0FF903DCD12978DEFE3
:0DDE67001293D87F01220FEFB4C8C57F00D1
:01DE7400228B
:10E17100AC07EE5407FF908310EDF0A3ECF0A3EF92
:10E18100F0E4FF908313E4F0FDFC908313E0FE5470
:10E19100C0700E0DBD00010CC3ED9410EC9427402E
:0FE1A100E9EE30E7037F01220FEFB4C8D67F000D
:01E1B000224C
:10E5C00075985043878053890F438920758DF0D209
:04E5D0008ED299222C
:10E5F90030980CC298EFB599037F01227F00227FE2
:02E609000022ED
:0BE64000309805C298AF99227F00229D
:1091DC00EDC0E0ECC0E00E0F7C0E7D51DDFEDCFA44
:0B91EC00DFF6DEF4D0E0FCD0E0FD2256
:0EE61A0075CB3E75CAFCE4F5CDF5CCD2CA2214
:0CE628005389F0438901E4F58AF58C2247
:10E22F00903D5612972C908010EFF0903D5612971C
:10E23F002C7808129719908011EFF0903D56129795
:10E24F002C7810129719908012EFF0903D5612977C
:0CE25F002C7818129719908013EFF02211
:10E52D0012E61A903D5A12975000000000903D5689
:0AE53D001297500000000002E22FC8
:03E65B0002E628AC
:10E56000903D5A12972CEF2401FFE43EFEE43DFD5E
:09E57000E43CFC903D5A02974482
:10918C007D009000000E0F438E07D2DCC2D9E02D7B
:10919C00FDA3DFF8DEF6D2D9EDFFC2DC538EF82248
:1091AC009000000E0F758E07D2DCE064FF700DA3EB
:1091BC00DFF8DEF67F01C2DC758E00227F00C2DC98
:0491CC00758E00227A
:108092000A0D625B25645D000A466C617368426189
:1080A2006E6B436865636B28257829000A466C610C
:1080B200736842616E6B53756D6B2578282578293C
:1080C200000A0D466C6173685F42616E6B6E6F3DB4
:1080D2002564000A436865636B696E67204D6167BA
:1080E2006963436F6465000A436865636B696E6721
:1080F20020466C61736820436865636B73756D001D
:108102000A466C61736820436865636B73756D5BC7
:10811200253032785D2C2043616C20436865636BA7
:0E81220073756D5B253032785D0013F0F0133D
:10CB4900443CA400000000423CA10000413C960086
:10CB5900413CA300423C940000443C9D000000007D
:10CB6900413CA80A413C9A00413C9700423CA9003B
:01CB790000BB
:0D828000EE908006F0E0908000E04420F0D9
:01828D0022CE
:05828E007F041285745D
:0C8293007F04128574908000E054DFF03E
:01829F0022BC
:0682A000438E04D2DC2233
:1082A600EFF01282A090055574AAF09002AA7455B8
:1082B600F09005557480F074AAF09002AA7455F0F7
:0682C6009012347430F048
:0682CC00C2DC538EFB2210
:0382D200903DF1EB
:1082D5001282A6E4903DF2F07FF47E011291DC90CB
:0D82E5003DF2E004F0E0C3940440ED7F01A1
:0182F2002269
:1082F3001282A090055574AAF09002AA7455F090CA
:1083030005557480F074AAF09002AA7455F0EF1426
:10831300600F146011146013240370159000008023
:108323000D904000800890600080039080007430BE
:10833300F01282CCE4903DFFF07FF47E011291DCD9
:0E834300903DFFE004F0E0C3940440ED7F01A4
:018351002209
:03835200903DF368
:108355001282A6E4903DF4F07FF47E011291DC9048
:0D8365003DF4E004F0E0C3940440ED7F011E
:0183720022E8
:108373001282A090055574AAF09002AA7455F09049
:1083830005557480F074AAF09002AA7455F0EF14A6
:10839300600F1460111460132403701590000080A3
:1083A3000D9040008008906000800390800074303E
:1083B300F01282CCE4903E00F07FF47E011291DC57
:0E83C300903E00E004F0E0C3940440ED7F0122
:0183D1002289
:0583D200903DB1EFF049
:1083D700903DB47404F0903DB4E0FFC374049F7DF6
:1083E7000025E025E0FC903DB1E0C454F0FEED240B
:1083F70000F568EE3CF5671282A090555574AAF017
:10840700902AAA7455F09055557480F074AAF0908C
:108417002AAA7455F08568828567837430F01282C2
:10842700CC7F3C7E001291DC903DB4E014F0E0D3A9
:06843700940050A27F0139
:01843D00221C
:07843E001285747FFB7EFF35
:108445008E698F6A1282A0856A82856983E0FF1230
:0284550082CCD7
:018457002202
:0D845800903DAAEDF0903DA8EEF0A3EFF0EE
:108465008E6BF56C7838F6903DA8E008F6903DAA3D
:10847500E008F6903C9BE0FEA3E08EF01298BD84E8
:10848500EC1CBA84C41F1384EC7F4984EC7F5B84A5
:10849500ECBFC884ECBFC984B0BFD784ECC24984A3
:1084A500ECC25B84D8C2B6000085041282A0905548
:1084B5005574AAF0902AAA7455F0905555803A1231
:1084C50082A090055574AAF0900AAA7455F09005FB
:1084D5005580261282A090055574AAF09002AA74C0
:1084E50055F090055580121282A0900AAA74AAF040
:1084F5009005557455F0900AAA74A0F01282CC121A
:1085050082A0783AE6856C82856B83F01282CCE492
:10851500903DABF0A3F0903DABE0FEA3E0FFE4FCA3
:10852500FD7BC07A277909F8D31296F2401E903D5B
:10853500A8E0FEA3E0FF128445903DAAE06F600C21
:10854500903DABE475F0011294A980CA903DABE073
:10855500FEA3E0FFE4FCFD7BC07A277909F8C3128E
:0985650096F27003FF80027F0111
:01856E0022EA
:05856F00903C9AE0FFC2
:10857400EF1392B5EFC3131392B4EF1313543F13D5
:03858400929722A9
:0A8587007B007A28E4FDFCFF7E80F3
:10859100903DF5EEF0A3EFF0903D2F7404F012D46E
:0C85A10068903DF5E0FEA3E0FF02828040
:1085AD0012858712856FE07051903C97E0B40612EA
:1085BD007F021282F3E4903C9AF0903C977408F09D
:1085CD00801F903C97E0B408127F031282F3903C19
:1085DD009A7401F0E4903C97F08006903C97E0048B
:1085ED00F0903C9AE0C454F0FF903C97E02FFF9040
:1085FD003C94E4F0A3EFF002829312828E903C9AA9
:10860D00E004F0E075F010A4FF903C94E5F0F0A3C9
:03861D00EFF02259
:1086200012858712856FE0704F903C97E0B4061278
:108630007F02128373E4903C9AF0903C977408F0A8
:10864000801F903C97E0B408127F03128373903C24
:108650009A7401F0E4903C97F08006903C97E00417
:10866000F012828E903C9AE0C454F0FF903C97E068
:108670002FFF903C94E4801412828E903C9AE00488
:10868000F0E075F010A4FF903C94E5F0F0A3EFF05B
:0186900022C7
:1086910012921C902222E0FFE0FEEF5440FDEE54C6
:1086A10040FC6D601AEF30E5E7902222E0FFE0FE2A
:1086B100EF5440FDAF06EE54406D60037F00227F12
:0186C10001B7
:0186C2002295
:1086C3001282A0900AAA74AAF09005557455F090EE
:1086D3000AAA7480F074AAF09005557455F0EF144B
:1086E300600F146011146013240370159000008050
:1086F3000D904000800890600080039080007430EB
:10870300F0128691EF70051282CCFF221282CC7F89
:018713000164
:018714002242
:10871500903E02EFF01282A0900AAA74AAF090058A
:10872500557455F0900AAA7480F074AAF090055516
:108735007455F09012347430F0128691EF70051272
:0A87450082CCFF221282CC7F0122B9
:10874F0012858712856FE07050903C97E07003742C
:10875F0006F0903C97E0B406127F021286C3E490B5
:10876F003C9AF0903C977408F08017903C97E0B4D7
:10877F0008107F031286C3903C9A7401F0E4903C7A
:10878F0097F012828E903C9AE0C454F0FF903C9781
:10879F00E02FFF903C94E4802A7BFF7A80799290BF
:1087AF003C9AE0FF903C2CE4F0A3EFF0128E0A12FB
:1087BF00828E903C9AE004F0E075F010A4FF903C9C
:0887CF0094E5F0F0A3EFF022A5
:1087D700903C97E070167BFF7A807992903C9AE004
:1087E700FF903C2CE4F0A3EFF0128E0A903C97E048
:1087F700FC04FEC4540F903DF7F0EE540FA3F0ECC9
:10880700C394065006E0903C97F022903C9AE070A3
:1088170014FB7A2812858C12856F903C97E0FF1223
:1088270083D212828E903DF8E0FF903C97F0903D06
:10883700F7E0FE903C9AE02EF0E0C454F02FFF9052
:078847003C94E4F0A3EFF004
:01884E002207
:0E884F00903D83129796903D86ECF0A3EDF0DD
:10885D00128587E4903D88F0A3F0903D86E0FEA35D
:10886D00E0FFC3903D89E09F903D88E09E5073905E
:10887D003CA3E0FF702CC3903CA1E0946040231218
:10888D008574E0FEA3E0FF903D8312978D903D88A7
:10889D00E0FCA3E0F5828C83129341FD128458BF56
:1088AD000140903CA412972CEF2401FFE43EFEE41E
:1088BD003DFDE43CFC903CA4129744903CA1E47532
:1088CD00F0011294A9903CA1E07002A3E070069013
:1088DD003CA3E004F0903D88E475F0011294A902E8
:1088ED008867128293903D86E0FEA3E0FFA3E0B57A
:0D88FD000609A3E0B507047F0180027F009B
:01890A00224A
:05890B00903D0CEFF0AF
:10891000903D111297500000FFFF7BFF7A80799AFB
:10892000903D0CE0FF903C2CE4F0A3EFF0128E0A97
:10893000903D0CE0FB700A903D1112975000007FB3
:10894000FFEBB4070A903D111297500000FFFA9018
:108950003D0CE0FF128574903D1112972C12918C02
:10896000903D15EFF07BFF7A8079AE903D0CE0FDF5
:10897000903C2CE4F0A3EDF0A3E4F0A3EFF0128E12
:108980000A903D15E0FF903C96E02FF07F040285B1
:018990007472
:0189910022C3
:1089920004F0E4F52CF52D1282A0900AAA74AAF034
:1089A2009005557455F0900AAA7490F07F037E00EA
:1089B200E4FDFCC3ED9FEC9E5018E4FBFA12899192
:1089C2000BBB00010ABA0FF5BBA0F20DBD00010CF2
:0289D20080E142
:0189D4002280
:1089D500E4FF0F12843EEF601FF4601CEFFDC390AF
:1089E5003C93E09D903C92E09400400CEF5407705E
:0D89F50007903C98F0A3EFF07F040285741A
:108A0200E4F52CF52DF52E903E0304F01282A09091
:108A1200555574AAF0902AAA7455F09055551289AA
:108A2200AB900000E0F52CA3E0F52D90555574AA0B
:108A3200F0902AAA7455F090555574F0F01289B24C
:108A42001282CCE52CFEE52DFF903C9BEEF0A3EFCD
:108A5200F08EF01298BD8A7F1F138A90BF438A90CE
:108A6200BF448A90BF4A8A90BF4B8A78BFD78A7F19
:108A7200C2B600008AA1903CA8740A8005903CA866
:108A820074F4F0903C98E4F0A37408F08016903CE3
:108A9200A874C8F0903C98E4F0A37420F08005E438
:108AA200903E03F0903E03E0707B128992900000AA
:108AB200E0F52CA3E0F52EA3E0F52D900AAA74AA06
:108AC200F09005557455F0900AAA74F0F01289B22C
:108AD2001282CCE52CFEE52DFF903C9BEEF0A3EF3D
:108AE200F08EF01298BD8AFC7F498AFE7F5B8B1163
:108AF200C2498B00C25B00008B2280138000903C35
:108B0200A874C8F0903C98E4F0A37410F08016901A
:108B12003CA874C8F0903C98E4F0A37420F080055F
:108B2200E4903E03F0903E03E0703704F0E52CFE43
:108B3200E52EFF903C9BEEF0A3EFF08EF01298BD75
:108B42008B4EBFC88B4EBFC900008B5F903CA87490
:108B5200C8F0903C98E4F0A37420F08005E4903EC5
:108B620003F0903E03E0705C128992900200E0F5FF
:108B72002C900001E0F52EA3E0F52D900AAA74AA2C
:108B8200F09005557455F0900AAA74F0F01289B26B
:108B92001282CCE52CFEE52DFF903C9BEEF0A3EF7C
:108BA200F08EF01298BD8BB01CBA00008BC1903CC5
:108BB200A874C8F0903C98E4F0A37408F08005E42F
:108BC200903E03F0903E03E0B4012A903C98E0FF0F
:108BD200A3E0903C92CFF0A3EFF01289D57BFF7A0D
:108BE2008079C3903C98E0FFA3E0903C2CCFF0A3A7
:058BF200EFF0128E0AF5
:018BF700225B
:108BF80078987C3D7D017BFF7A81792C7E007F040B
:108C08001293027BFF7A8079D5128E0A128587E447
:108C1800903D96F07F07128574903D96E024FCFF06
:108C2800E434FFFE128445903D96E02498F582E4F2
:108C3800343DF583E0B507117F04128574903D96A5
:108C4800E004F0E0C3940440CB903D96E0640460F7
:108C5800061282937F00227BFF7A8079E9128E0ABE
:108C6800E4903C96F0903D96F0903D96E0FFC394DA
:108C780008500B12890B903D96E004F080EB7F07BB
:108C880012843E903D97EFF012828E7BFF7A8179B5
:108C980002903D97E0FF903C2CE4F0A3EFF0903C6D
:108CA80096E0FF903C2EE4F0A3EFF0128E0A903C81
:0F8CB80096E0FF903D97E06F60037F00227F0101
:018CC700228A
:108CC800903C93E0C4F8540FC868FF903C92E0C40D
:108CD80054F048FE903C94E06E7003A3E06F70037C
:108CE800028D9790800F7401F0908013E0903D56AC
:108CF800F0908012E0903D57F0908011E0903D5840
:108D0800F0908010E0903D59F0903C9D12972C1205
:108D180096E5EF2401FFE43EFEE43DFDE43CFC90D3
:108D28003D561297381295BBA804A905AA06AB07A9
:108D3800903CA8E0FFE4FCFDFEC312970840509069
:108D48003D5612972C903C9D129744903C9BE0FE18
:108D5800A3E08EF01298BD8D911CBA8D8E1F138DD5
:108D6800917F498D917F5B8D94BFC88D94BFC98DCC
:108D780094BFD78D91C2498D91C25B8D8BC2B600CD
:108D8800008D970286200285AD02874F1287D72271
:06CB7A0043342801342DB4
:06E65500903DD0029796F3
:01827E0022DD
:10E5D400903428129796E92436F9E43AFA902FB841
:03E5E40002979605
:10E579007B017A34792D903428129796E92436F95B
:09E58900E43AFA902FB8029796CB
:10DE7500E49033F9F09033F9E0FFC394075018EFBD
:10DE850025E024A3F582E4342FF583E4F0A3F09094
:10DE950033F9E004F080DEE49033F9F09033F9E0F3
:10DEA500FFC3940A501475F069EF902FF51297810E
:10DEB500E4F09033F9E004F080E2902FA17404F0CF
:04DEC500A3E4F022C0
:0EB9E400903D01129796903D04ECF0A3EDF01B
:10B9F200902FA1E475F0011294A9C3902FA1E094B5
:10BA02007D40067410F0A3E4F0E49033F9F0903333
:10BA1200F9E0FFC3940A503FEF75F069A424DCF902
:10BA2200742F35F0FA7B01903D061297969000191B
:10BA3200129341601A903D0612978D900004129461
:10BA4200EAFF902FA1E065F07003A3E06F60A19080
:10BA520033F9E004F080B77B007A007900903D066C
:10BA6200129796E49033F9F09033F9E0FFC3940A09
:10BA7200506CEF75F069A424DCF9742F35F0FA7B71
:10BA820001903D09129796900019129341FF700E92
:10BA9200903D0912978D903D061297968040EF6473
:10BAA200077033903D0612978DE94A601D9033F678
:10BAB20012978D90001A129341FF903D0912978DB3
:10BAC20090001A129341D39F400C903D0912978D1A
:10BAD200903D061297969033F9E004F0808A903DEB
:10BAE2000612978DE94A7004FBFAF922903D06127C
:10BAF200978D90001974021293EA902FD7E090006C
:10BB02000C1293EA902FD8E090000D1293EA902F36
:10BB1200D9E090000E1293EA902FDAE090000F1213
:10BB220093EA900012740575F0B412958E90001489
:10BB3200740575F0B412958E900010E475F0011240
:10BB4200958E90001BE41293EA90001A74011293EE
:10BB5200EA90001874031293EA900016E41293EA32
:10BB620090001774101293EA902FA1E0FFA3E090C7
:10BB72000004CF8FF012958E903D04E0FFA3E09079
:10BB82000006CF8FF012958E903D0112978D129480
:10BB9200BFFF903D0612978DE5F08FF012956F90E2
:10BBA2003D0112978D9000021294EAFF903D061219
:0CBBB200978D900002E5F08FF012958E48
:01BBBE002264
:10E0EB00E49033F9F09033F9E0FDC394075033ED2E
:10E0FB0025E024A3F582E4342FF583E0FCA3E0B5FF
:10E10B000718ECB506149033F9E025E024A3F5824B
:10E11B00E4342FF583E4F0A3F0229033F9E004F01C
:03E12B0080C3228C
:10E1B100E49033F9F09033F9E0FDC394075030ED6A
:10E1C10025E024A3F582E4342FF583E0FCA3E04CA1
:10E1D10070159033F9E025E024A3F582E4342FF59E
:10E1E10083EEF0A3EFF0229033F9E004F080C62231
:0FDEC900902FCDE04402F090342BE0FEA3E0FF59
:10DED8009033F612978DE92408F9E43AFAAD07ACC5
:10DEE8000612DAA6902FC7E0FF9033F612978D90AE
:10DEF8000008EF1293EA902FC8E09000091293EA05
:10DF0800902FC9E090000A1293EA902FCAE090007F
:04DF18000B0293EA7B
:106000009033F612978D903DB512979690342812E2
:10601000978DE92436F9E43AFA902FB8129796EF63
:106020006402600302619D902FDAE004F070169024
:106030002FD9E004F0700E902FD8E004F070069095
:106040002FD7E004F0E490342BF0A3F0903DB5128C
:10605000978D900019129341FF64076004EFB40517
:106060002190001A74011293A590001A12934164B2
:106070003C6003027627903DB512978D900019027F
:10608000733E903DB512978D9000191293417003A5
:106090000276279000101294EA45F07003026173B3
:1060A00090001A74FF12936E600302762790001B13
:1060B000129341FF64086013900019129341FE642B
:1060C000026004EEB40117EFB40A13900019E41251
:1060D00093EA902FCD7480F012762F02709B903D42
:1060E000B512978D90001B129341FFD39404400684
:1060F0007E047F0480007403A807088002C333D89D
:10610000FC90001A1293EA90001B74011293A59060
:106110003422E475F0011294A990001912934154AD
:106120000F1470030269CC24FE602F147003026FF9
:106130009124FE7003026F9124FE7003026F91247C
:1061400006600302762790342812978DE9240EF911
:10615000E43AFA900021E40269DEE490342BF0A3E3
:10616000F09033FAF0A3F0902FCD7404F012762F54
:1061700002718C903DB512978D9000191293415485
:106180000F6403600302762790342BF0A3F0903362
:10619000FAF0A3F0902FCD7408F002707D9033FEDA
:1061A000E475F0011294A990342812978D90000E96
:1061B000129341644560109033FCE475F001129431
:1061C000A99034020262F8E9240EF9E43AFA900048
:1061D00002129341FD90342BE06D7001E4600FEDED
:1061E000FEA3E0FDEDFF90342BEEF0A3EFF0903432
:1061F0002812978DE9240EF9E43AFA9000031293DD
:1062000041FF90342CE06F7001E4600D90342BE07E
:10621000FE90342BEEF0A3EFF090342812978DE926
:10622000240EF9E43AFA900006129341543F7008A4
:1062300090000712934160109033FCE475F0011256
:1062400094A99034080262F8902FB6E0FEA3E0FF14
:10625000902FB4E0FCA3E0FDEC4EFEED4F4E700F2E
:1062600090000912934164016003027627805B90DD
:1062700000101294EA6D7003EC65F060059033FC39
:1062800080769000121294EAFF902FB6E065F070CD
:1062900003A3E06F60059033FC805D903428129773
:1062A0008DE9240EF9E43AFA900009129341FF6453
:1062B0000670030263B2EF6401600F9033FCE47573
:1062C000F0011294A990340C802E903410E475F0F3
:1062D000011294A990342812978DE9240EF9E43A1A
:1062E000FA9000141293416408601190340EE47522
:1062F000F0011294A9903414E4026728902FB6E0BC
:10630000FEA3E0FF902FB4E04EFEA3E04F4E7020BE
:106310009000101294EAFF902FB4E5F0F0A3EFF094
:106320009000121294EAFF902FB6E5F0F0A3EFF080
:1063300090342812978DE9240EF9E43AFA9000146B
:10634000E41293EA900016E4F5F012958E90000A9C
:10635000E4F5F012958E9000101294EAFFAEF090E2
:106360002FC5EEF0A3EFF090000C1294EAFD900020
:1063700010E5F08DF012958E90000CEE8FF01295D6
:106380008E9000121294EAFFAEF0902FC5EEF0A3AB
:10639000EFF090000E1294EAFD900012E5F08DF0FF
:1063A00012958E90000EEE8FF012958E90341202A0
:1063B0007616903418E475F0011294A97B017A2FB7
:1063C00079DC903DB5129796903DB512978DC390AC
:1063D00033F6E99582EA958340030264A5903DB5C2
:1063E00012978D90001912934170030264989034B3
:1063F0002812978DE9240EF9E43AFA9000161294C7
:10640000EAFFAEF0903DB512978D9000041294EA29
:106410006F7003EE65F06003026498903428129761
:106420008DE9240EF9E43AFA9000141294EAFFAED2
:10643000F0903DB512978D9000061294EA6F7003AC
:10644000EE65F0705390342812978DE9240EF9E42C
:106450003AFA90000C1294EAFFAEF0903DB5129714
:106460008D1294BFB50731EEB5F02D9034281297F8
:106470008DE9240EF9E43AFA90000E1294EAFFAE88
:10648000F0903DB512978D9000021294EA6F700360
:10649000EE65F07003026A3B903DB6E475F0691258
:1064A00094A90263C890342812978DE9240EF9E468
:1064B0003AFA900021129341543F640270519000C7
:1064C000161294EAFF902FC5E5F0F0A3EFF0E490E8
:1064D00033F9F09033F9E0FFC394075028EF25E03B
:1064E00024A3F582E4342FF583E0FEA3E0FF902F90
:1064F000C5E06E7003A3E06F70030266859033F908
:10650000E004F080CE903426E475F0011294A99056
:10651000342812978DE9240EF9E43AFA90002112FA
:10652000934130E203027627903420E475F00112A3
:1065300094A990002174141293EA90342BE4F0A3F0
:106540007428F090002074501293EA90001B12936C
:1065500041FF9033F9F090001F12934190001B12FD
:1065600093EA90001FEF1293EA90001A129341FFF2
:106570009033F9F090001E12934190001A1293EAA2
:1065800090001EEF1293EA900019129341FF90338E
:10659000F9F090001D1293419000191293EA9000B7
:1065A0001DEF1293EA900018129341FF9033F9F017
:1065B00090001C1293419000181293EA90001CEF77
:1065C0001293EA90001F74011293A570279034284B
:1065D00012978DE9240EF9E43AFA90001E74011224
:1065E00093A5701090001D041293A5700790001CD5
:1065F000041293A590342812978DE9240EF9E43AF9
:10660000FA9000141294EAFFAEF0902FC5EEF0A3BA
:10661000EFF09000161294EAFD900014E5F08DF072
:1066200012958E900016EE8FF012958E900010123B
:1066300094EAFFAEF0902FC5EEF0A3EFF090000CBF
:106640001294EAFD900010E5F08DF012958E900006
:106650000CEE8FF012958E9000121294EAFFAEF0BD
:10666000902FC5EEF0A3EFF090000E1294EAFD908B
:106670000012E5F08DF012958E90000EEE8FF01264
:10668000958E0275787B007A007900903DB512975F
:1066900096E49033F9F09033F9E0FFC3940A507B0D
:1066A00075F069EF902FF5129781E0701A9033F929
:1066B000E075F069A424DCF9742F35F0FA7B0190C1
:1066C0003DB512979680549033F9E0FF75F06990CC
:1066D0002FF5129781E064077038903DB512978DC1
:1066E000E94A601690001A129341FE75F069EF9026
:1066F0002FF6129781E0D39E40189033F9E075F0A1
:1067000069A424DCF9742F35F0FA7B01903DB512B1
:1067100097969033F9E004F0026696903DB5129793
:106720008DE94A700C90342475F0011294A9027618
:1067300027903DB512978D9033F6129796903DB500
:1067400012978D90001A74031293EA900018740344
:106750001293EA900016E41293EA90001774041260
:1067600093EA90001BE41293EA90342812978DE983
:10677000240EF9E43AFA9000161294EAFF903DB51F
:1067800012978D900004E5F08FF012958E903428CA
:1067900012978DE9240EF9E43AFA9000141294EA63
:1067A000FF903DB512978D900006E5F08FF01295A1
:1067B0008E90342812978DE9240EF9E43AFA90006D
:1067C0000C1294EAFF903DB512978DE5F08FF01210
:1067D000956F90342812978DE9240EF9E43AFA90D7
:1067E000000E1294EAFF903DB512978D900002E5DD
:1067F000F08FF012958E90001974011293EA902F89
:10680000D7E090000C1293EA902FD8E090000D1280
:1068100093EA902FD9E090000E1293EA902FDAE0DD
:1068200090000F1293EA900010E475F00112958E1B
:1068300090342812978DE9240EF9E43AFA90001B5F
:10684000129341FF903DB512978D90000BEF12937C
:10685000EA90342812978DE9240EF9E43AFA900070
:106860001A129341FF903DB512978D90000AEF12D6
:1068700093EA90342812978DE9240EF9E43AFA90BD
:106880000019129341FF903DB512978D900009EFCA
:106890001293EA90342812978DE9240EF9E43AFA1B
:1068A000900018129341FF903DB512978D9000080B
:1068B000EF1293EA7F017E0012DED89034281297FF
:1068C0008DE9240EF9E43AFA90002012934154F035
:1068D000D3945050030269CCE49033F9F0903428FB
:1068E00012978DE9240EF9E43AFA900020129341B0
:1068F000C4540F24FB75F004A4FF9033F9E0FD7C31
:1069000000C39FEC95F040030269CCED2436FFEC08
:1069100033FE90342812978D8F828E83129341908C
:106920002FDBF070030269CC902FDBE0FFB401088D
:106930009033F9E004F080A5EF6402706C74372D99
:10694000F582E43CF5831293416404705CED2438D5
:10695000FFE43CFE90342812978D8F828E83129331
:1069600041FE74392DF582E43CF583129341FDED2F
:10697000FF902FC5EEF0A3EFF0D394B4EE94054052
:10698000067E057FB48008902FC5E0FEA3E0FF904F
:106990003DB512978D900012EE8FF012958E9000FB
:1069A00014EE8FF012958E80239033F9E02437FF98
:1069B000E433FE90342812978D8F828E8312934198
:1069C000FF60099033F9E02FF00268DD903428125F
:1069D000978DE9240EF9E43AFA900021741012938D
:1069E000EA90342812978DE9240EF9E43AFAE92462
:1069F00021F9E43AFA12932844021293D8903428E9
:106A000012978DE9240EF9E43AFA900028740212E4
:106A100093EA90002974041293EA90002A740512F4
:106A200093EA90002B74B41293EA90342BE4F0A311
:106A3000742CF09000207460027375903DB512972D
:106A40008D9033F6129796E4902FCDF09034281263
:106A5000978DE9240EF9E43AFA900021129341301F
:106A6000E215903DB512978D900019E41293EA90CB
:106A70002FCD742002722690342812978DE9240EAF
:106A8000F9E43AFA900020129341C4540F75F004CF
:106A9000A4FF9033F9F0C390342CE09FFF90342B87
:106AA000E09400CF24ECCF34FFF0A3EFF0D3903488
:106AB0002CE0940090342BE094005003026B4A9039
:106AC0000018129341FF903DB512978D9000081267
:106AD00093416F600302734590342812978DE92427
:106AE0000EF9E43AFA900019129341FF903DB51265
:106AF000978D9000091293416F60030273459034A3
:106B00002812978DE9240EF9E43AFA90001A1293AC
:106B100041FF903DB512978D90000A1293416F602E
:106B20000302734590342812978DE9240EF9E43A54
:106B3000FA90001B129341FF903DB512978D900083
:106B40000B1293416F600302734590342812978DA6
:106B5000E9240EF9E43AFA90002112934120E4036B
:106B6000026CA6903DB512978D9000101294EAFD2C
:106B7000ACF04C7003026CA6E9240CF9E43AFA126A
:106B8000DAA690342812978DE9240EF9E43AFA90A7
:106B9000001C129341FF902FC7E06F6003026CA6A8
:106BA00090001D129341FF902FC8E06F6003026CAC
:106BB000A690001E129341FF902FC9E06F60030260
:106BC0006CA690001F129341FF902FCAE06F6003E4
:106BD000026CA6902FC7E0FF903DB512978D9000F4
:106BE0000CEF1293EA902FC8E090000D1293EA90F8
:106BF0002FC9E090000E1293EA902FCAE090000F88
:0E6C00001293EA90001B1293416003026C8E07
:106C0E00903DB512978D90001A129341FF90001887
:106C1E00129341C39FFF903DB8F09000161293411E
:106C2E00131313541FFEC3EF9E903DB8F0E0FF9078
:106C3E0000161293A5C3EF648094805007EFF404FE
:106C4E00903DB8F0903DB8E0FF903DB512978D9015
:106C5E0000171293411313543FFEC3EF9E903DB89D
:106C6E00F09000171293A590001612934113131370
:106C7E00541FFF9000171293412F9000181293EAA1
:106C8E00902FCD7401F0903DB512978D9000181293
:106C9E00934190001A1293EA903DB512978D900091
:106CAE0019129341540F1298976CD3016D10026E06
:106CBE00F603722D0472C005732306734507720A1C
:106CCE000800007627902FCDE020E0030276279073
:106CDE00001974031293EA902FCD7440F0900010B7
:106CEE00E4F5F012958ED390342CE0940090342B72
:106CFE00E09400400312DEC9E49033FAF0A3F002F0
:106D0E00707D902FCDE020E00302650F90342812A5
:106D1E00978DE9240EF9E43AFA900021129341641A
:106D2E0012600302650F90002012934154F0D39429
:106D3E00505003026E38E49033F9F09034281297D5
:106D4E008DE9240EF9E43AFA900020129341C454CE
:106D5E000F24FB75F004A4FF9033F9E0FD7C00C313
:106D6E009FEC95F04003026E38ED2436FFEC33FEB7
:106D7E0090342812978D8F828E83129341902FDB41
:106D8E00F07003026E38902FDBE0FFB401089033F1
:106D9E00F9E004F080A5EF6402706C74372DF58273
:106DAE00E43CF5831293416404705CED2438FFE4F7
:106DBE003CFE90342812978D8F828E83129341FE63
:106DCE0074392DF582E43CF583129341FDEDFF906D
:106DDE002FC5EEF0A3EFF0D394B4EE940540067EEB
:106DEE00057FB48008902FC5E0FEA3E0FF903DB56F
:106DFE0012978D900012EE8FF012958E900014EE79
:106E0E008FF012958E80239033F9E02437FFE43310
:106E1E00FE90342812978D8F828E83129341FF60DD
:106E2E00099033F9E02FF0026D49903DB512978D20
:106E3E0090001974031293EA90342812978DE92466
:106E4E000EF9E43AFA900018129341FF903DB512F4
:106E5E00978D900008EF1293EA90342812978DE9DF
:106E6E00240EF9E43AFA900019129341FF903DB5C1
:106E7E0012978D900009EF1293EA90342812978D95
:106E8E00E9240EF9E43AFA90001A129341FF903D6C
:106E9E00B512978D90000AEF1293EA90342812974C
:106EAE008DE9240EF9E43AFA90001B129341FF90FB
:106EBE003DB512978D90000BEF1293EA7F017E0085
:106ECE0012DED8902FCD7442F0903DB512978D9072
:106EDE000010E4F5F012958EE490342BF0A3F090B0
:106EEE0033FAF0A3F002707D90342812978DE924C6
:106EFE000EF9E43AFA90002112934120E003026F5A
:106F0E009420E413903DB512978D9000101294EAE0
:106F1E0045F0600302762790342CE02401FF903474
:106F2E002BE03400FE12DED8902FCD7410F0D390EB
:106F3E00342CE0940090342BE094004007902FCD39
:106F4E00E04402F090342812978DE9240EF9E43AC9
:106F5E00FA90002112934130E407902FCDE04401C6
:106F6E00F012762F903DB512978D900010E475F0CB
:106F7E000112958E90001974081293EA90001BE48A
:106F8E001293EA0270DD90342812978DE9240EF9DF
:106F9E00E43AFA90002112934130E5269000261231
:106FAE009341FE900027129341FDEDFF902FB9EE15
:106FBE008FF01294A9C390342CE09FF090342BE004
:106FCE009EF0D390342CE0940090342BE09400404B
:106FDE0012903DB512978D90001912934120E40343
:106FEE0012DEC9903DB512978D9000191293413063
:106FFE00E4030271E990342812978DE9240EF9E426
:10700E003AFA900022129341FE9000231293417C93
:10701E00002400FFEC3EFE902FC5F0A3EFF0903D54
:10702E00B512978D9000141294EAFDACF0D3EF9D3B
:10703E00EE9C500A902FC5E07002A3E07008902FCE
:10704E00C5ECF0A3EDF0902FC5E0FEA3E0FF903D60
:10705E00B512978D900012EE8FF012958E902FCD67
:10706E00E054037003027627E49033FAF0A3F01293
:10707E00762F902FCDE030E529E49033FAF0A3F08F
:10708E00903DB512978D900019E41293EA90342832
:10709E0012978DE9240EF9E43AFA90002174140245
:1070AE007357902FCDE030E43BE49033FAF0A3F029
:1070BE00903DB512978D900010E475F00112958EEB
:1070CE0090001974041293EA90001BE41293EA9054
:1070DE00342812978DE9240EF9E43AFA90002174BF
:1070EE0011027357D39033FBE094009033FAE0947F
:1070FE00004068902FCDE030E00F903DB512978D97
:10710E00900010E4F5F012958E903DB512978D908B
:10711E0000101294EA45F0702A9000121294EAFFC1
:10712E00AEF0D39033FBE09F9033FAE09E4005EE35
:10713E00F0A3EFF09033FAE0FFA3E0900010CF8FB2
:10714E00F0802B903DB512978D9000101294EAFFAF
:10715E009033FAE5F0F0A3EFF08016902FCDE030EB
:10716E00E00F903DB512978D900010E4F5F012955A
:10717E008E903DB512978D90001BE41293EA902FDE
:10718E00B112978D902FB8129796D39033FBE0944F
:10719E00009033FAE094004038903DB512978D90F0
:1071AE0000101294EAFFAEF0D39400EE940040214A
:1071BE00EF2428FFE43E90342BF0A3EFF090342818
:1071CE0012978DE9240EF9E43AFA90002174188092
:1071DE0025902FCDE020E10302762790342BE4F0AA
:1071EE00A37428F090342812978DE9240EF9E43A0E
:1071FE00FA90002174101293EA027363902FCDE07F
:10720E0020E003027627903DB512978D900019E489
:10721E001293EA902FCD7410F012762F027627D3A8
:10722E0090342CE0940090342BE09400400312DE56
:10723E00D390342812978DE9240EF9E43AFA90008F
:10724E002112934130E035902FCDE0903DB530E0E6
:10725E001E12978D90001974071293EA90001AE48B
:10726E001293EA900010E4F5F012958E0272FD1260
:10727E00978D90001974061293EA8073902FCDE0CB
:10728E0030E01A903DB512978D9000197405129347
:10729E00EA900010E4F5F012958E027627D3903422
:1072AE002CE0940090342BE09400500302762702D9
:1072BE007345D390342CE0940090342BE09400402E
:1072CE000312DED390342812978DE9240EF9E43A96
:1072DE00FA90002112934130E027903DB512978D20
:1072EE0090001974071293EA90001AE41293EA7F41
:1072FE00017E0012DED8902FCD7410F012762F8002
:10730E0036D390342CE0940090342BE0940050034C
:10731E000276278022902FCDE020E0030276279080
:10732E003DB512978D90001974071293EA90001ACA
:10733E00E41293EA02762790342812978DE9240EF0
:10734E00F9E43AFA90002174101293EA90342BE487
:10735E00F0A37428F090342812978DE9240EF9E4E6
:10736E003AFA90002074501293EA903DB512978D20
:10737E00900008129341FF90342812978DE9240E45
:10738E00F9E43AFA90001CEF1293EA903DB5129789
:10739E008D900009129341FF90342812978DE924A5
:1073AE000EF9E43AFA90001DEF1293EA903DB512F1
:1073BE00978D90000A129341FF90342812978DE911
:1073CE00240EF9E43AFA90001EEF1293EA903DB5BE
:1073DE0012978D90000B129341FF90342812978DC7
:1073EE00E9240EF9E43AFA90001FEF1293EA903D69
:1073FE00B512978D90000C129341FF90342812977E
:10740E008DE9240EF9E43AFA900018EF1293EA90FF
:10741E003DB512978D90000D129341FF90342812B6
:10742E00978DE9240EF9E43AFA900019EF1293EAD7
:10743E00903DB512978D90000E129341FF90342817
:10744E0012978DE9240EF9E43AFA90001AEF12938E
:10745E00EA903DB512978D90000F129341FF903434
:10746E002812978DE9240EF9E43AFA90001BEF12D8
:10747E0093EA90000974061293EA903DB512978D27
:10748E009000041294EAFF90342812978DE9240E8E
:10749E00F9E43AFA900014E5F08FF012958E903DD3
:1074AE00B512978D9000061294EAFF903428129729
:1074BE008DE9240EF9E43AFA900016E5F08FF012F9
:1074CE00958E902FB4E0FFA3E090000CCF8FF012BA
:1074DE00958E902FB6E0FFA3E090000ECF8FF012A6
:1074EE00958E903DB512978D1294BFFF9034281251
:1074FE00978DE9240EF9E43AFA900010E5F08FF03A
:10750E0012958E903DB512978D9000021294EAFF5F
:10751E0090342812978DE9240EF9E43AFA9000126D
:10752E00E5F08FF012958E903DB512978D90001963
:10753E0012934190342830E41712978DE9240EF9F6
:10754E00E43AFA900023E41293EA900022E48017C2
:10755E0012978DE9240EF9E43AFA9000227405127E
:10756E0093EA90002374781293EA90342BE0FF9004
:10757E00342812978DE9240EF9E43AFA900002EFBE
:10758E001293EA90342BE0A3E09000031293EA905A
:10759E000024E4F5F012958E900024E4F5F0129597
:1075AE008E90342812978D90000E74451293EAE94E
:1075BE00240EF9E43AFA900001E41293EA900007DF
:1075CE00E41293EA900006E41293EA90000874FF26
:1075DE001293EA902FC2E475F0011294A9902FC273
:1075EE00E0FCA3E0FDEC9000041293EAED900005A0
:1075FE001293EA90000AE4F5F012958E90000AE4D8
:10760E00F5F012958E90341AE475F0011294A9904B
:10761E003400E475F0010294A9E490342BF0A3F049
:01762E002239
:10E12E004745542000504F535420002F0045726134
:10E13E007365466C6173682E68746D006669726DE6
:10E14E00776172655570646174652E68746D0057E1
:10E15E0061726E2E68746D002E00636769004D50FB
:03E16E004B54000F
:04CB8000413BE10054
:078D98007F507E0002E1B1F3
:10762F00E4903CB7F0A3F09033F612978DE9241C49
:10763F00F9E43AFA903BEA129796902FCDE030E6B4
:10764F003C7E007F4D7D009033F612978DE9241C10
:10765F00F9E43AFA129D28903BEA12978D900004B4
:10766F00E41293EA900005E4F5F012958E90002253
:10767F00E41293EA90003AE4F5F0027D67902FCD83
:10768F00E030E32A9033F612978D90001912934150
:10769F0030E403027D6A903BEA12978D90002274CA
:1076AF000112936EC3940A5003027D6A806E902F6D
:1076BF00CDE054306003027D6A902FCDE020E103CE
:1076CF00027A91903BEA12978D90000412934160D9
:1076DF0003027A199000221293EA7BFF7AE1792E46
:1076EF00903D69129796903D6CE4F0A37404F0906E
:1076FF002FB812978D12DC17EF603B7BFF7AE17981
:10770F0033903D69129796903D6CE4F0A37405F0A9
:10771F00902FB812978D12DC17EF6007902FCD7452
:10772F0020F022903CB77405F0903BEA12978D90B1
:10773F00000474068011903CB77404F0903BEA1279
:10774F00978D90000474071293EA902FB812978DBB
:10775F0090342BE0FEA3E0F5828E83E41293EA903F
:10776F003CB7E0FF903CB9E4F0A3EFF0902FB812D4
:10777F00978D903CB7E07E0029F9EE3AFA1291F717
:10778F00903CB9E0FCA3E0FDC39FEC9E5057902FB7
:10779F00B812978D8D828C83129341642060239051
:1077AF003CB9E0FEA3E0FFF5828E83129341640D96
:1077BF006010902FB812978D8F828E83129341B4E1
:1077CF000A17902FB812978D903CB9E0FEA3E0F501
:1077DF00828E83E41293EA800C903CB9E475F00139
:1077EF001294A980877B007A007900C003C002C081
:1077FF0001903BEA12978D90002612983E903BEA3B
:10780F0012978D9000041293416407600302789FD2
:10781F00902FB812978D903CB7E07E0029F9EE3A81
:10782F00FAC003C002C001903BEA12978D9000236B
:10783F0012983E903BEA12978D90002312980E7D7E
:10784F003F12E4DBC003C002C001903BEA12978DE8
:10785F0090002612983E903BEA12978D90002612C8
:10786F00980EEA494B6029903BEA12978D900026BB
:10787F0012980EE41293D8903BEA12978D9000263F
:10788F00A3E475F00112952212C8B1903CB8EFF045
:10789F00903BEA12978D900004129341B4062C90FE
:1078AF002FB812978D903CBAE02401FF903CB9E0BD
:1078BF003400FEE92FF9EA3EFAC003C002C001907E
:1078CF003BEA12978D90002312983E902FB8129793
:1078DF008D903CB7E07E0029F9EE3AFA903CAE125B
:1078EF0097967B007A007900903CAB129796903C6C
:1078FF00AE12978D12C771903CAB129796903CAB1E
:10790F0012978DE94A4B600D903BEA12978D9000CC
:10791F0003E41293EA903CAB12978DEA494B7064E3
:10792F00903BE1E0704F7BFF7AE17939903D69122E
:10793F009796903D6CE4F0A304F0903CAE12978DB7
:10794F0012DC17EF703E903C93E0C4F8540FC868F8
:10795F00FF903C92E0C454F048FEC3903C95E09FEA
:10796F00903C94E09E7BFF50067AE1793B800C7A45
:10797F00E1794A80067BFF7AE1795D12C771903C0D
:10798F00AB129796903CAB12978DEA494B7003025E
:10799F007A917BFF7AE17966903CD1129796903C71
:1079AF00AE12978D12D046903CB4129796903CAB86
:1079BF0012978D12CD3B7BFF7AE17968903D69126A
:1079CF009796903D6CE4F0A37403F0903CB412973B
:1079DF008D12DC17EF6003027A91903CB8E0FF7BC9
:1079EF00017A3B79EDC003C002C0019033F61297C4
:1079FF008DE9241CF9E43AFA90004512980E898219
:107A0F008A83D001D002D0038075902FB812978D42
:107A1F0090342BE0FEA3E0F5828E83E41293EAE428
:107A2F00903CB8F07BFF7AE1796C903BED12979622
:107A3F00902FB812978DC003C002C001903BEA127D
:107A4F00978D90002312983E902FB812978D903BF0
:107A5F00F01297967B017A3B79EDC003C002C0010B
:107A6F009033F612978DE9241CF9E43AFA90004509
:107A7F0012980E89828A83D001D002D003E4FF12BC
:107A8F0098EE902FCDE020E003027C3A903BEA1273
:107A9F00978D900022E41293EA900021E41293EA6A
:107AAF009033F612978DE9241CF9E43AFA90004BC3
:097ABF00129341F46003027BB252
:107AC800903BEA12978D9000361294EAFFAEF09040
:107AD8003CBBEEF0A3EFF09000051294EAC39FE5DB
:107AE800F09E5003027BA1903BEA12978D90000A0A
:107AF80074011293EA9000041293416405903BEAE2
:107B0800706312978DE92405F9E43AFAC003C002BC
:107B1800C0011294BFFF903BEA12978D90002F127C
:107B28009341FDC3903CBCE09DFD903CBBE09400BC
:107B3800FCC3EF9DFFE5F09CD001D002D0038FF08D
:107B480012956F903BEA12978D90002F129341FF88
:107B5800C3903CBCE09FFF903CBBE09400900007C2
:107B6800A38FF0802F12978DE92405F9E43AFA12D1
:107B780094BFFF903CBBE0FCA3E0FDC3EF9DFFE595
:107B8800F09C8FF012956F903BEA12978D9000074A
:107B9800A3EC8DF01295228054903BEA12978D90B9
:087BA8000005E4F5F012958ED2
:107BB0008043903BEA12978D90000A74011293EA79
:107BC00090001B1294EAFF900005E5F08FF01295EB
:107BD0008E9000121293419000131293EA900010BD
:107BE0001293419000111293EA90001D129341905C
:107BF000001E1293EA903BEA12978D9000151294A2
:107C0000EAFF90000EE5F08FF012958E90000412BE
:107C10009341B4050E903BEA12978D9000047401D5
:107C20001293EA903BEA12978D9000051294EA4570
:107C3000F07007902FCD7410F022E490342BF0A355
:107C4000F0902FCDE030E303027D6A903BEA12977B
:107C50008D900022E41293EA902FCDE020E20302FF
:107C60007D1890002174011293A590002112934178
:107C7000C3940A4009902FCD7420F0027D18903BE8
:107C8000EA12978D9000131293419000121293EA1A
:107C9000900012129341600F903BEA12978D900072
:107CA00019129341FF80027F00903BEA12978D905A
:107CB0000019EF1293EA90001112934190001012F4
:107CC00093EA90001E12934190001D1293EA1297BE
:107CD0009F90000312980EC003C002C001903BEABF
:107CE00012978D90000712983E903BEA12978D9064
:107CF000000E1294EAFF900007A3E5F08FF01295B2
:107D000022903BEA12978D90000E1294EAFF9000A9
:107D100015E5F08FF012958E903BEA12978D90004A
:107D2000041293416408604212979FEA494B603AFB
:107D3000903BEA12978D90000A129341700312CC87
:107D40002712813090342BE0FFA3E09033FACFF07C
:107D5000A3EFF090342BE0FEA3E0FF903BEA1297F4
:0A7D60008D900036EE8FF012958E24
:017D6A0022F6
:10E05A002600485454502F312E3020000D0A004318
:10E06A006F6E6E656374696F6E3A20636C6F736569
:10E07A000D0A00436F6E74656E742D547970653A9B
:10E08A002000436F6E74656E742D4C656E677468FC
:0EE09A003A2025750D0A00323030204F4B0021
:10C8B100E4903DF9F0A3F0903BEA12978D900026A9
:10C8C10012980E129328700302C9DF903BEA129767
:10C8D1008D90002612980E903DF9E0FEA3E0903B6A
:10C8E100ED75F006129781EE75F006A42583F583A8
:10C8F100129796903BEA12978D90002612980E7D22
:10C901003D12E4DBC003C002C001903BEA12978DE7
:10C9110090002612983E903BEA12978D90002612C5
:10C92100980EEA494B700302C9DF903BEA12978DDA
:10C9310090002612980EE41293D8903BEA12978D3C
:10C94100900026A3E475F001129522903BEA12971C
:10C951008D90002612980E903DF9E0FEA3E0903BE9
:10C96100F075F006129781EE75F006A42583F58324
:10C97100129796903BEA12978D90002612980EC05E
:10C9810003C002C0017BFF7AE0795A903D501297B3
:10C9910096D001D002D00312DA25903BEA12978D8E
:10C9A100900026A3EE8FF0129522903BEA12978D0C
:10C9B10090002612980E129328B42615E41293D8EB
:10C9C100903BEA12978D900026A3E475F001129531
:10C9D10022903DF9E475F0011294A902C8B8903D86
:04C9E100F9A3E0FFD7
:01C9E500222F
:06D04600903CCE1297960B
:10D04C001291F7903CCE12978DE92FF9EA3EFA90A7
:10D05C003CD7129796903CD112978D1291F7903C39
:10D06C00DAEEF0A3EFF0903CD712978DC003C0021C
:10D07C00C001903CCE12978DC3D082D083D0E0E912
:10D08C009582EA9583400302D132903CD112978D60
:10D09C00129328FD903CCE12978D12E4DB903CD479
:10D0AC00129796EA494B6066903CDCE4F0A304F0DE
:10D0BC00FF7E00D3903CDBE09F903CDAE09E402F5B
:10D0CC00903CD112978D8F828E83129341FD903CB0
:10D0DC00D412978D8F828E83129341B5050A903CA2
:10D0EC00DCE475F0011294A90FBF00010E80C4900E
:10D0FC003CDAE0FEA3E0FFA3E0B50614A3E0B5071D
:10D10C000F903CD412978DE92FF9EA3EFA22801643
:10D11C00903CD412978DE92401F9E43AFA903CCE74
:0CD12C0012979602D0727B007A00790006
:01D1380022D4
:0ADF1C007AE079667D027BFF7C004D
:10DF2600903DFBECF0A3EDF0D39400EC940040366A
:10DF3600C003C002C001902FB812978D90342BE019
:10DF4600FEA3E029F9EA3EA801FCAD03D001D00208
:10DF5600D003129B61903DFBE0FEA3E0FF90342BC3
:07DF6600EE8FF01294A922D6
:10CC2700E490342BF0A3F07BFF7AE0795C7D09FC7C
:10CC370012DF26903BEA12978D90000B12980E1286
:10CC470091F7AD07AC06903BEA12978D90000B1257
:10CC5700980E12DF2612DF1C7AE079697D1312DF46
:10CC670022903BEA12978D90003012980EEA494BBA
:10CC770060327BFF7AE0797D7D0E7C0012DF2690A3
:10CC87003BEA12978D90003012980E1291F7AD077C
:10CC9700AC06903BEA12978D90003012980E12DF87
:10CCA7002612DF1C9033F612978DE9241CF9E43A1B
:10CCB700FA90004812980EEA494B7061902FB8120B
:10CCC700978D90342BE0FEA3E029F9EA3EFAC003E2
:10CCD700C002C0017BFF7AE0798C903C2C129796BA
:10CCE700903BEA12978D9000051294EAFF903C2F33
:10CCF700E5F0F0A3EFF0D001D002D003128E04903C
:10CD07002FB812978D90342BE0FEA3E029F9EA3E65
:10CD1700FA1291F790342BEE8FF01294A912DF1CC0
:10CD270090342BE0A3E0FF903BEA12978D90002F01
:04CD3700EF0293EA8A
:10CD3B00903DD3129796903BEA12978D90000AE4A0
:10CD4B001293EA900021E41293EA903DD312978D4F
:10CD5B009000061294EAFF903BEA12978D90000523
:10CD6B00E5F08FF012958E903DD312978DC003C0D6
:10CD7B0002C001903BEA12978D1297BF903DD312E0
:10CD8B00978D90000312980EC003C002C001903B18
:10CD9B00EA12978D90000712983E903BEA12978DFE
:10CDAB0090000474051293EA900012E41293EA9037
:10CDBB000013E41293EA900015E4F5F012958E90AF
:10CDCB000017E4F5F012958E90000EE4F5F0129535
:10CDDB008E900019E41293EA900010E41293EA90FB
:10CDEB000011E41293EA90001AE41293EA90001DEA
:10CDFB00E41293EA90001EE41293EA90001FE412EF
:10CE0B0093EA90001BE4F5F012958E7B007A007983
:10CE1B0000C003C002C001903BEA12978D90003016
:10CE2B0012983E7BFF7AE079A1C003C002C001904B
:0DCE3B003BEA12978D90000B12983EC32227
:10813000903BEA12978D12979FEA494B7003028297
:108140007C903BEA12978D90000712980E903CC9E4
:10815000129796902FB812978D90342BE0FEA3E0E3
:1081600029F9EA3EFA903CC61297969033F6129798
:108170008DE9241CF9E43AFA90004B129341B4FFC4
:108180000512D21ED322903BEA12978D9000121254
:108190009341FF9033F612978DE9241CF9E43AFAE3
:1081A00090004C12934175F009903CC312978112D4
:1081B000978D89828A831298EE1294BF45F070449D
:1081C000903BEA12978D900012129341FF9033F684
:1081D00012978DE9241CF9E43AFA90004C1293416D
:1081E00075F009903CC312978112978D89828A831A
:1081F0001298EEE92402F9E43AFA12932870051273
:10820000C9E6D322903BEA12978D90001212934157
:10821000FF9033F612978DE9241CF9E43AFA9000A6
:108220004C12934175F009903CC312978112978DBF
:1082300089828A831298EE1294BFFF90342CE02F2B
:10824000FF90342BE035F0FE903BEA12978D9000C2
:10825000151294EAFDC3EF9DFFEE95F0FE9033F604
:1082600012978D9000121294EAFDD3EF9DEE95F0D7
:0E827000400512D682D32212A8E4D322C322E4
:028085003000C9
:08CF4F00903D5EEEF0A3EFF04F
:10CF5700E4FBFAA37427F0A37410F0E4A3F0A3F0A2
:10CF6700A3F0A3F0D3903D61E09400903D60E064AE
:10CF7700809480402DE0FCA3E0FD903D5EE0FEA3A1
:10CF8700E0FF12941EEF4E7019903D60E0FEA3E0A3
:10CF9700FF7C007D0A129473903D60EEF0A3EFF0E2
:10CFA70080C2E4FAFBD3903D61E09400903D60E0DD
:10CFB700648094804061E0FCA3E0FD903D5EE0FE6C
:10CFC700A3E0FF12941E903D64EEF0A3EFF0903DB6
:10CFD70062A3E075F00AA4FDC3EF9D2430FF749CA3
:10CFE7002BF582743D3AF583EFF0903D64E0FFA3A3
:10CFF700E0903D62CFF0A3EFF0903D60E0FEA3E04C
:10D00700FF7C007D0A129473903D60EEF0A3EFF071
:10D017000BBB00010A808EEB4A600E749C2BF582D5
:10D02700743D3AF583E4F0800F789C7C3D7D017B6D
:0ED03700FF7A807985129B617B017A3D799C9E
:01D0450022C8
:06DB2400903D32129796BD
:10DB2A00E4903D35F0A3F01291F7903D39EEF0A361
:10DB3A00EFF0E4903D37F0A3F0903D39E0FEA3E02A
:10DB4A00FF903D37E0FCA3E0FDC39FEE6480F8EC54
:10DB5A006480985037903D3212978D8D828C831253
:10DB6A00934124D0FB7A00903D35E0FEA3E0FF7C90
:10DB7A00007D0A12940CEF2BFFEA3E903D35F0A38C
:10DB8A00EFF0A3E475F0011294A980AD903D35E061
:04DB9A00FEA3E0FF07
:01DB9E002264
:10D21E00903BEA12978D9000051294EAFF90342C01
:10D22E00E02FFF90342BE035F0FE9033F612978D01
:10D23E009000121294EAFDD3EF9DEE95F0403990D6
:10D24E0033F612978D9000121294EAFBAAF09034E6
:10D25E002BE0FEA3E0FFC3EB9FFFEA9E903CCCF0D9
:10D26E00A3EFF090342BE0FEA3E0FFC3EB9FFFEAA9
:10D27E009E90342B8FF0801D903BEA12978D90007C
:10D28E00051294EAFFAEF0903CCCEEF0A3EFF090D6
:10D29E00342BEE8FF01294A97B017A3C79C6C00331
:10D2AE00C002C001903BEA12978D90000312934189
:10D2BE0075F009903CC012978112978D89828A83EE
:10D2CE00D001D002D0031298EE903CCCE0FEA3E049
:10D2DE00FF903BEA12978D900015EE8FF01295227B
:03D2EE007F01229B
:10C9E600903BEA12978D12979F9000061294EAFFE9
:10C9F600AEF0903BEA12978D9000151294EAFDC3B3
:10CA0600EF9DFFEE95F0FE90342CE02FFF90342B37
:10CA1600E03EFE9033F612978D9000121294EAFDD6
:10CA2600D3EF9DEE95F040509033F612978D90001F
:10CA3600121294EAFBAAF090342BE0FEA3E0FFC3A7
:10CA4600EB9FFFEA9E903CCCF0A3EFF090342BE0F6
:10CA5600FEA3E0FFC3EB9FFFEA9E90342B8FF012FC
:10CA660094A990342BE0FEA3E0FF903BEA12978D49
:10CA760090001BEE8FF0803D903BEA12978D129747
:10CA86009F9000061294EAFFAEF0903BEA12978D53
:10CA96009000151294EAFDC3EF9DFFEE95F0FE900F
:10CAA6003CCCF0A3EFF090342BEE8FF01294A990CB
:10CAB600001BE4F5F012958E7B017A3C79C6C00323
:10CAC600C002C001903BEA12978D90000312934179
:10CAD60075F009903CC012978112978D89828A83DE
:10CAE600D001D002D0031298EE903CCCE0FEA3E039
:10CAF600FF903BEA12978D900015EE8FF01295226B
:0DCB0600900007A3EE8FF01295227F012210
:10D682009033F612978D9000121294EAFBAAF09052
:10D69200342BE0FEA3E0FFC3EB9FFFEA9E903CCC5D
:10D6A200F0A3EFF090342BE0FEA3E0FFC3EB9FFF6B
:10D6B200EA9E90342B8FF01294A97B017A3C79C6B2
:10D6C200C003C002C001903BEA12978D9000031282
:10D6D200934175F009903CC012978112978D89820F
:10D6E2008A83D001D002D0031298EE903CCCE0FEA7
:10D6F200A3E0FF903BEA12978D900015EE8FF01297
:10D702009522900007A3EE8FF012952290342BE021
:10D71200FEA3E0FF903BEA12978D90001BEE8FF084
:06D7220012958E7F01222A
:10A8E400E4903D1AF0903BEA12978D900012129377
:10A8F40041FF9033F612978DE9241CF9E43AFA905B
