:068087007530A602D726A9
:02808D00C29798
:03808F0002D720F5
:10D71E0080FE787FE4F6D8FD9000007F007E80E4E6
:10D72E00F0A3DFFCDEFA75816E12D77D80E2020077
:04D73E000002FFFDE9
:03FFFD0002808DF2
:10E45C00903D8A7401F0A3F0A3F0903B8B12978D42
:0DE46C00E92408F9E43AFA903D8D029796F4
:10E09D005080178013F0C0A80201FFFFFF00C0A839
:10E0AD0002FEA85FC0010061646D696E0000000092
:10E0BD000000000000000073797374656D000000AE
:10E0CD00000000000000004E657420556172740060
:03E0DD0000000040
:04CB1000413DE601BC
:0D920C00903DE6E0B40103D2D922C2D92280
:03921900C2D92295
:07921C00D2D8D2DAC2DA2237
:07922300438EC075EF072226
:10E3F4000A0D5374617274204655555F76312E317F
:10E404005F30383038313420000A0D20456E6420E6
:08E414006F66204655552000FB
:10D86400903D747401F07E007F067DFFFB7A3D7964
:10D874006E129D28903B8B12978DA801AC02AD03CC
:10D884007B017A3D796E7E007F06129D04EF700461
:10D89400903D74F07E007F067D007B017A3D796EB9
:10D8A400129D28903B8B12978DA801AC02AD037B8F
:10D8B400017A3D796E7E007F06129D04EF7004901C
:10D8C4003D74F0903B8B12978D12932830E005E461
:10D8D400903D74F0903D74E07019903B8B12978DDD
:10D8E400A801AC02AD037BFF7AE0799D7E007F0640
:08D8F400129302903D74E0FF65
:01D8FC002209
:0C91D00012E52112C46A12E3CA02B36760
:0EE5FF009080057401F0E4FF000FEFB40AFAFB
:01E60D0022EA
:10912D00D2DB12E5FFC2D912E5B47BFF7AE379F405
:10913D00128E0A7830E6903DFDF07B007A28E4FD32
:10914D00FCFF7E80128591128A041282931291D0B7
:09915D007BFF7AE4790D028E0A11
:10CE43000A0D4D41432041646472657373202020B1
:10CE5300202020202020202020203A2000253032AE
:10CE6300782E0025303278000A0D49502020416485
:10CE7300647265737320202020202020202020202E
:10CE830020203A200025642E002564000A0D3D3D34
:10CE93003D3D3D3D3D3D3D3D3D3D3D3D3D3D3D3DBF
:10CEA3003D3D3D3D3D3D3D3D3D3D3D3D3D3D3D3DAF
:10CEB3003D3D3D3D3D3D3D3D3D3D3D3D3D3D3D3D9F
:10CEC300000A0D544654502053746172742E2E2E52
:10CED3002E2E2E0A0D000A576569726420000A205F
:10CEE3004669726D7761726520557064617465205F
:10CEF300627920576562206661696C65642C2052F3
:10CF0300657374617274696E672070726F677261A2
:10CF13006D2C20476C6F62616C5F73757370656E07
:10CF2300645F636F756E745B25645D7E7E000A0DBE
:10CF3300544654502054696D656F757421205265B1
:07CF43007374617274210098
:08CB1400413C6F00413C72003E
:10E39F00D390342CE0940090342BE09400401B1267
:10E3AF007D677B017A34792D90342BE0FCA3E0FD5F
:0BE3BF0012D7C2E490342BF0A3F02230
:10B7F2007BFF7ACE7943128E0AE4903DFEF0903DB3
:10B80200FEE0FFC39405505BE0FE2430FDE4348388
:10B812008D82F583E0FD74552EF582E4343CF58388
:10B82200EDF0903DFEE0FE2455F582E4343CF583D4
:10B83200E0FD74202EF582E4343AF583EDF07BFFCF
:10B842007ACE796074552FF582E4343CF583E0FFBB
:10B85200903C2CE4F0A3EFF0128E0A903DFEE0043F
:10B86200F0809B903DFEE0FF2430FDE434838D8226
:10B87200F583E0FE74552FF582E4343CF583EEF057
:10B88200903DFEE0FF2455F582E4343CF583E0FE72
:10B8920074202FF582E4343AF583EEF07BFF7ACE02
:10B8A2007966903DFEE02455F582E4343CF583E070
:10B8B200FF903C2CE4F0A3EFF0128E0A7BFF7ACECD
:10B8C200796B128E0AE4903DFEF0903DFEE0FFC3DC
:10B8D2009403503FE0FE2436FDE434838D82F583E9
:10B8E200E0FD745B2EF582E4343CF583EDF07BFFE2
:10B8F2007ACE7988745B2FF582E4343CF583E0FFDD
:10B90200903C2CE4F0A3EFF0128E0A903DFEE0048E
:10B91200F080B7903DFEE0FF2436FDE434838D8253
:10B92200F583E0FE745B2FF582E4343CF583EEF0A0
:10B932007BFF7ACE798C903DFEE0245BF582E43485
:10B942003CF583E0FF903C2CE4F0A3EFF0128E0A6A
:10B952007BFF7ACE798F128E0A903C5BE0FEA3E0E9
:10B96200FDEDFF902FB4EEF0A3EFF0903C5DE0FE12
:10B97200A3E0FDEDFF902FB6EEF0A3EFF0903C5F59
:10B98200E0FEA3E0FDEDFF902FD3EEF0A3EFF090E9
:10B992003C61E0FEA3E0FDEDFF902FD5EEF0A3EFBA
:10B9A200F0903C63E0FEA3E0FDEDFF902FCFEEF0C0
:10B9B200A3EFF0903C65E0FEA3E0FDEDFF902FD1F8
:10B9C200EEF0A3EFF0E4902FC2F0A3F0903C73F0FE
:10B9D200903C71F0903C74F0A3F0903C6712975049
:04B9E2000000000061
:01B9E600223E
:10B3670012B7F212E2D512DE6A12E6497BFF7ACEF5
:10B3770079C4128E0A903C6FE0C39414400312D72D
:10B387003F128CCA7B017A34792D12B5F190342B98
:10B39700EEF0A3EFF090342BE0FFA3E0903DC2CF97
:10B3A700F0A3EFF0D390342CE0942290342BE09468
:10B3B70000500302B49812D8FD903DC2E0FFA3E00D
:10B3C70090342BCFF0A3EFF0903439E06408700489
:10B3D700A3E06406705012E343D390342CE094004A
:10B3E70090342BE0940040028024903DC2E0FFA3FC
:10B3F700E090342BCFF0A3EFF012BF58D390342C4A
:10B40700E0940090342BE09400500302B37C7B015E
:10B417007A34792DE0FCA3E0FD12D7C2E490342BF7
:10B42700F0A3F002B37C903439E064087002A3E023
:10B43700705F903444E06411704F12BD8FD3903425
:10B447002CE0940090342BE09400500302B37C7BF3
:10B45700017A34792DE0FCA3E0FD12D7C2EF700327
:10B4670002B37CE490342BF0A3F0903C73E07003BC
:10B4770002B37C7FE87E031291DCE4903C73F0908A
:10B487003C71F012D73F02B37C7F0112600012E3D8
:10B497009F90800F7401F0908013E0903D56F090DC
:10B4A7008012E0903D57F0908011E0903D58F09069
:10B4B7008010E0903D59F0903C6B12972C1296E566
:10B4C700EF2401FFE43EFEE43DFDE43CFC903D56E5
:10B4D7001297381295BBE47B0AFAF9F8D31297084A
:10B4E700400302B5A9903C72E06401706D903BE2A5
:10B4F70012972C903BE6129738C312970870089062
:10B507003C70E004F0802E903BE212972C903BE6D3
:10B51700129738D31297084013903BE612972C9056
:10B527003BE2129744E4903C70F080097BFF7ACEAF
:10B5370079D9128E0A903C70E0FFC39464401B9047
:10B547003C6F7401F0E4903C72F07BFF7ACE79E1B6
:10B55700903C2CF0A3EFF0128E0A903C6FE0600253
:10B5670004F0E4903DC1F0903DC1E0FFC3940A5060
:10B5770025EF75F069A424DCF9742F35F0FA7B0107
:10B587009033F61297967F0212600012E39F903D68
:10B59700C1E004F080D1903D5612972C903C6B127D
:10B5A7009744903C71E0700302B37C903C6712971C
:10B5B7002CEF2401FFE43EFEE43DFDE43CFC903C1F
:10B5C700671297447F407E427D0F7C00903C671254
:10B5D7009738D3129708500302B37C7BFF7ACF7951
:0AB5E70031128E0A12D73F02B37C26
:10DDC2000A205631333320000A0D202065655B2579
:10DDD200785D3D257820000A205631333520000A2F
:10DDE20020454550524F4D20636865636B204F4B71
:10DDF20020000A20454552504F4D204944206D696C
:10DE0200736D61746368200000010001000100006D
:04DE1200000100000B
:10CB1C00433B8B013B9E503B8E000000010000000C
:09CB2C00000000000100000000FF
:10E1E600903B8B12978D903DAE129796E4903DAD85
:10E1F600F0903DADE0FD2408FF7E00A312978D7CD4
:10E2060000E92DF9EC3AFA12DE16EF7002FF2290C1
:0DE216003DADE004F0E0C3944340D67F012D
:01E2230022D8
:10801500E4903DE8F0903DE8E0FFC394085059EF47
:108025006402604CEF64036047EF64066042EF64EE
:1080350007603D7E007B017A3D79E712DE16EF7021
:1080450006903B8AF0FF22903DE8E025E0248EF57E
:1080550082E4343BF583E0FEA3E0FF903DE7E0FDDD
:10806500EF6D7001EE6009903B8A7401F07F00228C
:0F807500903DE8E004F0809D903B8A7401F0FF9D
:0180840022D9
:10BBC200903D777401F078787C3DFD7BFF7ADE79D9
:10BBD2000A7E007F04129302E4903D75F0903D7559
:10BBE200E0FFC3940450337E007B017A3D797612E4
:10BBF200DE16EF7004903D77F0903D75E02478F505
:10BC020082E4343DF583E0FF903D76E06F6003E42B
:10BC1200A3F0903D75E004F080C3E4903D75F09090
:10BC22003D75E0FFC394025028EF240EFF7E007B97
:10BC3200017A3D797612DE16EF7004903D77F0902E
:10BC42003D76E0F46003E4A3F0903D75E004F080FB
:10BC5200CE903D77E06401600302BD897BFF7ADD0F
:10BC620079C2128E0AE4903D75F0903D75E0FFC3F3
:10BC72009406502BEF2404FF7E007B017A3D7976F7
:10BC820012DE16903D76E0FF903D75E0249EF5822F
:10BC9200E4343BF583EFF0903D75E004F080CBE4B3
:10BCA200903D75F0903D75E0FFC39404502BEF2456
:10BCB2000AFF7E007B017A3D797612DE16903D7690
:10BCC200E0FF903D75E024A4F582E4343BF583EF78
:10BCD200F0903D75E004F080CBE4903D75F0903D2E
:10BCE20075E0FFC39404502BEF240EFF7E007B010E
:10BCF2007A3D797612DE16903D76E0FF903D75E052
:10BD020024A8F582E4343BF583EFF0903D75E0041E
:10BD1200F080CBE4903D75F0903D75E0FFC3940454
:10BD2200502BEF2412FF7E007B017A3D797612DEE2
:10BD320016903D76E0FF903D75E024ACF582E43448
:10BD42003BF583EFF0903D75E004F080CBE4903D4D
:10BD520075F0903D75E0FFC39404502BEF2416FF5D
:10BD62007E007B017A3D797612DE16903D76E0FF09
:10BD7200903D75E024B0F582E4343BF583EFF0901A
:0CBD82003D75E004F080CB903D77E0FFC1
:01BD8E002292
:10C11B00903CED7401F078EE7C3CFD7BFF7ADE7990
:10C12B000E7E007F08129302E4903CEBF0903CEB08
:10C13B00E0FFC3940850567E007B017A3C79EC12E9
:10C14B00DE16EF7004903CEDF07BFF7ADD79CA9040
:10C15B003CEBE0FF903C2CE4F0A3EFF0903CECE0E8
:10C16B00FF903C2EE4F0A3EFF0128E0A903CEBE034
:10C17B0024EEF582E4343CF583E0FF903CECE06F79
:10C18B006003E4A3F0903CEBE004F080A0903CED66
:10C19B00E06401600302C2CE7BFF7ADD79D9128E97
:10C1AB000AE4903CEBF0903CEBE0FFC39406502B81
:10C1BB00EF2408FF7E007B017A3C79EC12DE1690AF
:10C1CB003CECE0FF903CEBE0249EF582E4343BF545
:10C1DB0083EFF0903CEBE004F080CBE4903CEBF091
:10C1EB00903CEBE0FFC39404502BEF240EFF7E003A
:10C1FB007B017A3C79EC12DE16903CECE0FF903C34
:10C20B00EBE024A4F582E4343BF583EFF0903CEBB8
:10C21B00E004F080CBE4903CEBF0903CEBE0FFC310
:10C22B009404502BEF2412FF7E007B017A3C79ECB7
:10C23B0012DE16903CECE0FF903CEBE024A8F5827C
:10C24B00E4343BF583EFF0903CEBE004F080CBE47F
:10C25B00903CEBF0903CEBE0FFC39404502BEF24AD
:10C26B0016FF7E007B017A3C79EC12DE16903CECDB
:10C27B00E0FF903CEBE024ACF582E4343BF583EF3C
:10C28B00F0903CEBE004F080CBE4903CEBF0903C86
:10C29B00EBE0FFC39404502BEF241AFF7E007B01CD
:10C2AB007A3C79EC12DE16903CECE0FF903CEBE034
:10C2BB0024B0F582E4343BF583EFF0903CEBE004E3
:08C2CB00F080CB903CEDE0FF98
:01C2D3002248
:10E53B00903B8B12978DA801AC02AD037BFF7AE069
:09E54B00799D7E007F43029302DA
:10C46A00E4903DC4F0A3F0A3F012922A12E53B1225
:10C47A008015EF700302C5EE7BFF7ADD79E1128E3B
:10C48A000AE4903DC4F0A3F0903DC4E0FEA3E0FFAF
:10C49A00C39406EE94005030EF2408FFE43EFE7B7E
:10C4AA00017A3D79C612DE16903DC6E0FF903DC581
:10C4BA00E0249EF582E4343BF583EFF0903DC4E43A
:10C4CA0075F0011294A980C0E4903DC4F0A3F090E5
:10C4DA003DC4E0FEA3E0FFC39404EE94005030EFA5
:10C4EA00240EFFE43EFE7B017A3D79C612DE1690E9
:10C4FA003DC6E0FF903DC5E024A4F582E4343BF557
:10C50A0083EFF0903DC4E475F0011294A980C0E471
:10C51A00903DC4F0A3F0903DC4E0FEA3E0FFC394B5
:10C52A0004EE94005030EF2412FFE43EFE7B017AC1
:10C53A003D79C612DE16903DC6E0FF903DC5E02467
:10C54A00A8F582E4343BF583EFF0903DC4E475F03E
:10C55A00011294A980C0E4903DC4F0A3F0903DC4B8
:10C56A00E0FEA3E0FFC39404EE94005030EF2416DB
:10C57A00FFE43EFE7B017A3D79C612DE16903DC687
:10C58A00E0FF903DC5E024ACF582E4343BF583EF4F
:10C59A00F0903DC4E475F0011294A980C0E4903D86
:10C5AA00C4F0A3F0903DC4E0FEA3E0FFC39404EE00
:10C5BA009400503CEF241AFFE43EFE7B017A3D7959
:10C5CA00C612DE16903DC6E0FF903DC5E024B0F5E8
:10C5DA0082E4343BF583EFF0903DC4E475F0011238
:10C5EA0094A980C07BFF7ADD79F4128E0A12BBC24D
:01C5FA00221E
:10DCF5000A0D54465450204661696C2120526573C3
:10DD05007461727421000A5570646174652E2E2E3B
:10DD15002062792057656220000A0D544654502030
:10DD2500426C6F636B206E756D6265723A000D090A
:10DD350009092564002E2E2E544654502046696E3E
:10DD45006973682120000A0D20466C6173682057AD
:0CDD550072697465204572726F722100C3
:10BD8F00C390342CE0942E90342BE094005004E4B4
:10BD9F0002BF54E4903C76F0A3F0903451E070046D
:10BDAF00A3E06445600302BF57903457E0FEA3E061
:10BDBF00FFEE600302BF57EF24FE601D14606F1487
:10BDCF00700302BF5014700302BF502404600302BB
:10BDDF00BF57E490342B02BF54903C71E0600F12B8
:10BDEF0082937BFF7ADC79F5128E0A12D73F90345B
:10BDFF0057E4F0A37404F0E4903C74F0A3F0903493
:10BE0F0059F0A3F0903C72E0B401087BFF7ADD7922
:10BE1F000B8018903C727402F0903C7114F07F0408
:10BE2F007E0012D12F7BFF7ADD791E028E0A903CA5
:10BE3F0071E0700302BF4A903C67129750000000F8
:10BE4F0000903C74E475F0011294A9903459E0FE0F
:10BE5F00A3E0FF903C74E06E7003A3E06F600302F9
:10BE6F00BF1390343EE024E0FE90343DE034FF9069
:10BE7F003C76F0A3CEF0903C76E0FCA3E0FD7B0196
:10BE8F00245BF974343CFAE41293D87A34795B1258
:10BE9F00884FEF6050903457E4F0A37404F0903C57
:10BEAF0074E0FFA3E0903459CFF0A3EFF07F047E4E
:10BEBF000012D12F7BFF7ADD7933903C74E0FFA322
:10BECF00E0903C2CCFF0A3EFF0128E0AC3903C769B
:10BEDF00E0940250737BFF7ADD793A128E0A903C20
:10BEEF00737401F022E490342BF0A3F07BFF7ADD22
:10BEFF00794B128E0A1282937BFF7ADC79F5128EC0
:10BF0F000A02D73F903459E0FEA3E0FFD3903C756F
:10BF1F00E09F903C74E09E4011903457E4F0A3747E
:10BF2F0004F0FF7E0012D12F8007E490342BF0A392
:10BF3F00F0903C7474FFF5F00294A9E490342B80D8
:09BF4F0004E490342BF0A3F0226D
:10E2D500E4903B03F0903B03E0FFC3941450279078
:10E2E5000004C083C0827D00EF75F00BA42426F9DD
:10E2F500743A35F0FA7B01D007D006129D28903B81
:07E3050003E004F080CF22C9
:10DD6100903B04E004F0E4903B03F0903B03E0FFC0
:10DD7100C39414504BEF75F00BA42426F9743A3573
:10DD8100F0FA7B019000021294EAFFAEF01294BF08
:10DD9100FDE5F04EFEED4F4E601E90000A129341DC
:10DDA100FF903B04E0C39FC394B0E4940440097E18
:10DDB100007F047D00129D28903B03E004F080ABBE
:01DDC100223F
:06C5FB00903D201297960E
:10C60100E4903B03F0903B03E0FFC394145071EFBF
:10C6110075F00BA42426F9743A35F0FA7B01903DAC
:10C62100261297961294BF45F0604D903D261297C1
:10C631008D9000021294EA45F0603D1294BFFFAE66
:10C64100F0903D2012978D1294BF6F7003E5F06E4C
:10C651007026903D2612978D9000021294EAFFAE4B
:10C66100F0903D2012978D9000021294EAB50708D0
:10C67100E5F0B5060302C73E903B03E004F0808578
:10C68100E4903B03F0903B03E0FFC394145034EF7C
:10C6910075F00BA42426F9743A35F0FA7B01903D2C
:10C6A100261297961294BF45F07010903D2612976E
:10C6B1008D9000021294EA45F06008903B03E0047B
:10C6C100F080C2903B03E064147059903A1FF090DF
:10C6D1003B02F0A3F0903B03E0FFC39414503FEF03
:10C6E10075F00BA42426F9743A35F0FA7B01903DDC
:10C6F1002612979690000A129341FF903B04E0C3E3
:10C701009FFF903A1FE0FEEFD39E400AEFF0903B6F
:10C7110003E0903B02F0903B03E004F080B7903BD4
:10C7210002E0A3F0903D2612978DA801AC02AD0363
:10C73100903D2012978D7E007F04129302903D263A
:10C7410012978DE92404F9E43AA801FCAD03903D68
:10C751002312978D7E007F06129302903B04E0FF27
:0DC76100903D2612978D90000AEF1293EA8A
:01C76E0022A8
:10D8FD0090342B74FF75F0F21294A990342812977E
:10D90D008D90001A1294EAFF902FD3E0FCA3E0FD56
:10D91D00EC55F0FEED5FFF902FB4E05CFCA3E05DF5
:10D92D006F7002EE6C705B90342812978D90001C16
:10D93D001294EAFF902FD5E0FCA3E0FDEC55F0FE2C
:10D94D00ED5FFF902FB6E05CFCA3E05DB50733EE15
:10D95D00B5042F90342812978DE9241AF9E43AFA78
:10D96D00C003C002C00190342812978DE92406F936
:10D97D00E43AFA903D23129796D001D002D00312CB
:03D98D00C5FB22B5
:10BF5800C390342CE0942A90342BE094005005E4EC
:10BF6800F0A3F022E490342BF0A3F0903428129739
:10BF78008D9000141294EAFFAEF0E5F0600302C160
:10BF88001AEF24FE700302C0C504600302C11A90B0
:10BF980000261294EAFF902FB4E065F07003A3E046
:10BFA8006F600302C11A9000281294EAFF902FB61E
:10BFB800E065F07003A3E06F600302C11A903428B3
:10BFC80012978D900014E475F00212958EE92416EC
:10BFD800F9E43AFAC003C002C00190342812978DE0
:10BFE800E92420F9E43AA801FCAD03D001D002D03D
:10BFF800037E007F0612930290342812978DE9245D
:10C0080016F9E43AA801FCAD037B017A3A79207E5F
:10C01800007F0612930290342812978DE92406F9BE
:10C02800E43AA801FCAD037B017A3A79207E007FCF
:10C038000612930290342812978DE92420F9E43AE5
:10C04800FAC003C002C00190342812978DA801AC31
:10C0580002AD03D001D002D0037E007F0612930206
:10C0680090342812978D90001C1294EAFF900026B5
:10C07800E5F08FF012958E90001E1294EAFF900062
:10C0880028E5F08FF012958E902FB4E0FFA3E09092
:10C09800001CCF8FF012958E902FB6E0FFA3E09092
:10C0A800001ECF8FF012958E90000C740875F00664
:10C0B80012958E90342BE4F0A3742AF02290342841
:10C0C80012978D9000261294EAFF902FB4E0B5F0F5
:10C0D80041A3E0B5073C9000281294EAFF902FB6E0
:10C0E800E0B5F02EA3E0B50729E9241CF9E43AFAF3
:10C0F800C003C002C00190342812978DE92416F9B4
:10C10800E43AFA903D23129796D001D002D0031258
:03C11800C5FB2242
:107D670090342812978D90001E1294EAFF902FD31B
:107D7700E0FCA3E0FDEC55F0FEED5FFF902FB4E0D3
:107D87005CFCA3E05DB50730EEB5042C90342812F7
:107D9700978D9000201294EAFF902FD5E0FCA3E086
:107DA700FDEC55F0FEED5FFF902FB6E05CFCA3E025
:107DB7005D6F7002EE6C601C902FCFE0FFA3E09028
:107DC7003B05CFF0A3EFF0902FD1E0FFA3E0903B6E
:107DD70007CF802290342812978D90001E1294EAC4
:107DE700FF903B05E5F0F0A3EFF09000201294EA36
:107DF700FF903B07E5F0F0A3EFF0E4903B03F09032
:107E07003B03E0FFC394145047EF75F00BA42426FF
:107E1700F9743A35F0FA7B01903DC71297961294A0
:107E2700BFFF903B05E0B5F01FA3E0B5071A903DF3
:107E3700C712978D9000021294EAFF903B07E06506
:107E4700F07003A3E06F6008903B03E004F080AF9D
:107E570090342812978D90001E1294EAFFAEF0BE60
:107E6700FF14BFFF119000201294EAF47003E5F0AD
:107E7700F47003027F80903B03E064146003027F89
:107E870080FE7F067DFF90342812978D129D287EF5
:107E9700007F067D0090342812978DE92420F9E4AD
:107EA7003AFA129D2890342812978DE92406F9E4AE
:107EB7003AA801FCAD037B017A3A79207E007F0660
:107EC70012930290342812978DE92416F9E43AA800
:107ED70001FCAD037B017A3A79207E007F0612937D
:107EE70002903B05E0FEA3E0FF90342812978D90A7
:107EF7000026EE8FF012958E903B07E0FFA3E090EF
:107F07000028CF8FF012958E902FB4E0FFA3E0905A
:107F1700001CCF8FF012958E902FB6E0FFA3E09054
:107F2700001ECF8FF012958E900014E475F00112A9
:107F3700958E90000EE475F00112958E90001074E6
:107F47000875F00012958E90001274061293EA904D
:107F5700001374041293EA90000C740875F006126B
:107F6700958EE92436F9E43AFA902FB8129796904D
:107F7700342BE4F0A3742AF02290342812978D90C2
:107F8700001E1294EAFFAEF0BEFF1DBFFF1A90005D
:107F9700201294EAFFAEF0BEFF0EBFFF0B7E007FFC
:107FA700067DFF129D28802C903DC712978DE924EE
:107FB70004F9E43AFAC003C002C0019034281297CA
:107FC7008DA801AC02AD03D001D002D0037E007FA3
:107FD7000612930290342812978DE92406F9E43AA1
:107FE700A801FCAD037B017A3A79207E007F061257
:107FF700930290342812978D90000C740875F00046
:0D80070012958E90342BE475F00E1294A9A2
:018014002249
:10D12F00903DE9EEF0A3EFF04E700790342BF0A393
:10D13F00F022782D7C347D017B017A3479337E00A7
:10D14F007F0612930278337C347D017B017A3C7920
:10D15F00557E007F06129302784B7C347D017B0154
:10D16F007A3479477E007F04129302902FB4E0FF48
:10D17F00A3E0903447CFF0A3EFF0902FB6E0FFA3DA
:10D18F00E0903449CFF0A3EFF0902FC2E475F00197
:10D19F001294A9902FC2E090343FF0902FC3E090EB
:10D1AF003440F0903DE9E0FCA3E0FD241CFEE43C9C
:10D1BF0090343DF0A3CEF0E4903445F0A3F09034DA
:10D1CF004FE0FFA3E0A3CFF0A3EFF090344FE4F0D4
:10D1DF00A37445F0ED2408FEE43C903453F0A3CE45
:10D1EF00F0E4A3F0A3F0700874FF903455F0A3F0AF
:10D1FF0090343EE0240EFE90343DE0340090342B0A
:05D20F00F0A3CEF022A7
:10E586007830A6A8908003E0A3E04404F043E102BB
:07E59600D2A8D2AF438701B8
:01E59D00225B
:10E5DB007830E6F5A8908003E0A3E054FBF053E11C
:01E5EB00FD32
:01E5EC00220C
:10E37200903DEBEEF0A3EFF0903DEBE0908202F0E7
:10E38200903DECE0908201F0EC908204F0ED9082FE
:0DE3920003F0EA908206F0EB908205F02285
:09E63F00908200E0FF540370F723
:01E6480022AF
:10D45E00903D29EEF0A3EFF0A3ECF0A3EDF0A3EADC
:04D46E00F0A3EBF04C
:10D47200A3E05407903D31F064056004E0B4060374
:10D482007F0022903D2DE0131313541F04903D3072
:10D49200F0E4F9903D30E0FFE9C39F5075903D2DD7
:10D4A200E0FAA3E0FB4A606AEF14903D29B5010D52
:10D4B200E0FEA3E0FFA3E0FCA3E0FD800FE0FEA3FB
:10D4C200E0FFA3E0FCA3E0FD7B007A0812E3729088
:10D4D2003D2FE0908200F0903D31E0B4040312E56C
:10D4E2008612E63F903D31E0B4040312E5DB903D45
:10D4F2002D74F875F0001294A9903D29740875F006
:10D50200001294A9903D2B740875F0001294A90999
:04D5120080817F0194
:01D5160022F2
:10CB3500413CF800413CF900413CFA00423CF6001A
:01CB450000EF
:10916600E4FF749E2FF582E4343BF583E0FEEF24A2
:1091760030FDE434838D82F583EEF00FEFB406E222
:0191860022C6
:10E41C00E4FF74A42FF582E4343BF583E0FEEF2493
:10E42C0036FDE434838D82F583EEF00FEFB404E215
:01E43C0022BD
:10E47900908100E0FD54F7F0908130EFF0E0903C9E
:0CE48900FFF0A3E4F0AF05908100EDF07F
:01E495002264
:10E3CA00908100749FF09081357408F0A3E4F09076
:10E3DA008000E054204487FFF0908130E0903CFFB9
:0AE3EA00F0A3E4F012916602E41CB7
:10E30C00FF3395E0EF5407FFE0FE33333354F84FFF
:10E31C004480FDE975F004A42413FFE5F034818FEB
:05E32C0082F583EDF015
:10E33100903CF8E0903CFAF0903CF804F0E0540393
:02E34100F022C8
:10DF6200908137E060037F002290000C129341FE03
:10DF72006408702890000D129341702090001712CF
:10DF82009341FDB406037F0122EDB411037F022207
:10DF9200900017129341B401137F0322EEB4860C52
:0FDFA20090000D129341B4DD037F07227F002210
:0ED7C200903D90129796903D93ECF0A3EDF001
:10D7D000903CF8E075F004A42413FFE5F034818F49
:10D7E00082F583E030E7037F0022C3903D94E0940C
:10D7F00008903D93E06480948050037F0022903D28
:10D800009012978D12DF62903D95EFF0903D90124F
:10D81000978DE9FD903CF8E075F004A42410FFE535
:10D82000F034818F82F583EDF0AE02EEFD903CF88E
:10D83000E0F975F004A4FFAEF02411FBEE34818B07
:10D8400082F583EDF0903D94E0FDEF2412FFEE347D
:10D85000818F82F583EDF0903D93E0903D9512E34A
:03D860000C7F0139
:01D8630022A2
:08D99000903DCAECF0A3EDF09C
:10D99800E4A3F0903CF8E075F004A42413FFE5F04C
:10D9A80034818F82F583E030E7037F0022C3903D06
:10D9B800CBE09408903DCAE06480948050037F00D7
:10D9C80022E9FD903CF8E075F004A42410FFE5F08E
:10D9D80034818F82F583EDF0EAFD903CF8E0F9752B
:10D9E800F004A4FFAEF02411FBEE34818B82F583A2
:10D9F800EDF0903DCBE0FDEF2412FFEE34818F82F5
:10DA0800F583EDF0903DCAE0903DCC12E30C7F0128
:01DA180022EB
:10D5CD00903D7C129796903CFFE0FEA3E0F5828E95
:0CD5DD0083E020E7077B007A0079002241
:10D5E900903CFFE0FFA3E0903D7FCFF0A3EFF090E8
:10D5F9003D7FE0FCA3E0FDF5828C83E0FF903D8157
:10D60900E4F0A3EFF0E4903D81F0A3E05407F0E0EB
:10D61900F8E4F0E8903D81F0EDF47003EC647F608C
:10D6290013903D80E02401FF903D7FE034008F821C
:10D63900F5838009908130E0758200F583E0FF90E1
:10D649003D81E0F0A3E04FF0903D81E0FEA3E0FFD3
:10D65900903D7C12978DEE8FF012956F903D00E012
:0ED669002402FF903CFFE03400FAA9077B008A
:01D677002290
:06B5F100903CDE1297966B
:10B5F700903CFFE0FEA3E0F5828E83E020E704E4C1
:10B60700FEFF22E4903CF6F0A3F0903CFFE0FFA39E
:10B61700E0903CE3CFF0A3EFF0903CE3E0FCA3E045
:10B62700FDF5828C83E0FF903CE1E4F0A3EFF0901E
:10B637003CE1E0FAA3E0FB7E0054787803CEC31325
:10B64700CE13D8F9903CE5F0EB5407FF903CE1E4CA
:10B65700F0A3EFF0E0F8E4F0E8903CE1F0EDF470EF
:10B6670003EC647F6013903CE4E02401FF903CE32B
:10B67700E034008F82F5838009908130E075820085
:10B68700F583E0FF903CE1E0F0A3E04FF0903CE36E
:10B69700E475F0021294A9903CE1E0FEA3E0FFA359
:10B6A700E0FCA3E0FD2FFFEC3EFED3EF94FFEE940A
:06B6B7007F500302B753AF
:10B6BD00E49DFF74809CFE903CE6F0A3EFF0E490D7
:10B6CD003CEAF0C3EE648094805007E4903CE6F0D1
:10B6DD00A3F0903CE6E0FAA3E0FBC3903CE2E09BD4
:10B6ED00FE903CE1E09A903CE8F0A3CEF0EB4A608E
:10B6FD0025903CE3E0FEA3E0FF903CDE12978DAC7D
:10B70D0002AD01903CE6E0FAA3E0FB903D2F740101
:10B71D00F012D45E8008903CE4E0903CEAF0908119
:10B72D0030E0FE903CEAE07C002400FFEC3EFE9011
:10B73D003CDE12978D903CE6E0FCA3E029F9EA3C53
:04B74D00FCAD01A3AB
:10B751008015903CE3E0FEA3E0FF903CDE12978D64
:10B76100AC02AD01903CE1E0FAA3E0FB903D2F7407
:10B7710001F012D45E903CE1E0FEA3E0FFA3EE8F66
:10B78100F01294A9903CE3E0FCA3E0FDD394FFEC1C
:10B79100947F4024908130E0FEE49400FF74809E09
:10B7A100FEC3ED9FFFEC9E903CE3F0A3EFF0903CD5
:10B7B100F9E004F0E05401F0903CE3E0FEA3E0FF87
:10B7C100903CFFEEF0A3EFF0903CF9E0600AEE440C
:10B7D10080903CE3F0A3EFF0903CE4E0908131F005
:10B7E100903CE3E0908132F0903CE1E0FEA3E0FF89
:01B7F1002235
:10D2E700903CFFE0FCA3E0FDF5828C83E020E7049F
:10D2F700E4FEFF228D828C83E0FF903DEDE4F0A3F6
:10D30700EFF0E4903DEDF0A3E05407F0E0F8E4F02F
:10D31700E8903DEDF0EDF47003EC647F600CED24D4
:10D3270001FFE43C8F82F5838009908130E07582AC
:10D3370000F583E0FF903DEDE0F0A3E04FF0903D76
:10D34700EEE02402FF903DEDE03400FEEF2DFDEE10
:10D357003CFCD3ED94FFEC947F401E908130E0FEBF
:10D36700E49400FF74809EFEC3ED9FFDEC9EFC904D
:10D377003CF9E004F0E05401F0903CFFECF0A3ED41
:10D38700F0903CF9E06004EC4480FCED908131F0D2
:0BD39700ECA3F0903DEDE0FEA3E0FFF2
:01D3A2002268
:10DFB100908134E0FE908133E0FDAC06903CFFE0BF
:10DFC100B50409A3E0B50504E4FEFF22903CFFE09F
:10DFD100FAA3E0FBD39DEA9C4007EB9DFFEA9CFE80
:10DFE10022908130E0FEC374FF9400FF747F9EFE97
:0EDFF100C3ED9BFDEC9AFCC3EF9DFFEE9CFE82
:01DFFF0022FF
:10DA1900903DEFECF0A3EDF0900003129341FF90DD
:10DA29003DF0E02F902FCAF0900002129341FD9033
:10DA39003DEFE02D902FC9F0900001129341902FF6
:10DA4900C8F0129328902FC7F0903DEFE0FCA3E0B7
:10DA5900FDECFF902FC9E0C39FE49400500F902F75
:10DA6900C8E004F0E07006902FC7E004F0AF05901D
:10DA79002FCAE0C39FE494005018902FC9E004F026
:10DA8900E0700F902FC8E004F0E07006902FC7E017
:03DA990004F02274
:10E4EB0012921C903CFAE075F004A42413FFE5F0A3
:0BE4FB0034818F82F583E020E7E622E9
:07922A00908001E04410F008
:01923100221A
:06DE1600903DCD1297962D
:10DE1C00AD07EE5407FF908311EDF0A3EFF0E4FF94
:10DE2C009083137420F0E4FDFC908313E0FE54C047
:10DE3C00700E0DBD00010CC3ED9410EC942740E95D
:10DE4C00EE30E712908310E0FF903DCD12978DEFEE
:0DDE5C001293D87F01220FEFB4C8C57F00DC
:01DE69002296
:10E16600AC07EE5407FF908310EDF0A3ECF0A3EF9D
:10E17600F0E4FF908313E4F0FDFC908313E0FE547B
:10E18600C0700E0DBD00010CC3ED9410EC94274039
:0FE19600E9EE30E7037F01220FEFB4C8D67F0018
:01E1A5002257
:10E5B40075985043878053890F438920758DF0D215
:04E5C4008ED2992238
:10E5ED0030980CC298EFB599037F01227F00227FEE
:02E5FD000022FA
:0BE63400309805C298AF99227F0022A9
:1091DC00EDC0E0ECC0E00E0F7C0E7D51DDFEDCFA44
:0B91EC00DFF6DEF4D0E0FCD0E0FD2256
:0EE60E0075CB3E75CAFCE4F5CDF5CCD2CA2220
:0CE61C005389F0438901E4F58AF58C2253
:10E22400903D5612972C908010EFF0903D56129727
:10E234002C7808129719908011EFF0903D561297A0
:10E244002C7810129719908012EFF0903D56129787
:0CE254002C7818129719908013EFF0221C
:10E5210012E60E903D5A12975000000000903D56A1
:0AE531001297500000000002E224DF
:0391870002E61CE1
:10E55400903D5A12972CEF2401FFE43EFEE43DFD6A
:09E56400E43CFC903D5A0297448E
:10918C007D009000000E0F438E07D2DCC2D9E02D7B
:10919C00FDA3DFF8DEF6D2D9EDFFC2DC538EF82248
:1091AC009000000E0F758E07D2DCE064FF700DA3EB
:1091BC00DFF8DEF67F01C2DC758E00227F00C2DC98
:0491CC00758E00227A
:108092000A0D625B25645D000A466C617368426189
:1080A2006E6B436865636B28257829000A466C610C
:1080B200736842616E6B53756D6B2578282578293C
:1080C200000A0D466C6173685F42616E6B6E6F3DB4
:1080D2002564000A436865636B696E67204D6167BA
:1080E2006963436F6465000A436865636B696E6721
:1080F20020466C61736820436865636B73756D001D
:108102000A466C61736820436865636B73756D5BC7
:10811200253032785D2C2043616C20436865636BA7
:0E81220073756D5B253032785D0013F0F0133D
:10CB4600443CA400000000423CA10000413C960089
:10CB5600413CA300423C940000443C9D0000000080
:10CB6600413CA80A413C9A00413C9700423CA9003E
:01CB760000BE
:0D828000EE908006F0E0908000E04420F0D9
:01828D0022CE
:05828E007F041285745D
:0C8293007F04128574908000E054DFF03E
:01829F0022BC
:0682A000438E04D2DC2233
:1082A600EFF01282A090055574AAF09002AA7455B8
:1082B600F09005557480F074AAF09002AA7455F0F7
:0682C6009012347430F048
:0682CC00C2DC538EFB2210
:0382D200903DF1EB
:1082D5001282A6E4903DF2F07FF47E011291DC90CB
:0D82E5003DF2E004F0E0C3940440ED7F01A1
:0182F2002269
:1082F3001282A090055574AAF09002AA7455F090CA
:1083030005557480F074AAF09002AA7455F0EF1426
:10831300600F146011146013240370159000008023
:108323000D904000800890600080039080007430BE
:10833300F01282CCE4903DFFF07FF47E011291DCD9
:0E834300903DFFE004F0E0C3940440ED7F01A4
:018351002209
:03835200903DF368
:108355001282A6E4903DF4F07FF47E011291DC9048
:0D8365003DF4E004F0E0C3940440ED7F011E
:0183720022E8
:108373001282A090055574AAF09002AA7455F09049
:1083830005557480F074AAF09002AA7455F0EF14A6
:10839300600F1460111460132403701590000080A3
:1083A3000D9040008008906000800390800074303E
:1083B300F01282CCE4903E00F07FF47E011291DC57
:0E83C300903E00E004F0E0C3940440ED7F0122
:0183D1002289
:0583D200903DB1EFF049
:1083D700903DB47404F0903DB4E0FFC374049F7DF6
:1083E7000025E025E0FC903DB1E0C454F0FEED240B
:1083F70000F568EE3CF5671282A090555574AAF017
:10840700902AAA7455F09055557480F074AAF0908C
:108417002AAA7455F08568828567837430F01282C2
:10842700CC7F3C7E001291DC903DB4E014F0E0D3A9
:06843700940050A27F0139
:01843D00221C
:07843E001285747FFB7EFF35
:108445008E698F6A1282A0856A82856983E0FF1230
:0284550082CCD7
:018457002202
:0B845800903DA8EEF0A3EFF0A3EDF0C4
:10846300903DA8E0FEA3E08E6BF56C7838F6EE083D
:10847300F6A3E008F6903C9BE0FEA3E08EF0129892
:10848300BD84EC1CBA84C41F1384EC7F4984EC7F45
:108493005B84ECBFC884ECBFC984B0BFD784ECC293
:1084A3004984ECC25B84D8C2B6000085041282A062
:1084B30090555574AAF0902AAA7455F0905555809A
:1084C3003A1282A090055574AAF0900AAA7455F046
:1084D30090055580261282A090055574AAF090024B
:1084E300AA7455F090055580121282A0900AAA74BE
:1084F300AAF09005557455F0900AAA74A0F0128260
:10850300CC1282A0783AE6856C82856B83F0128266
:10851300CCE4903DABF0A3F0903DABE0FEA3E0FFD5
:10852300E4FCFD7BC07A277909F8D31296F2401E4A
:10853300903DA8E0FEA3E0FF128445903DAAE06FC2
:10854300600C903DABE475F0011294A980CA903D94
:10855300ABE0FEA3E0FFE4FCFD7BC07A277909F8DA
:0B856300C31296F27003FF80027F013C
:01856E0022EA
:05856F00903C9AE0FFC2
:10857400EF1392B5EFC3131392B4EF1313543F13D5
:03858400929722A9
:0A8587007B007A28E4FDFCFF7E80F3
:10859100903DF5EEF0A3EFF0903D2F7404F012D46E
:0C85A1005E903DF5E0FEA3E0FF0282804A
:1085AD0012858712856FE07051903C97E0B40612EA
:1085BD007F021282F3E4903C9AF0903C977408F09D
:1085CD00801F903C97E0B408127F031282F3903C19
:1085DD009A7401F0E4903C97F08006903C97E0048B
:1085ED00F0903C9AE0C454F0FF903C97E02FFF9040
:1085FD003C94E4F0A3EFF002829312828E903C9AA9
:10860D00E004F0E075F010A4FF903C94E5F0F0A3C9
:03861D00EFF02259
:1086200012858712856FE0704F903C97E0B4061278
:108630007F02128373E4903C9AF0903C977408F0A8
:10864000801F903C97E0B408127F03128373903C24
:108650009A7401F0E4903C97F08006903C97E00417
:10866000F012828E903C9AE0C454F0FF903C97E068
:108670002FFF903C94E4801412828E903C9AE00488
:10868000F0E075F010A4FF903C94E5F0F0A3EFF05B
:0186900022C7
:1086910012921C902222E0FFE0FEEF5440FDEE54C6
:1086A10040FC6D601AEF30E5E7902222E0FFE0FE2A
:1086B100EF5440FDAF06EE54406D60037F00227F12
:0186C10001B7
:0186C2002295
:1086C3001282A0900AAA74AAF09005557455F090EE
:1086D3000AAA7480F074AAF09005557455F0EF144B
:1086E300600F146011146013240370159000008050
:1086F3000D904000800890600080039080007430EB
:10870300F0128691EF70051282CCFF221282CC7F89
:018713000164
:018714002242
:10871500903E02EFF01282A0900AAA74AAF090058A
:10872500557455F0900AAA7480F074AAF090055516
:108735007455F09012347430F0128691EF70051272
:0A87450082CCFF221282CC7F0122B9
:10874F0012858712856FE07050903C97E07003742C
:10875F0006F0903C97E0B406127F021286C3E490B5
:10876F003C9AF0903C977408F08017903C97E0B4D7
:10877F0008107F031286C3903C9A7401F0E4903C7A
:10878F0097F012828E903C9AE0C454F0FF903C9781
:10879F00E02FFF903C94E4802A7BFF7A80799290BF
:1087AF003C9AE0FF903C2CE4F0A3EFF0128E0A12FB
:1087BF00828E903C9AE004F0E075F010A4FF903C9C
:0887CF0094E5F0F0A3EFF022A5
:1087D700903C97E070167BFF7A807992903C9AE004
:1087E700FF903C2CE4F0A3EFF0128E0A903C97E048
:1087F700FC04FEC4540F903DF7F0EE540FA3F0ECC9
:10880700C394065006E0903C97F022903C9AE070A3
:1088170014FB7A2812858C12856F903C97E0FF1223
:1088270083D212828E903DF8E0FF903C97F0903D06
:10883700F7E0FE903C9AE02EF0E0C454F02FFF9052
:078847003C94E4F0A3EFF004
:01884E002207
:0E884F00903D83129796903D86ECF0A3EDF0DD
:10885D00128587E4903D88F0A3F0903D86E0FEA35D
:10886D00E0FFC3903D89E09F903D88E09E5073905E
:10887D003CA3E0FF702CC3903CA1E0946040231218
:10888D008574E0FEA3E0FF903D8312978D903D88A7
:10889D00E0FCA3E0F5828C83129341FD128458BF56
:1088AD000140903CA412972CEF2401FFE43EFEE41E
:1088BD003DFDE43CFC903CA4129744903CA1E47532
:1088CD00F0011294A9903CA1E07002A3E070069013
:1088DD003CA3E004F0903D88E475F0011294A902E8
:1088ED008867128293903D86E0FEA3E0FFA3E0B57A
:0D88FD000609A3E0B507047F0180027F009B
:01890A00224A
:05890B00903D0CEFF0AF
:10891000903D111297500000FFFF7BFF7A80799AFB
:10892000903D0CE0FF903C2CE4F0A3EFF0128E0A97
:10893000903D0CE0FB700A903D1112975000007FB3
:10894000FFEBB4070A903D111297500000FFFA9018
:108950003D0CE0FF128574903D13E0FEA3E0FF1292
:10896000918C903D15EFF07BFF7A8079AE903D0CB5
:10897000E0FD903C2CE4F0A3EDF0A3E4F0A3EFF0D5
:10898000128E0A903D15E0FF903C96E02FF07F0498
:03899000028574E9
:0189930022C1
:1089940004F0E4F52CF52D1282A0900AAA74AAF032
:1089A4009005557455F0900AAA7490F07F037E00E8
:1089B400E4FDFCC3ED9FEC9E5018E4FBFA1289938E
:1089C4000BBB00010ABA0FF5BBA0F20DBD00010CF0
:0289D40080E140
:0189D600227E
:1089D700E4FF0F12843EEF601FF4601CEFFDC390AD
:1089E7003C93E09D903C92E09400400CEF5407705C
:0D89F70007903C98F0A3EFF07F0402857418
:108A0400E4F52CF52DF52E903E0304F01282A0908F
:108A1400555574AAF0902AAA7455F09055551289A8
:108A2400AD900000E0F52CA3E0F52D90555574AA07
:108A3400F0902AAA7455F090555574F0F01289B448
:108A44001282CCE52CFEE52DFF903C9BEEF0A3EFCB
:108A5400F08EF01298BD8A811F138A92BF438A92C6
:108A6400BF448A92BF4A8A92BF4B8A7ABFD78A810F
:108A7400C2B600008AA3903CA8740A8005903CA862
:108A840074F4F0903C98E4F0A37408F08016903CE1
:108A9400A874C8F0903C98E4F0A37420F08005E436
:108AA400903E03F0903E03E0707B128994900000A6
:108AB400E0F52CA3E0F52EA3E0F52D900AAA74AA04
:108AC400F09005557455F0900AAA74F0F01289B428
:108AD4001282CCE52CFEE52DFF903C9BEEF0A3EF3B
:108AE400F08EF01298BD8AFE7F498B007F5B8B135A
:108AF400C2498B02C25B00008B2480138000903C2F
:108B0400A874C8F0903C98E4F0A37410F080169018
:108B14003CA874C8F0903C98E4F0A37420F080055D
:108B2400E4903E03F0903E03E0703704F0E52CFE41
:108B3400E52EFF903C9BEEF0A3EFF08EF01298BD73
:108B44008B50BFC88B50BFC900008B61903CA87488
:108B5400C8F0903C98E4F0A37420F08005E4903EC3
:108B640003F0903E03E0705C128994900200E0F5FB
:108B74002C900001E0F52EA3E0F52D900AAA74AA2A
:108B8400F09005557455F0900AAA74F0F01289B467
:108B94001282CCE52CFEE52DFF903C9BEEF0A3EF7A
:108BA400F08EF01298BD8BB21CBA00008BC3903CBF
:108BB400A874C8F0903C98E4F0A37408F08005E42D
:108BC400903E03F0903E03E0B4012A903C98E0FF0D
:108BD400A3E0903C92CFF0A3EFF01289D77BFF7A09
:108BE4008079C3903C98E0FFA3E0903C2CCFF0A3A5
:058BF400EFF0128E0AF3
:018BF9002259
:108BFA0078987C3D7D017BFF7A81792C7E007F0409
:108C0A001293027BFF7A8079D5128E0A128587E445
:108C1A00903D96F07F07128574903D96E024FCFF04
:108C2A00E434FFFE128445903D96E02498F582E4F0
:108C3A00343DF583E0B507117F04128574903D96A3
:108C4A00E004F0E0C3940440CB903D96E0640460F5
:108C5A00061282937F00227BFF7A8079E9128E0ABC
:108C6A00E4903C96F0903D96F0903D96E0FFC394D8
:108C7A0008500B12890B903D96E004F080EB7F07B9
:108C8A0012843E903D97EFF012828E7BFF7A8179B3
:108C9A0002903D97E0FF903C2CE4F0A3EFF0903C6B
:108CAA0096E0FF903C2EE4F0A3EFF0128E0A903C7F
:0F8CBA0096E0FF903D97E06F60037F00227F01FF
:018CC9002288
:108CCA00903C93E0C4F8540FC868FF903C92E0C40B
:108CDA0054F048FE903C94E06E7003A3E06F70037A
:108CEA00028D9990800F7401F0908013E0903D56A8
:108CFA00F0908012E0903D57F0908011E0903D583E
:108D0A00F0908010E0903D59F0903C9D12972C1203
:108D1A0096E5EF2401FFE43EFEE43DFDE43CFC90D1
:108D2A003D561297381295BBA804A905AA06AB07A7
:108D3A00903CA8E0FFE4FCFDFEC312970840509067
:108D4A003D5612972C903C9D129744903C9BE0FE16
:108D5A00A3E08EF01298BD8D931CBA8D901F138DCF
:108D6A00937F498D937F5B8D96BFC88D96BFC98DC2
:108D7A0096BFD78D93C2498D93C25B8D8DC2B600C3
:108D8A00008D990286200285AD02874F1287D7226D
:06CB770043342801342DB7
:06E65000903DD0029796F8
:01827E0022DD
:10E5C800903428129796E92436F9E43AFA902FB84D
:03E5D80002979611
:10E56D007B017A34792D903428129796E92436F967
:09E57D00E43AFA902FB8029796D7
:10DE6A00E49033F9F09033F9E0FFC394075018EFC8
:10DE7A0025E024A3F582E4342FF583E4F0A3F0909F
:10DE8A0033F9E004F080DEE49033F9F09033F9E0FE
:10DE9A00FFC3940A501475F069EF902FF512978119
:10DEAA00E4F09033F9E004F080E2902FA17404F0DA
:04DEBA00A3E4F022CB
:0EB9E700903D01129796903D04ECF0A3EDF018
:10B9F500902FA1E475F0011294A9C3902FA1E094B2
:10BA05007D40067410F0A3E4F0E49033F9F0903330
:10BA1500F9E0FFC3940A503FEF75F069A424DCF9FF
:10BA2500742F35F0FA7B01903D0612979690001918
:10BA3500129341601A903D0612978D90000412945E
:10BA4500EAFF902FA1E065F07003A3E06F60A1907D
:10BA550033F9E004F080B77B007A007900903D0669
:10BA6500129796E49033F9F09033F9E0FFC3940A06
:10BA7500506CEF75F069A424DCF9742F35F0FA7B6E
:10BA850001903D09129796900019129341FF700E8F
:10BA9500903D0912978D903D061297968040EF6470
:10BAA500077033903D0612978DE94A601D9033F675
:10BAB50012978D90001A129341FF903D0912978DB0
:10BAC50090001A129341D39F400C903D0912978D17
:10BAD500903D061297969033F9E004F0808A903DE8
:10BAE5000612978DE94A7004FBFAF922903D061279
:10BAF500978D90001974021293EA902FD7E0900069
:10BB05000C1293EA902FD8E090000D1293EA902F33
:10BB1500D9E090000E1293EA902FDAE090000F1210
:10BB250093EA900012740575F0B412958E90001486
:10BB3500740575F0B412958E900010E475F001123D
:10BB4500958E90001BE41293EA90001A74011293EB
:10BB5500EA90001874031293EA900016E41293EA2F
:10BB650090001774101293EA902FA1E0FFA3E090C4
:10BB75000004CF8FF012958E903D04E0FFA3E09076
:10BB85000006CF8FF012958E903D0112978D12947D
:10BB9500BFFF903D0612978DE5F08FF012956F90DF
:10BBA5003D0112978D9000021294EAFF903D061216
:0CBBB500978D900002E5F08FF012958E45
:01BBC1002261
:10E0E000E49033F9F09033F9E0FDC394075033ED39
:10E0F00025E024A3F582E4342FF583E0FCA3E0B50A
:10E100000718ECB506149033F9E025E024A3F58256
:10E11000E4342FF583E4F0A3F0229033F9E004F027
:03E1200080C32297
:10E1A600E49033F9F09033F9E0FDC394075030ED75
:10E1B60025E024A3F582E4342FF583E0FCA3E04CAC
:10E1C60070159033F9E025E024A3F582E4342FF5A9
:10E1D60083EEF0A3EFF0229033F9E004F080C6223C
:0FDEBE00902FCDE04402F090342BE0FEA3E0FF64
:10DECD009033F612978DE92408F9E43AFAAD07ACD0
:10DEDD000612DA19902FC7E0FF9033F612978D9046
:10DEED000008EF1293EA902FC8E09000091293EA10
:10DEFD00902FC9E090000A1293EA902FCAE090008B
:04DF0D000B0293EA86
:106000009033F612978D903DB512979690342812E2
:10601000978DE92436F9E43AFA902FB8129796EF63
:106020006402600302619D902FDAE004F070169024
:106030002FD9E004F0700E902FD8E004F070069095
:106040002FD7E004F0E490342BF0A3F0903DB5128C
:10605000978D900019129341FF64076004EFB40517
:106060002190001A74011293A590001A12934164B2
:106070003C6003027623903DB512978D9000190283
:10608000733E903DB512978D9000191293417003A5
:106090000276239000101294EA45F07003026173B7
:1060A00090001A74FF12936E600302762390001B17
:1060B000129341FF64086013900019129341FE642B
:1060C000026004EEB40117EFB40A13900019E41251
:1060D00093EA902FCD7480F012762B02709B903D46
:1060E000B512978D90001B129341FFD39404400684
:1060F0007E047F0480007403A807088002C333D89D
:10610000FC90001A1293EA90001B74011293A59060
:106110003422E475F0011294A990001912934154AD
:106120000F1470030269CC24FE602F147003026FF9
:106130009124FE7003026F9124FE7003026F91247C
:1061400006600302762390342812978DE9240EF915
:10615000E43AFA900021E40269DEE490342BF0A3E3
:10616000F09033FAF0A3F0902FCD7404F012762B58
:1061700002718C903DB512978D9000191293415485
:106180000F6403600302762390342BF0A3F0903366
:10619000FAF0A3F0902FCD7408F002707D9033FEDA
:1061A000E475F0011294A990342812978D90000E96
:1061B000129341644560109033FCE475F001129431
:1061C000A99034020262F8E9240EF9E43AFA900048
:1061D00002129341FD90342BE06D7001E4600FEDED
:1061E000FEA3E0FDEDFF90342BEEF0A3EFF0903432
:1061F0002812978DE9240EF9E43AFA9000031293DD
:1062000041FF90342CE06F7001E4600D90342BE07E
:10621000FE90342BEEF0A3EFF090342812978DE926
:10622000240EF9E43AFA900006129341543F7008A4
:1062300090000712934160109033FCE475F0011256
:1062400094A99034080262F8902FB6E0FEA3E0FF14
:10625000902FB4E0FCA3E0FDEC4EFEED4F4E700F2E
:1062600090000912934164016003027623805B90E1
:1062700000101294EA6D7003EC65F060059033FC39
:1062800080769000121294EAFF902FB6E065F070CD
:1062900003A3E06F60059033FC805D903428129773
:1062A0008DE9240EF9E43AFA900009129341FF6453
:1062B0000670030263B2EF6401600F9033FCE47573
:1062C000F0011294A990340C802E903410E475F0F3
:1062D000011294A990342812978DE9240EF9E43A1A
:1062E000FA9000141293416408601190340EE47522
:1062F000F0011294A9903414E4026728902FB6E0BC
:10630000FEA3E0FF902FB4E04EFEA3E04F4E7020BE
:106310009000101294EAFF902FB4E5F0F0A3EFF094
:106320009000121294EAFF902FB6E5F0F0A3EFF080
:1063300090342812978DE9240EF9E43AFA9000146B
:10634000E41293EA900016E4F5F012958E90000A9C
:10635000E4F5F012958E9000101294EAFFAEF090E2
:106360002FC5EEF0A3EFF090000C1294EAFD900020
:1063700010E5F08DF012958E90000CEE8FF01295D6
:106380008E9000121294EAFFAEF0902FC5EEF0A3AB
:10639000EFF090000E1294EAFD900012E5F08DF0FF
:1063A00012958E90000EEE8FF012958E90341202A0
:1063B0007612903418E475F0011294A97B017A2FBB
:1063C00079DC903DB5129796903DB512978DC390AC
:1063D00033F6E99582EA958340030264A5903DB5C2
:1063E00012978D90001912934170030264989034B3
:1063F0002812978DE9240EF9E43AFA9000161294C7
:10640000EAFFAEF0903DB512978D9000041294EA29
:106410006F7003EE65F06003026498903428129761
:106420008DE9240EF9E43AFA9000141294EAFFAED2
:10643000F0903DB512978D9000061294EA6F7003AC
:10644000EE65F0705390342812978DE9240EF9E42C
:106450003AFA90000C1294EAFFAEF0903DB5129714
:106460008D1294BFB50731EEB5F02D9034281297F8
:106470008DE9240EF9E43AFA90000E1294EAFFAE88
:10648000F0903DB512978D9000021294EA6F700360
:10649000EE65F07003026A3B903DB6E475F0691258
:1064A00094A90263C890342812978DE9240EF9E468
:1064B0003AFA900021129341543F640270519000C7
:1064C000161294EAFF902FC5E5F0F0A3EFF0E490E8
:1064D00033F9F09033F9E0FFC394075028EF25E03B
:1064E00024A3F582E4342FF583E0FEA3E0FF902F90
:1064F000C5E06E7003A3E06F70030266859033F908
:10650000E004F080CE903426E475F0011294A99056
:10651000342812978DE9240EF9E43AFA90002112FA
:10652000934130E203027623903420E475F00112A7
:1065300094A990002174141293EA90342BE4F0A3F0
:106540007428F090002074501293EA90001B12936C
:1065500041FF9033F9F090001F12934190001B12FD
:1065600093EA90001FEF1293EA90001A129341FFF2
:106570009033F9F090001E12934190001A1293EAA2
:1065800090001EEF1293EA900019129341FF90338E
:10659000F9F090001D1293419000191293EA9000B7
:1065A0001DEF1293EA900018129341FF9033F9F017
:1065B00090001C1293419000181293EA90001CEF77
:1065C0001293EA90001F74011293A570279034284B
:1065D00012978DE9240EF9E43AFA90001E74011224
:1065E00093A5701090001D041293A5700790001CD5
:1065F000041293A590342812978DE9240EF9E43AF9
:10660000FA9000141294EAFFAEF0902FC5EEF0A3BA
:10661000EFF09000161294EAFD900014E5F08DF072
:1066200012958E900016EE8FF012958E900010123B
:1066300094EAFFAEF0902FC5EEF0A3EFF090000CBF
:106640001294EAFD900010E5F08DF012958E900006
:106650000CEE8FF012958E9000121294EAFFAEF0BD
:10666000902FC5EEF0A3EFF090000E1294EAFD908B
:106670000012E5F08DF012958E90000EEE8FF01264
:10668000958E0275787B007A007900903DB512975F
:1066900096E49033F9F09033F9E0FFC3940A507B0D
:1066A00075F069EF902FF5129781E0701A9033F929
:1066B000E075F069A424DCF9742F35F0FA7B0190C1
:1066C0003DB512979680549033F9E0FF75F06990CC
:1066D0002FF5129781E064077038903DB512978DC1
:1066E000E94A601690001A129341FE75F069EF9026
:1066F0002FF6129781E0D39E40189033F9E075F0A1
:1067000069A424DCF9742F35F0FA7B01903DB512B1
:1067100097969033F9E004F0026696903DB5129793
:106720008DE94A700C90342475F0011294A9027618
:1067300023903DB512978D9033F6129796903DB504
:1067400012978D90001A74031293EA900018740344
:106750001293EA900016E41293EA90001774041260
:1067600093EA90001BE41293EA90342812978DE983
:10677000240EF9E43AFA9000161294EAFF903DB51F
:1067800012978D900004E5F08FF012958E903428CA
:1067900012978DE9240EF9E43AFA9000141294EA63
:1067A000FF903DB512978D900006E5F08FF01295A1
:1067B0008E90342812978DE9240EF9E43AFA90006D
:1067C0000C1294EAFF903DB512978DE5F08FF01210
:1067D000956F90342812978DE9240EF9E43AFA90D7
:1067E000000E1294EAFF903DB512978D900002E5DD
:1067F000F08FF012958E90001974011293EA902F89
:10680000D7E090000C1293EA902FD8E090000D1280
:1068100093EA902FD9E090000E1293EA902FDAE0DD
:1068200090000F1293EA900010E475F00112958E1B
:1068300090342812978DE9240EF9E43AFA90001B5F
:10684000129341FF903DB512978D90000BEF12937C
:10685000EA90342812978DE9240EF9E43AFA900070
:106860001A129341FF903DB512978D90000AEF12D6
:1068700093EA90342812978DE9240EF9E43AFA90BD
:106880000019129341FF903DB512978D900009EFCA
:106890001293EA90342812978DE9240EF9E43AFA1B
:1068A000900018129341FF903DB512978D9000080B
:1068B000EF1293EA7F017E0012DECD90342812970A
:1068C0008DE9240EF9E43AFA90002012934154F035
:1068D000D3945050030269CCE49033F9F0903428FB
:1068E00012978DE9240EF9E43AFA900020129341B0
:1068F000C4540F24FB75F004A4FF9033F9E0FD7C31
:1069000000C39FEC95F040030269CCED2436FFEC08
:1069100033FE90342812978D8F828E83129341908C
:106920002FDBF070030269CC902FDBE0FFB401088D
:106930009033F9E004F080A5EF6402706C74372D99
:10694000F582E43CF5831293416404705CED2438D5
:10695000FFE43CFE90342812978D8F828E83129331
:1069600041FE74392DF582E43CF583129341FDED2F
:10697000FF902FC5EEF0A3EFF0D394B4EE94054052
:10698000067E057FB48008902FC5E0FEA3E0FF904F
:106990003DB512978D900012EE8FF012958E9000FB
:1069A00014EE8FF012958E80239033F9E02437FF98
:1069B000E433FE90342812978D8F828E8312934198
:1069C000FF60099033F9E02FF00268DD903428125F
:1069D000978DE9240EF9E43AFA900021741012938D
:1069E000EA90342812978DE9240EF9E43AFAE92462
:1069F00021F9E43AFA12932844021293D8903428E9
:106A000012978DE9240EF9E43AFA900028740212E4
:106A100093EA90002974041293EA90002A740512F4
:106A200093EA90002B74B41293EA90342BE4F0A311
:106A3000742CF09000207460027375903DB512972D
:106A40008D9033F6129796E4902FCDF09034281263
:106A5000978DE9240EF9E43AFA900021129341301F
:106A6000E215903DB512978D900019E41293EA90CB
:106A70002FCD742002722690342812978DE9240EAF
:106A8000F9E43AFA900020129341C4540F75F004CF
:106A9000A4FF9033F9F0C390342CE09FFF90342B87
:106AA000E09400CF24ECCF34FFF0A3EFF0D3903488
:106AB0002CE0940090342BE094005003026B4A9039
:106AC0000018129341FF903DB512978D9000081267
:106AD00093416F600302734590342812978DE92427
:106AE0000EF9E43AFA900019129341FF903DB51265
:106AF000978D9000091293416F60030273459034A3
:106B00002812978DE9240EF9E43AFA90001A1293AC
:106B100041FF903DB512978D90000A1293416F602E
:106B20000302734590342812978DE9240EF9E43A54
:106B3000FA90001B129341FF903DB512978D900083
:106B40000B1293416F600302734590342812978DA6
:106B5000E9240EF9E43AFA90002112934120E4036B
:106B6000026CA6903DB512978D9000101294EAFD2C
:106B7000ACF04C7003026CA6E9240CF9E43AFA126A
:106B8000DA1990342812978DE9240EF9E43AFA9034
:106B9000001C129341FF902FC7E06F6003026CA6A8
:106BA00090001D129341FF902FC8E06F6003026CAC
:106BB000A690001E129341FF902FC9E06F60030260
:106BC0006CA690001F129341FF902FCAE06F6003E4
:106BD000026CA6902FC7E0FF903DB512978D9000F4
:106BE0000CEF1293EA902FC8E090000D1293EA90F8
:106BF0002FC9E090000E1293EA902FCAE090000F88
:0E6C00001293EA90001B1293416003026C8E07
:106C0E00903DB512978D90001A129341FF90001887
:106C1E00129341C39FFF903DB8F09000161293411E
:106C2E00131313541FFEC3EF9E903DB8F0E0FF9078
:106C3E0000161293A5C3EF648094805007EFF404FE
:106C4E00903DB8F0903DB8E0FF903DB512978D9015
:106C5E0000171293411313543FFEC3EF9E903DB89D
:106C6E00F09000171293A590001612934113131370
:106C7E00541FFF9000171293412F9000181293EAA1
:106C8E00902FCD7401F0903DB512978D9000181293
:106C9E00934190001A1293EA903DB512978D900091
:106CAE0019129341540F1298976CD3016D10026E06
:106CBE00F603722D0472C005732306734507720A1C
:106CCE000800007623902FCDE020E003027623907B
:106CDE00001974031293EA902FCD7440F0900010B7
:106CEE00E4F5F012958ED390342CE0940090342B72
:106CFE00E09400400312DEBEE49033FAF0A3F002FB
:106D0E00707D902FCDE020E00302650F90342812A5
:106D1E00978DE9240EF9E43AFA900021129341641A
:106D2E0012600302650F90002012934154F0D39429
:106D3E00505003026E38E49033F9F09034281297D5
:106D4E008DE9240EF9E43AFA900020129341C454CE
:106D5E000F24FB75F004A4FF9033F9E0FD7C00C313
:106D6E009FEC95F04003026E38ED2436FFEC33FEB7
:106D7E0090342812978D8F828E83129341902FDB41
:106D8E00F07003026E38902FDBE0FFB401089033F1
:106D9E00F9E004F080A5EF6402706C74372DF58273
:106DAE00E43CF5831293416404705CED2438FFE4F7
:106DBE003CFE90342812978D8F828E83129341FE63
:106DCE0074392DF582E43CF583129341FDEDFF906D
:106DDE002FC5EEF0A3EFF0D394B4EE940540067EEB
:106DEE00057FB48008902FC5E0FEA3E0FF903DB56F
:106DFE0012978D900012EE8FF012958E900014EE79
:106E0E008FF012958E80239033F9E02437FFE43310
:106E1E00FE90342812978D8F828E83129341FF60DD
:106E2E00099033F9E02FF0026D49903DB512978D20
:106E3E0090001974031293EA90342812978DE92466
:106E4E000EF9E43AFA900018129341FF903DB512F4
:106E5E00978D900008EF1293EA90342812978DE9DF
:106E6E00240EF9E43AFA900019129341FF903DB5C1
:106E7E0012978D900009EF1293EA90342812978D95
:106E8E00E9240EF9E43AFA90001A129341FF903D6C
:106E9E00B512978D90000AEF1293EA90342812974C
:106EAE008DE9240EF9E43AFA90001B129341FF90FB
:106EBE003DB512978D90000BEF1293EA7F017E0085
:106ECE0012DECD902FCD7442F0903DB512978D907D
:106EDE000010E4F5F012958EE490342BF0A3F090B0
:106EEE0033FAF0A3F002707D90342812978DE924C6
:106EFE000EF9E43AFA90002112934120E003026F5A
:106F0E009420E413903DB512978D9000101294EAE0
:106F1E0045F0600302762390342CE02401FF903478
:106F2E002BE03400FE12DECD902FCD7410F0D390F6
:106F3E00342CE0940090342BE094004007902FCD39
:106F4E00E04402F090342812978DE9240EF9E43AC9
:106F5E00FA90002112934130E407902FCDE04401C6
:106F6E00F012762B903DB512978D900010E475F0CF
:106F7E000112958E90001974081293EA90001BE48A
:106F8E001293EA0270DD90342812978DE9240EF9DF
:106F9E00E43AFA90002112934130E5269000261231
:106FAE009341FE900027129341FDEDFF902FB9EE15
:106FBE008FF01294A9C390342CE09FF090342BE004
:106FCE009EF0D390342CE0940090342BE09400404B
:106FDE0012903DB512978D90001912934120E40343
:106FEE0012DEBE903DB512978D900019129341306E
:106FFE00E4030271E990342812978DE9240EF9E426
:10700E003AFA900022129341FE9000231293417C93
:10701E00002400FFEC3EFE902FC5F0A3EFF0903D54
:10702E00B512978D9000141294EAFDACF0D3EF9D3B
:10703E00EE9C500A902FC5E07002A3E07008902FCE
:10704E00C5ECF0A3EDF0902FC5E0FEA3E0FF903D60
:10705E00B512978D900012EE8FF012958E902FCD67
:10706E00E054037003027623E49033FAF0A3F01297
:10707E00762B902FCDE030E529E49033FAF0A3F093
:10708E00903DB512978D900019E41293EA90342832
:10709E0012978DE9240EF9E43AFA90002174140245
:1070AE007357902FCDE030E43BE49033FAF0A3F029
:1070BE00903DB512978D900010E475F00112958EEB
:1070CE0090001974041293EA90001BE41293EA9054
:1070DE00342812978DE9240EF9E43AFA90002174BF
:1070EE0011027357D39033FBE094009033FAE0947F
:1070FE00004068902FCDE030E00F903DB512978D97
:10710E00900010E4F5F012958E903DB512978D908B
:10711E0000101294EA45F0702A9000121294EAFFC1
:10712E00AEF0D39033FBE09F9033FAE09E4005EE35
:10713E00F0A3EFF09033FAE0FFA3E0900010CF8FB2
:10714E00F0802B903DB512978D9000101294EAFFAF
:10715E009033FAE5F0F0A3EFF08016902FCDE030EB
:10716E00E00F903DB512978D900010E4F5F012955A
:10717E008E903DB512978D90001BE41293EA902FDE
:10718E00B112978D902FB8129796D39033FBE0944F
:10719E00009033FAE094004038903DB512978D90F0
:1071AE0000101294EAFFAEF0D39400EE940040214A
:1071BE00EF2428FFE43E90342BF0A3EFF090342818
:1071CE0012978DE9240EF9E43AFA90002174188092
:1071DE0025902FCDE020E10302762390342BE4F0AE
:1071EE00A37428F090342812978DE9240EF9E43A0E
:1071FE00FA90002174101293EA027363902FCDE07F
:10720E0020E003027623903DB512978D900019E48D
:10721E001293EA902FCD7410F012762B027623D3B0
:10722E0090342CE0940090342BE09400400312DE56
:10723E00C890342812978DE9240EF9E43AFA90009A
:10724E002112934130E035902FCDE0903DB530E0E6
:10725E001E12978D90001974071293EA90001AE48B
:10726E001293EA900010E4F5F012958E0272FD1260
:10727E00978D90001974061293EA8073902FCDE0CB
:10728E0030E01A903DB512978D9000197405129347
:10729E00EA900010E4F5F012958E027623D3903426
:1072AE002CE0940090342BE09400500302762302DD
:1072BE007345D390342CE0940090342BE09400402E
:1072CE000312DEC890342812978DE9240EF9E43AA1
:1072DE00FA90002112934130E027903DB512978D20
:1072EE0090001974071293EA90001AE41293EA7F41
:1072FE00017E0012DECD902FCD7410F012762B8011
:10730E0036D390342CE0940090342BE0940050034C
:10731E000276238022902FCDE020E0030276239088
:10732E003DB512978D90001974071293EA90001ACA
:10733E00E41293EA02762390342812978DE9240EF4
:10734E00F9E43AFA90002174101293EA90342BE487
:10735E00F0A37428F090342812978DE9240EF9E4E6
:10736E003AFA90002074501293EA903DB512978D20
:10737E00900008129341FF90342812978DE9240E45
:10738E00F9E43AFA90001CEF1293EA903DB5129789
:10739E008D900009129341FF90342812978DE924A5
:1073AE000EF9E43AFA90001DEF1293EA903DB512F1
:1073BE00978D90000A129341FF90342812978DE911
:1073CE00240EF9E43AFA90001EEF1293EA903DB5BE
:1073DE0012978D90000B129341FF90342812978DC7
:1073EE00E9240EF9E43AFA90001FEF1293EA903D69
:1073FE00B512978D90000C129341FF90342812977E
:10740E008DE9240EF9E43AFA900018EF1293EA90FF
:10741E003DB512978D90000D129341FF90342812B6
:10742E00978DE9240EF9E43AFA900019EF1293EAD7
:10743E00903DB512978D90000E129341FF90342817
:10744E0012978DE9240EF9E43AFA90001AEF12938E
:10745E00EA903DB512978D90000F129341FF903434
:10746E002812978DE9240EF9E43AFA90001BEF12D8
:10747E0093EA90000974061293EA903DB512978D27
:10748E009000041294EAFF90342812978DE9240E8E
:10749E00F9E43AFA900014E5F08FF012958E903DD3
:1074AE00B512978D9000061294EAFF903428129729
:1074BE008DE9240EF9E43AFA900016E5F08FF012F9
:1074CE00958E902FB4E0FFA3E090000CCF8FF012BA
:1074DE00958E902FB6E0FFA3E090000ECF8FF012A6
:1074EE00958E903DB512978D1294BFFF9034281251
:1074FE00978DE9240EF9E43AFA900010E5F08FF03A
:10750E0012958E903DB512978D9000021294EAFF5F
:10751E0090342812978DE9240EF9E43AFA9000126D
:10752E00E5F08FF012958E903DB512978D90001963
:10753E0012934190342830E41712978DE9240EF9F6
:10754E00E43AFA900023E41293EA900022E48017C2
:10755E0012978DE9240EF9E43AFA9000227405127E
:10756E0093EA90002374781293EA90342BE0FF9004
:10757E00342812978DE9240EF9E43AFA900002EFBE
:10758E001293EA90342CE09000031293EA900024B8
:10759E00E4F5F012958E900024E4F5F012958E909D
:1075AE00342812978D90000E74451293EAE9240E3A
:1075BE00F9E43AFA900001E41293EA900007E4121B
:1075CE0093EA900006E41293EA90000874FF129377
:1075DE00EA902FC2E475F0011294A9902FC2E090A8
:1075EE0000041293EA902FC3E09000051293EA90E4
:1075FE00000AE4F5F012958E90000AE4F5F012956B
:10760E008E90341AE475F0011294A9903400E4754A
:0C761E00F0010294A9E490342BF0A3F0DA
:01762A00223D
:10E123004745542000504F535420002F004572613F
:10E133007365466C6173682E68746D006669726DF1
:10E14300776172655570646174652E68746D0057EC
:10E1530061726E2E68746D002E00636769004D5006
:03E163004B54001A
:04CB7D00413BE10057
:07E649007F507E0002E1A6F4
:10762B00E4903CB7F0A3F09033F612978DE9241C4D
:10763B00F9E43AFA903BEA129796902FCDE030E6B8
:10764B003C7E007F4D7D009033F612978DE9241C14
:10765B00F9E43AFA129D28903BEA12978D900004B8
:10766B00E41293EA900005E4F5F012958E90002257
:10767B00E41293EA90003AE4F5F0027D63902FCD8B
:10768B00E030E32A9033F612978D90001912934154
:10769B0030E403027D66903BEA12978D90002274D2
:1076AB000112936EC3940A5003027D66806E902F75
:1076BB00CDE054306003027D66902FCDE020E103D6
:1076CB00027A8D903BEA12978D90000412934160E1
:1076DB0003027A159000221293EA7BFF7AE1792359
:1076EB00903D69129796903D6CE4F0A37404F09072
:1076FB002FB812978D12DC10EF603B7BFF7AE1798C
:10770B0028903D69129796903D6CE4F0A37405F0B8
:10771B00902FB812978D12DC10EF6007902FCD745D
:10772B0020F022903CB77405F0903BEA12978D90B5
:10773B00000474068011903CB77404F0903BEA127D
:10774B00978D90000474071293EA902FB812978DBF
:10775B0090342BE0FEA3E0F5828E83E41293EA9043
:10776B003CB7E0FF903CB9E4F0A3EFF0902FB812D8
:10777B00978D903CB7E07E0029F9EE3AFA1291F71B
:10778B00903CB9E0FCA3E0FDC39FEC9E5057902FBB
:10779B00B812978D8D828C83129341642060239055
:1077AB003CB9E0FEA3E0FFF5828E83129341640D9A
:1077BB006010902FB812978D8F828E83129341B4E5
:1077CB000A17902FB812978D903CB9E0FEA3E0F505
:1077DB00828E83E41293EA800C903CB9E475F0013D
:1077EB001294A980877B007A007900C003C002C085
:1077FB0001903BEA12978D90002612983E903BEA3F
:10780B0012978D9000041293416407600302789BDA
:10781B00902FB812978D903CB7E07E0029F9EE3A85
:10782B00FAC003C002C001903BEA12978D9000236F
:10783B0012983E903BEA12978D90002312980E7D82
:10784B003F12E4CFC003C002C001903BEA12978DF8
:10785B0090002612983E903BEA12978D90002612CC
:10786B00980EEA494B6029903BEA12978D900026BF
:10787B0012980EE41293D8903BEA12978D90002643
:10788B00A3E475F00112952212C8AF903CB8EFF04B
:10789B00903BEA12978D900004129341B4062C9002
:1078AB002FB812978D903CBAE02401FF903CB9E0C1
:1078BB003400FEE92FF9EA3EFAC003C002C0019082
:1078CB003BEA12978D90002312983E902FB8129797
:1078DB008D903CB7E07E0029F9EE3AFA903CAE125F
:1078EB0097967B007A007900903CAB129796903C70
:1078FB00AE12978D12C76F903CAB129796903CAB24
:10790B0012978DE94A4B600D903BEA12978D9000D0
:10791B0003E41293EA903CAB12978DEA494B7064E7
:10792B00903BE1E0704F7BFF7AE1792E903D69123D
:10793B009796903D6CE4F0A304F0903CAE12978DBB
:10794B0012DC10EF703E903C93E0C4F8540FC86803
:10795B00FF903C92E0C454F048FEC3903C95E09FEE
:10796B00903C94E09E7BFF50067AE17930800C7A54
:10797B00E1793F80067BFF7AE1795212C76F903C29
:10798B00AB129796903CAB12978DEA494B70030262
:10799B007A8D7BFF7AE1795B903CD1129796903C84
:1079AB00AE12978D12CF4A903CB4129796903CAB87
:1079BB0012978D12CD367BFF7AE1795D903D69127E
:1079CB009796903D6CE4F0A37403F0903CB412973F
:1079DB008D12DC10EF6003027A8D903CB8E0FF7BD8
:1079EB00017A3B79EDC003C002C0019033F61297C8
:1079FB008DE9241CF9E43AFA90004512980E89821D
:107A0B008A83D001D002D0038075902FB812978D46
:107A1B0090342BE0FEA3E0F5828E83E41293EAE42C
:107A2B00903CB8F07BFF7AE17961903BED12979631
:107A3B00902FB812978DC003C002C001903BEA1281
:107A4B00978D90002312983E902FB812978D903BF4
:107A5B00F01297967B017A3B79EDC003C002C0010F
:107A6B009033F612978DE9241CF9E43AFA9000450D
:107A7B0012980E89828A83D001D002D003E4FF12C0
:107A8B0098EE902FCDE020E003027C36903BEA127B
:107A9B00978D900022E41293EA900021E41293EA6E
:107AAB009033F612978DE9241CF9E43AFA90004BC7
:097ABB00129341F46003027BAE5A
:107AC400903BEA12978D9000361294EAFFAEF09044
:107AD4003CBBEEF0A3EFF09000051294EAC39FE5DF
:107AE400F09E5003027B9D903BEA12978D90000A12
:107AF40074011293EA9000041293416405903BEAE6
:107B0400706312978DE92405F9E43AFAC003C002C0
:107B1400C0011294BFFF903BEA12978D90002F1280
:107B24009341FDC3903CBCE09DFD903CBBE09400C0
:107B3400FCC3EF9DFFE5F09CD001D002D0038FF091
:107B440012956F903BEA12978D90002F129341FF8C
:107B5400C3903CBCE09FFF903CBBE09400900007C6
:107B6400A38FF0802F12978DE92405F9E43AFA12D5
:107B740094BFFF903CBBE0FCA3E0FDC3EF9DFFE599
:107B8400F09C8FF012956F903BEA12978D9000074E
:107B9400A3EC8DF01295228054903BEA12978D90BD
:087BA4000005E4F5F012958ED6
:107BAC008043903BEA12978D90000A74011293EA7D
:107BBC0090001B1294EAFF900005E5F08FF01295EF
:107BCC008E9000121293419000131293EA900010C1
:107BDC001293419000111293EA90001D1293419060
:107BEC00001E1293EA903BEA12978D9000151294A6
:107BFC00EAFF90000EE5F08FF012958E90000412C3
:107C0C009341B4050E903BEA12978D9000047401D9
:107C1C001293EA903BEA12978D9000051294EA4574
:107C2C00F07007902FCD7410F022E490342BF0A359
:107C3C00F0902FCDE030E303027D66903BEA129783
:107C4C008D900022E41293EA902FCDE020E2030203
:107C5C007D1490002174011293A590002112934180
:107C6C00C3940A4009902FCD7420F0027D14903BF0
:107C7C00EA12978D9000131293419000121293EA1E
:107C8C00900012129341600F903BEA12978D900076
:107C9C0019129341FF80027F00903BEA12978D905E
:107CAC000019EF1293EA90001112934190001012F8
:107CBC0093EA90001E12934190001D1293EA1297C2
:107CCC009F90000312980EC003C002C001903BEAC3
:107CDC0012978D90000712983E903BEA12978D9068
:107CEC00000E1294EAFF900007A3E5F08FF01295B6
:107CFC0022903BEA12978D90000E1294EAFF9000AE
:107D0C0015E5F08FF012958E903BEA12978D90004E
:107D1C00041293416408604212979FEA494B603AFF
:107D2C00903BEA12978D90000A129341700312CC8B
:107D3C002412813090342BE0FFA3E09033FACFF083
:107D4C00A3EFF090342BE0FEA3E0FF903BEA1297F8
:0A7D5C008D900036EE8FF012958E28
:017D660022FA
:10E04F002600485454502F312E3020000D0A004323
:10E05F006F6E6E656374696F6E3A20636C6F736574
:10E06F000D0A00436F6E74656E742D547970653AA6
:10E07F002000436F6E74656E742D4C656E67746807
:0EE08F003A2025750D0A00323030204F4B002C
:10C8AF00E4903DF9F0A3F0903BEA12978D900026AB
:10C8BF0012980E129328700302C9DD903BEA12976B
:10C8CF008D90002612980E903DF9E0FEA3E0903B6C
:10C8DF00ED75F006129781EE75F006A42583F583AA
:10C8EF00129796903BEA12978D90002612980E7D24
:10C8FF003D12E4CFC003C002C001903BEA12978DF6
:10C90F0090002612983E903BEA12978D90002612C7
:10C91F00980EEA494B700302C9DD903BEA12978DDE
:10C92F0090002612980EE41293D8903BEA12978D3E
:10C93F00900026A3E475F001129522903BEA12971E
:10C94F008D90002612980E903DF9E0FEA3E0903BEB
:10C95F00F075F006129781EE75F006A42583F58326
:10C96F00129796903BEA12978D90002612980EC060
:10C97F0003C002C0017BFF7AE0794F903D501297C0
:10C98F0096D001D002D00312DA9C903BEA12978D19
:10C99F00900026A3EE8FF0129522903BEA12978D0E
:10C9AF0090002612980E129328B42615E41293D8ED
:10C9BF00903BEA12978D900026A3E475F001129533
:10C9CF0022903DF9E475F0011294A902C8B6903D8A
:03C9DF00FAE0FF7C
:01C9E2002232
:06CF4A00903CCE12979608
:10CF50001291F7903CCE12978DE92FF9EA3EFA90A4
:10CF60003CD7129796903CD112978D1291F7903C36
:10CF7000DAEEF0A3EFF0903CD712978DC003C00219
:10CF8000C001903CCE12978DC3D082D083D0E0E90F
:10CF90009582EA9583400302D036903CD112978D5A
:10CFA000129328FD903CCE12978D12E4CF903CD482
:10CFB000129796EA494B6066903CDCE4F0A304F0DB
:10CFC000FF7E00D3903CDBE09F903CDAE09E402F58
:10CFD000903CD112978D8F828E83129341FD903CAD
:10CFE000D412978D8F828E83129341B5050A903C9F
:10CFF000DCE475F0011294A90FBF00010E80C4900B
:10D000003CDAE0FEA3E0FFA3E0B50614A3E0B50719
:10D010000F903CD412978DE92FF9EA3EFA22801640
:10D02000903CD412978DE92401F9E43AFA903CCE71
:0CD0300012979602CF767B007A00790000
:01D03C0022D1
:0ADF11007AE0795B7D027BFF7C0063
:10DF1B00903DFBECF0A3EDF0D39400EC9400403675
:10DF2B00C003C002C001902FB812978D90342BE024
:10DF3B00FEA3E029F9EA3EA801FCAD03D001D00213
:10DF4B00D003129B61903DFBE0FEA3E0FF90342BCE
:07DF5B00EE8FF01294A922E1
:10CC2400E490342BF0A3F07BFF7AE079517D09FC8A
:10CC340012DF1B903BEA12978D90000B12980E1294
:10CC440091F7AC06AD07903BEA12978D90000B125A
:10CC5400980E12DF1B12DF117AE0795E7D1312DF6A
:10CC640017903BEA12978D90003012980EEA494BC8
:10CC740060327BFF7AE079727D0E7C0012DF1B90BC
:10CC84003BEA12978D90003012980E1291F7AC0681
:10CC9400AD07903BEA12978D90003012980E12DF88
:10CCA4001B12DF119033F612978DE9241CF9E43A34
:10CCB400FA90004812980EEA494B7061902FB8120E
:10CCC400978D90342BE0FEA3E029F9EA3EFAC003E5
:10CCD400C002C0017BFF7AE07981903C2C129796C8
:10CCE400903BEA12978D9000051294EAFF903C2F36
:10CCF400E5F0F0A3EFF0D001D002D003128E04903F
:10CD04002FB812978D90342BE0FEA3E029F9EA3E68
:10CD1400FA1291F790342BEE8FF01294A912DF11CE
:10CD240090342CE0FF903BEA12978D90002FEF0295
:02CD340093EA80
:10CD3600903DD3129796903BEA12978D90000AE4A5
:10CD46001293EA900021E41293EA903DD312978D54
:10CD56009000061294EAFF903BEA12978D90000528
:10CD6600E5F08FF012958E903DD312978DC003C0DB
:10CD760002C001903BEA12978D1297BF903DD312E5
:10CD8600978D90000312980EC003C002C001903B1D
:10CD9600EA12978D90000712983E903BEA12978D03
:10CDA60090000474051293EA900012E41293EA903C
:10CDB6000013E41293EA900015E4F5F012958E90B4
:10CDC6000017E4F5F012958E90000EE4F5F012953A
:10CDD6008E900019E41293EA900010E41293EA9000
:10CDE6000011E41293EA90001AE41293EA90001DEF
:10CDF600E41293EA90001EE41293EA90001FE412F4
:10CE060093EA90001BE4F5F012958E7B007A007988
:10CE160000C003C002C001903BEA12978D9000301B
:10CE260012983E7BFF7AE07996C003C002C001905B
:0DCE36003BEA12978D90000B12983EC3222C
:10813000903BEA12978D12979FEA494B7003028297
:108140007C903BEA12978D90000712980E903CC9E4
:10815000129796902FB812978D90342BE0FEA3E0E3
:1081600029F9EA3EFA903CC61297969033F6129798
:108170008DE9241CF9E43AFA90004B129341B4FFC4
:108180000512D214D322903BEA12978D900012125E
:108190009341FF9033F612978DE9241CF9E43AFAE3
:1081A00090004C12934175F009903CC312978112D4
:1081B000978D89828A831298EE1294BF45F070449D
:1081C000903BEA12978D900012129341FF9033F684
:1081D00012978DE9241CF9E43AFA90004C1293416D
:1081E00075F009903CC312978112978D89828A831A
:1081F0001298EEE92402F9E43AFA12932870051273
:10820000C9E3D322903BEA12978D9000121293415A
:10821000FF9033F612978DE9241CF9E43AFA9000A6
:108220004C12934175F009903CC312978112978DBF
:1082300089828A831298EE1294BFFF90342CE02F2B
:10824000FF90342BE035F0FE903BEA12978D9000C2
:10825000151294EAFDC3EF9DFFEE95F0FE9033F604
:1082600012978D9000121294EAFDD3EF9DEE95F0D7
:0E827000400512D678D32212A8E4D322C322EE
:028085003000C9
:08D03D00903D5EEEF0A3EFF060
:10D04500E4FBFAA37427F0A37410F0E4A3F0A3F0B3
:10D05500A3F0A3F0D3903D61E09400903D60E064BF
:10D06500809480402DE0FCA3E0FD903D5EE0FEA3B2
:10D07500E0FF12941EEF4E7019903D60E0FEA3E0B4
:10D08500FF7C007D0A129473903D60EEF0A3EFF0F3
:10D0950080C2E4FAFBD3903D61E09400903D60E0EE
:10D0A50064809480405CE0FCA3E0FD903D5EE0FE82
:10D0B500A3E0FF12941E903D64EEF0A3EFF0903DC7
:10D0C50063E075F00AA4FD903D65E0C39D2430FD45
:10D0D500749C2BF582E4343DF583EDF0903D62EED2
:10D0E500F0A3EFF0903D60E0FEA3E0FF7C007D0A39
:10D0F500129473903D60EEF0A3EFF00BBB00010AB4
:10D105008093EB4A600E749C2BF582E4343DF583E5
:10D11500E4F0800F789C7C3D7D017BFF7A807985EA
:09D12500129B617B017A3D799CAB
:01D12E0022DE
:06DB1D00903D32129796C4
:10DB2300E4903D35F0A3F01291F7903D39EEF0A368
:10DB3300EFF0E4903D37F0A3F0903D39E0FEA3E031
:10DB4300FF903D37E0FCA3E0FDC39FEE6480F8EC5B
:10DB53006480985037903D3212978D8D828C83125A
:10DB6300934124D0FB7A00903D35E0FEA3E0FF7C97
:10DB7300007D0A12940CEF2BFFEA3E903D35F0A393
:10DB8300EFF0A3E475F0011294A980AD903D35E068
:04DB9300FEA3E0FF0E
:01DB9700226B
:10D21400903BEA12978D9000051294EAFF90342C0B
:10D22400E02FFF90342BE035F0FE9033F612978D0B
:10D234009000121294EAFDD3EF9DEE95F0403990E0
:10D2440033F612978D9000121294EAFBAAF09034F0
:10D254002BE0FEA3E0FFC3EB9FFFEA9E903CCCF0E3
:10D26400A3EFF090342BE0FEA3E0FFC3EB9FFFEAB3
:10D274009E90342B8FF0801D903BEA12978D900086
:10D28400051294EAFFAEF0903CCCEEF0A3EFF090E0
:10D29400342BEE8FF01294A97B017A3C79C6C0033B
:10D2A400C002C001903BEA12978D90000312934193
:10D2B40075F009903CC012978112978D89828A83F8
:10D2C400D001D002D0031298EE903CCCE0FEA3E053
:10D2D400FF903BEA12978D900015EE8FF012952285
:03D2E4007F0122A5
:10C9E300903BEA12978D12979F9000061294EAFFEC
:10C9F300AEF0903BEA12978D9000151294EAFDC3B6
:10CA0300EF9DFFEE95F0FE90342CE02FFF90342B3A
:10CA1300E03EFE9033F612978D9000121294EAFDD9
:10CA2300D3EF9DEE95F040509033F612978D900022
:10CA3300121294EAFBAAF090342BE0FEA3E0FFC3AA
:10CA4300EB9FFFEA9E903CCCF0A3EFF090342BE0F9
:10CA5300FEA3E0FFC3EB9FFFEA9E90342B8FF012FF
:10CA630094A990342BE0FEA3E0FF903BEA12978D4C
:10CA730090001BEE8FF0803D903BEA12978D12974A
:10CA83009F9000061294EAFFAEF0903BEA12978D56
:10CA93009000151294EAFDC3EF9DFFEE95F0FE9012
:10CAA3003CCCF0A3EFF090342BEE8FF01294A990CE
:10CAB300001BE4F5F012958E7B017A3C79C6C00326
:10CAC300C002C001903BEA12978D9000031293417C
:10CAD30075F009903CC012978112978D89828A83E1
:10CAE300D001D002D0031298EE903CCCE0FEA3E03C
:10CAF300FF903BEA12978D900015EE8FF01295226E
:0DCB0300900007A3EE8FF01295227F012213
:10D678009033F612978D9000121294EAFBAAF0905C
:10D68800342BE0FEA3E0FFC3EB9FFFEA9E903CCC67
:10D69800F0A3EFF090342BE0FEA3E0FFC3EB9FFF75
:10D6A800EA9E90342B8FF01294A97B017A3C79C6BC
:10D6B800C003C002C001903BEA12978D900003128C
:10D6C800934175F009903CC012978112978D898219
:10D6D8008A83D001D002D0031298EE903CCCE0FEB1
:10D6E800A3E0FF903BEA12978D900015EE8FF012A1
:10D6F8009522900007A3EE8FF012952290342BE02C
:10D70800FEA3E0FF903BEA12978D90001BEE8FF08E
:06D7180012958E7F012234
:10A8E400E4903D1AF0903BEA12978D900012129377
:10A8F40041FF9033F612978DE9241CF9E43AFA905B
:10A90400004C12934175F009903CC3129781129741
