:04000600000A0D00DF
:09835E00412DA9FF422DA70000EA
:07FE1E00902D25123CEB22A0
:10CD0D00E4FFFE74FE2FF582E43417F583E0FD7425
:10CD1D00462FF582E43426F583EDF00FBF00010EAA
:10CD2D00EF64064E70DD901804E0FEA3E0FDEDFF0C
:10CD3D00900D92EEF0A3EFF0901806E0FEA3E0FD4B
:10CD4D00EDFF900D94EEF0A3EFF0901808E0FEA328
:10CD5D00E0FDEDFF900DB1EEF0A3EFF090180AE0BD
:10CD6D00FEA3E0FDEDFF900DB3EEF0A3EFF09018F4
:10CD7D000CE0FEA3E0FDEDFF900DADEEF0A3EFF0A6
:10CD8D0090180EE0FEA3E0FDEDFF900DAFEEF0A3C9
:10CD9D00EFF0901810E0FEA3E0FDEDFF900D99EE81
:10CDAD00F0A3EFF0901812E0FEA3E0FDEDFF900D63
:10CDBD009BEEF0A3EFF078017C127D017BFF7A00F2
:10CDCD0079061240B67BFF7A007907902D28123C28
:0DCDDD00EB7B017A12790112FE1E0279C66D
:01000A0022D3
:10F39A00902DFB7470F0D29975DA4212FD5412FE68
:10F3AA0016C2DBD2D912FCAD12FB7C12FE6012E649
:10F3BA00479018B1E0B40307902DFBE024E7F090E2
:10F3CA002DFBE0FF12FAB912F87A12CD0D02869FD0
:0300000002CC6EC1
:0300030002CC4DDF
:03000B0002CC2DF7
:10CC2D00C2AFC2A8C0E0C0F0C083C082C0D075D072
:10CC3D0008D0D0D082D083D0F0D0E0D2A8D2AF32FD
:10CC4D00C2AFC0E0C0F0C083C082C0D075D00812A2
:10CC5D00FE78D0D0D082D083D0F0D0E0D2AF328069
:10CC6D00FE787FE4F6D8FD9000007F007E80E4F032
:10CC7D00A3DFFCDEFA75816412CCC880E2020000ED
:10FFE000004C0E01004C120000FFFFFFFFFFFFFF5F
:0BFFF000FFFFFFFFFFFFFFFFFFFFFF11
:10FC99000A20454520636865636B20696E76616C4F
:04FCA9006964210069
:108367004117FC004817F30001000000010000411D
:0383770017FB00F1
:10FC42007C4C7D0E8D828C83E493FE7401937C0048
:07FC52002400FFEC3EFE223E
:10EE8E007B017A187941902D6F123CEBE4902D6D39
:10EE9E00F0A3F0902D6DE0FCA3E0FD24AFFFE43C69
:10EEAE00FEA3123CE2E92DF9EA3CFA12EC4EEF70A9
:10EEBE0002FF22902D6DE475F001123914C3902DCE
:0EEECE006EE094D2902D6DE0940640C77F0157
:01EEDC002213
:0EE2F100902BE8ECF0A3EDF0902BE5123CEB47
:10E2FF00902BEC123CEB902BE5123CE2C3E99441DE
:10E30F00FFEA9418CF24AFCF3400902BEFF0A3EF98
:10E31F00F0E4902BEAF0A3F0902BE8E0FEA3E0FFEF
:10E32F00A3E0FCA3E0FDC39FEC9E5033902BF0E0E5
:10E33F002DFF902BEFE03CFE902BEC123CE2902B4C
:10E34F00EAA3E0F5828C831237ACFD12F3DAEF709B
:10E35F0002FF22902BEAE475F00112391480B97F85
:01E36F0001AC
:01E37000228A
:10EEDD007B017A1779FE902D74123CEBE4902D7224
:10EEED00F0A3F0902D72E0FCA3E0FD2408FFE43CBC
:10EEFD00FEA3123CE2E92DF9EA3CFA12EC4EEF705A
:10EF0D0002FF22902D72E475F001123914C3902D79
:0EEF1D0073E09443902D72E0940040C77F0192
:01EF2B0022C3
:10EBF8009017FD7401F0E4902DDEF0902DDEE0FF1B
:10EC0800C39408503E7E007B017A2D79DD12EC4ECC
:10EC1800EF70069017FDF0FF22902DDEE024F3F54B
:10EC280082E43417F583E0FF902DDDE06F600C7B04
:10EC3800FF7AFC79991279C67F0022902DDEE004D4
:05EC4800F080B87F011F
:01EC4D0022A4
:10CF98007B017A1779F3902CA8123CEB7BFF7A4C33
:10CFA800790E902CA5123CEBE4902CA3F0A3F09002
:10CFB8002CA3E0FEA3E0FFC39481EE940740030294
:10CFC800D0669017FBE06019C3EF9408EE94004018
:10CFD80028902CA4E09448902CA3E09400501A8048
:10CFE80070902CA3E0FEA3E0FFC39408EE940040E9
:10CFF80008EF940EEE94004058C3902CA4E09408D7
:10D00800902CA3E09400502412FE2C902CA3E0FE58
:10D01800A3E0FF902CA8123CE28F828E831237ACDB
:10D02800FD12F3DAEF640160257F002212FE2C90D6
:10D038002CA3E0FEA3E0FFA3123CE28F828E8312B2
:10D0480037ACFD12F3DAEF640160037F00221200AF
:10D058000A902CA3E475F00112391402CFB77F01AE
:01D0680022A5
:10E6470012FDFE12EBF8EF603912EEDDEF70169057
:10E6570017FDF078FE7C177D017BFF7A4C7916FE5B
:10E667007F4312376D12EE8EEF70499017FDF078E9
:10E67700417C187D017BFF7A4C79BD7E067FD202F3
:10E68700376D78417C187D017BFF7A4C79BD7E061A
:10E697007FD212376D78FE7C177D017BFF7A4C792C
:10E6A700167E007F4312376D9017FDE060069017C6
:05E6B700FC7401F022DB
:104C0E00000100000001000000001133FF00C0A8E9
:104C1E000201FFFFFF00C0A80201C0A8020100614F
:104C2E00646D696E0000000000000000000000735B
:104C3E00797374656D000000000000000000004EE6
:104C4E006574554152540000000000000000000041
:104C5E000000000000000000000000000000000046
:104C6E000000000000000000000000000000000036
:104C7E000000000000000000000000000000000026
:104C8E000000000000000000000000000000000016
:104C9E000000000000000000000000000000000006
:104CAE0000000000000000000000000000000000F6
:104CBE00080300000000000000FF050000000000D7
:104CCE0000000000000000000000000000000000D6
:104CDE0000000000000000000000000000000000C6
:104CEE0000000000000000000000000000000000B6
:104CFE0000000000000000000000000000000000A6
:104D0E000000000000000000000000000000000095
:104D1E000000000000000000000000000000000184
:104D2E000017D2C8B5660014177000003C000000D2
:104D3E00000000000A00000A013000000000000020
:104D4E000000000000000000000000000000000055
:104D5E000000000000000030000000000000000015
:104D6E000000000000000000000000000000000035
:104D7E000000000000000000000000000000000025
:104D8E0000000000000000000000000113F061644C
:104D9E006D696E00000000000000000000007379D5
:104DAE007374656D0000000000000000000000003C
:104DBE0000000000000000000000000000000000E5
:104DCE0000000000000000000000000000000000D5
:104DDE0000000000000000000000000000000000C5
:104DEE0000000000000000000000000000000000B5
:104DFE0000000000000000000000000000000000A5
:104E0E000000000000000000000000000000000094
:104E1E00000000000000001500000000000000006F
:104E2E000000000000000000000000000000000074
:104E3E000000000000000000000000000000000064
:104E4E000000000000000000000000000000000054
:104E5E000000000000014431000000443200000058
:104E6E004433000000443400000044350000004488
:104E7E00360000004437000000443800000013885C
:104E8E000000000000000000000000000000000014
:104E9E000000000000000000000000000000000004
:104EAE0000000000000000000000000000000000F4
:104EBE0000000000000000000000000000000000E4
:104ECE0000000101010000000000300000000000A1
:104EDE0000000000000000000000000000000000C4
:104EEE000000000000000000003000000000000084
:104EFE0000000000000000000000000000000000A4
:104F0E000000000000000000300000000000000063
:104F1E000000000000000000000000000000000083
:104F2E000000000000000030000000000000000043
:104F3E000000000000000000000000000000000063
:104F4E000000000000003000000000000000000023
:104F5E000000000000000000000000000000000043
:104F6E000000000000300000000000000000000003
:104F7E000000000000000000000000000000000023
:104F8E0000000000300000000000000000000000E3
:104F9E000000000000000000000000000000000003
:104FAE0000000030000000000000000000000000C3
:104FBE0000000000000000000000000000000000E3
:104FCE0000003000000000000000000000000000A3
:104FDE0000000000000000000000000000000000C3
:104FEE000030000000000000000000000000000083
:104FFE0000000000000000000000000000000000A3
:10500E000000000000000000000000757365726E65
:10501E00616D65000000000000000000000000004F
:10502E000000000000000000000070617373776FD5
:10503E00726400000000000000000000000000008C
:10504E000000000000000000000019756D61696C21
:10505E002E68696E65742E6E657400000000000087
:10506E000000000000000000000000000000000032
:10507E000000000000000000000000000000000022
:10508E00000000000000000069703231304069639A
:10509E00706C75732E636F6D2E74773B6970323141
:1050AE0030406963706C75732E636F6D2E74773B31
:1050BE006970323130406963706C75732E636F6D39
:1050CE002E74773B6970323130406963706C757342
:1050DE002E636F6D2E74770000000000000000003C
:1050EE0000000000000000000000000000000000B2
:1050FE0000000000000000000000000000000000A2
:10510E000000000000000000000000000000000091
:10511E000000000000000000000000000000000081
:10512E000000000000000000000000000000000071
:10513E000000000000000000000000000000000061
:10514E000000000000000000000000000000000051
:10515E00006970323130406963706C75732E636F05
:10516E006D2E7477000000000000000000000000AB
:10517E000000000000000000000000000000000021
:10518E00000000000000000000000000000047507A
:10519E00494F2030310000000000000000000000E8
:1051AE0000000000000000000000000000000000F1
:1051BE0000000000000000000000000000000000E1
:1051CE0000000000000000000000004750494F2082
:1051DE003130000000000000000000000000000060
:1051EE0000000000000000000000000000000000B1
:1051FE0000000000000000000000000000000000A1
:10520E0000000000000000004750494F20313100DF
:10521E000000000000000000000000000000000080
:10522E000000000000000000000000000000000070
:10523E000000000000000000000000000000000060
:10524E0000000000004750494F20303120626F644B
:10525E0079000000000000000000000000000000C7
:10526E000000000000000000000000000000000030
:10527E000000000000000000000000000000000020
:10528E000000000000000000000000000000000010
:10529E000000000000000000000000000000000000
:1052AE00000000000000000000004750494F203170
:1052BE003020626F647900000000000000000000E2
:1052CE0000000000000000000000000000000000D0
:1052DE0000000000000000000000000000000000C0
:1052EE0000000000000000000000000000000000B0
:1052FE0000000000000000000000000000000000A0
:10530E000000000000000000000000000000004748
:10531E0050494F20313120626F6479000000000047
:10532E00000000000000000000000000000000006F
:10533E00000000000000000000000000000000005F
:10534E00000000000000000000000000000000004F
:10535E00000000000000000000000000000000003F
:10536E00000000000000000000000000000000002F
:10537E00000000000000010000000000000000001E
:01538E00001E
:10FBE2007830A6A8908003E0A3E04404F043E10249
:07FBF200D2A8D2AF43870146
:01FBF90022E9
:10FD0E007830E6F5A8908003E0A3E054FBF053E1D1
:01FD1E00FDE7
:01FD1F0022C1
:10F7CC00902DDFEEF0A3EFF0902DDFE0908202F0B1
:10F7DC00902DE0E0908201F0EC908204F0ED9082AC
:0DF7EC0003F0EA908206F0EB908205F02217
:09FDE000908200E0FF540370F76B
:01FDE90022F7
:10D50800902C40EEF0A3EFF0A3ECF0A3EDF0A3EA2B
:04D51800F0A3EBF0A1
:10D51C00A3E05407902C48F064056004E0B40603C3
:10D52C007F0022902C44E0131313541F04902C47BB
:10D53C00F0E4F9902C47E0FFE9C39F5075902C4420
:10D54C00E0FAA3E0FB4A606AEF14902C40B5010DA1
:10D55C00E0FEA3E0FFA3E0FCA3E0FD800FE0FEA350
:10D56C00E0FFA3E0FCA3E0FD7B007A0812F7CC906F
:10D57C002C46E0908200F0902C48E0B4040312FB9F
:10D58C00E212FDE0902C48E0B4040312FD0E902C46
:10D59C004474F875F000123914902C40740875F02E
:10D5AC0000123914902C42740875F00012391409C9
:04D5BC0080817F01EA
:01D5C0002248
:07FDFE00908001E04410F0C9
:01FE050022DA
:06EC4E00902DAA123CEB20
:10EC5400AD07EE5407FF908311EDF0A3EFF0E4FF4E
:10EC64009083137420F0E4FDFC908313E0FE54C001
:10EC7400700E0DBD00010CC3ED9410EC942740E917
:10EC8400EE30E712908310E0FF902DAA123CE2EFE1
:0DEC94001238437F01220FEFB4C8C57F0086
:01ECA1002250
:10F3DA00AC07EE5407FF908310EDF0A3ECF0A3EF17
:10F3EA00F0E4FF908313E4F0FDFC908313E0FE54F5
:10F3FA00C0700E0DBD00010CC3ED9410EC942740B3
:0FF40A00E9EE30E7037F01220FEFB4C8D67F0091
:01F4190022D0
:10FCAD0075985043878053890F438920758DF0D205
:04FCBD008ED2992228
:10FD200030980CC298EFB599037F01227F00227FA3
:02FD30000022AF
:0BFDCA00309805C298AF99227F0022FC
:10F9D7000A0D4D6163206572726F72206F72207419
:10F9E7006F6F206D75636820636F6C6C6973696FE7
:02F9F7006E00A0
:10837A00412C1700412C1800412C1900422C1500E1
:01838A0000F2
:10F9F900E4FF74FE2FF582E43417F583E0FEEF246B
:10FA090030FDE434838D82F583EEF00FEFB406E226
:01FA190022CA
:10FA1A00E4FF74042FF582E43418F583E0FEEF2442
:10FA2A0036FDE434838D82F583EEF00FEFB404E201
:01FA3A0022A9
:10FAB900908100E0FD54F7F0908130EFF0E0902C58
:0CFAC9001EF0A3E4F0AF05908100EDF00A
:01FAD500220E
:10F87A00908100749FF09081357427F0A3E4F09092
:10F88A008000E054204444FFF0908130E0902C1E28
:0AF89A00F0A3E4F012F9F902FA1AE3
:10F94500FDE975F004A42413FFE5F034818F82F5F9
:03F9550083EDF04F
:10F95800902C17E0902C19F0902C1704F0E0540329
:02F96800F0228B
:10EF2C00908137E060037F002290000C1237ACFE1A
:10EF3C006408702890000D1237AC702090001712E6
:10EF4C0037ACFDB406037F0122EDB411037F02221E
:10EF5C009000171237ACB401137F0322EEB4860C69
:0EEF6C0090000D1237ACB4DD037F07227F004A
:01EF7A002274
:08D20800902CFBECF0A3EDF00B
:10D21000E4A3F0A3F0A3123CEB902C17E075F0040C
:10D22000A42413FFE5F034818F82F583E030E70317
:10D230007F0022C3902CFCE09408902CFBE06480DB
:10D24000948050037F0022902CFF123CE212EF2CBE
:10D25000902CFDEFF012FC2A902CFF123CE2E9FD2D
:10D26000902C17E075F004A42410FFE5F034818FB2
:10D2700082F583EDF0AE02EEFD902C17E0F975F02B
:10D2800004A4FFAEF02411FBEE34818B82F583ED14
:10D29000F0902CFCE0FDEF2412FFEE34818F82F53C
:10D2A00083EDF0902CFBE0FF3395E0902CFEEFF047
:10D2B0005407FFF0902CFDE0FE33333354F84FA3B6
:0CD2C000F04480F012F94512FC2A7F01B6
:01D2CC00223F
:08DB1900902DADECF0A3EDF03E
:10DB2100E4A3F0902C17E075F004A42413FFE5F0B2
:10DB310034818F82F583E030E7037F0022C3902D8B
:10DB4100AEE09408902DADE06480948050037F0096
:10DB510022E9FD902C17E075F004A42410FFE5F0F4
:10DB610034818F82F583EDF0EAFD902C17E0F97591
:10DB7100F004A4FFAEF02411FBEE34818B82F58317
:10DB8100EDF0902DAEE0FDEF2412FFEE34818F8297
:10DB9100F583EDF0902DADE0FF3395E0EF5407FFF5
:10DBA100902DAFE0FE33333354F84F448012F945E2
:02DBB1007F01F2
:01DBB300224F
:10D7E200902D02123CEB902C1EE0FEA3E0F5828EFF
:0CD7F20083E020E7077B007A007900222A
:10D7FE00902C1EE0FFA3E0902D05CFF0A3EFF0904C
:10D80E002D05E0FCA3E0FDF5828C83E0FF902D0753
:10D81E00E4F0A3EFF0E4902D07F0A3E05407F0E05E
:10D82E00F8E4F0E8902D07F0EDF47003EC647F60FF
:10D83E0013902D06E02401FF902D05E034008F8219
:10D84E00F5838009908130E0758200F583E0FF90CA
:10D85E002D07E0F0A3E04FF0902D07E0FEA3E0FFD0
:10D86E00902D02123CE2EE8FF01239DA902C1FE06E
:0ED87E002402FF902C1EE03400FAA9077B0064
:01D88C002279
:10F13A00908134E0FE908133E0FDEEFC908132E074
:10F14A00FE908131E0FBEB6D7002EE6C600A902C50
:10F15A0015E475F001123914D3902C16E0947090CE
:10F16A002C15E09417400F7BFF7AF979D71279C6EC
:07F17A00C2DBD2D980FE22A6
:069EAA00902BB1123CEB0D
:109EB000902C1EE0FEA3E0F5828E83E020E70712DF
:109EC000F13AE4FEFF22E4902C15F0A3F0902C1E52
:109ED000E0FFA3E0902BB6CFF0A3EFF0902BB6E01D
:109EE000FCA3E0FDF5828C83E0FF902BB4E4F0A3AB
:109EF000EFF0902BB4E0FAA3E0FB7E0054787803F7
:109F0000CEC313CE13D8F9902BB8F0EB5407FF90C3
:109F10002BB4E4F0A3EFF0E0F8E4F0E8902BB4F019
:109F2000EDF47003EC647F6013902BB7E02401FF25
:109F3000902BB6E034008F82F5838009908130E069
:109F4000758200F583E0FF902BB4E0F0A3E04FF0C2
:109F5000902BB6E475F002123914902BB4E0FEA3F6
:109F6000E0FFA3E0FCA3E0FD2FFFEC3EFED3EF9467
:099F7000FFEE947F500302A00FE4
:109F7900E49DFF74809CFE902BB9F0A3EFF0E49070
:109F89002BBDF0C3EE648094805007E4902BB9F0A8
:109F9900A3F0902BB9E0FAA3E0FBC3902BB5E09BAB
:109FA900FE902BB4E09A902BBBF0A3CEF0EB4A6065
:109FB90025902BB6E0FEA3E0FF902BB1123CE2AC5A
:109FC90002AD01902BB9E0FAA3E0FB902C46740195
:109FD900F012D5088008902BB7E0902BBDF0908146
:109FE90030E0FE902BBDE07C002400FFEC3EFE90AB
:109FF9002BB1123CE2902BB9E0FCA3E029F9EA3C31
:04A00900FCAD01A306
:10A00D008015902BB6E0FEA3E0FF902BB1123CE241
:10A01D00AC02AD01902BB4E0FAA3E0FB902C46749A
:10A02D0001F012D508902BB4E0FEA3E0FFA3EE8F54
:10A03D00F0123914902BB6E0FCA3E0FDD394FFECA5
:10A04D00947F4024908130E0FEE49400FF74809E64
:10A05D00FEC3ED9FFFEC9E902BB6F0A3EFF0902C7E
:10A06D0018E004F0E05401F0902BB6E0FEA3E0FF01
:10A07D00902C1EEEF0A3EFF0902C18E0600AEE4449
:10A08D0080902BB6F0A3EFF0902BB7E0908131F0DC
:10A09D00902BB6E0908132F0902BB4E0FEA3E0FF60
:01A0AD002290
:10D39100902C1EE0FCA3E0FDF5828C83E020E704E5
:10D3A100E4FEFF228D828C83E0FF902DE1E4F0A367
:10D3B100EFF0E4902DE1F0A3E05407F0E0F8E4F0A1
:10D3C100E8902DE1F0EDF47003EC647F600CED2446
:10D3D10001FFE43C8F82F5838009908130E0758202
:10D3E10000F583E0FF902DE1E0F0A3E04FF0902DF8
:10D3F100E2E02402FF902DE1E03400FEEF2DFDEE8E
:10D401003CFCD3ED94FFEC947F401E908130E0FE14
:10D41100E49400FF74809EFEC3ED9FFDEC9EFC90A2
:10D421002C18E004F0E05401F0902C1EECF0A3ED78
:10D43100F0902C18E06004EC4480FCED908131F018
:0BD44100ECA3F0902DE1E0FEA3E0FF63
:01D44C0022BD
:10EF7B00908134E0FE908133E0FDAC06902C1EE0D6
:10EF8B00B50409A3E0B50504E4FEFF22902C1EE0B6
:10EF9B00FAA3E0FBD39DEA9C4007EB9DFFEA9CFEA6
:10EFAB0022908130E0FEC374FF9400FF747F9EFEBD
:0EEFBB00C3ED9BFDEC9AFCC3EF9DFFEE9CFEA8
:01EFC9002225
:10E16A00902DE3ECF0A3EDF09000031237ACFF9092
:10E17A002DE4E02F900DA8F09000021237ACFD902C
:10E18A002DE3E02D900DA7F09000011237AC900D11
:10E19A00A6F0123793900DA5F0902DE3E0FCA3E0D2
:10E1AA00FDECFF900DA7E0C39FE49400500F900D83
:10E1BA00A6E004F0E07006900DA5E004F0AF05902B
:10E1CA000DA8E0C39FE494005018900DA7E004F056
:10E1DA00E0700F900DA6E004F0E07006900DA5E047
:03E1EA0004F0221C
:10FB2B0012FE2C902C19E075F004A42413FFE5F0C1
:0BFB3B0034818F82F583E020E7E62292
:0EFD720075CB3E75CAFCE4F5CDF5CCD2CA22A5
:0CFD9A005389F0438901E4F58AF58C22BE
:10F4D700902CAB123C08908010EFF0902CAB123CB4
:10F4E700087808123B54908011EFF0902CAB123C37
:10F4F700087810123B54908012EFF0902CAB123C1E
:0CF50700087818123B54908013EFF0229B
:10FB7C0012FD72902CAF123C8100000000902CAB57
:0AFB8C00123C810000000002F4D7D3
:03FE600002FD9A06
:10FBB000902CAF123C08EF2401FFE43EFEE43DFD33
:09FBC000E43CFC902CAF023C7502
:10838B00609C281B82B931313000000000000000D6
:10839B002FEE333030000000000000000BFB3132B9
:1083AB00303000000000000005FD3234303000009A
:1083BB000000000002FE34383030000000000000E6
:1083CB00017F3936303000000000000000C0313929
:1083DB0032303000000000000060333834303000A1
:1083EB000000000000403537363030000000000040
:1083FB0000203131353230300000000000103233B4
:10840B003034303000000000000834363038303063
:10841B00000000000004393231363030000000001B
:10FBFA00908805E04480FEF090880BEDF0A3EFF0CA
:07FC0A00EE547F908805F025
:01FC110022D0
:10DCE4009028B7E06401600302DD78908001E0448D
:10DCF40002F0E090880BE0A3E09028B9E0FD9028C2
:10DD0400B8E0FF12FBFA90880BE0A3E0908805E0EE
:10DD140054C7FF9028BDE060024FFF9028BEE0B4D6
:10DD24000106EF4404FF8004EF54FBFFEF54FCFFB3
:10DD34009028BCE04F908805F0E09028BBE0600D8F
:10DD4400908802F0E0908004E04410F0E09028BA5B
:10DD5400E0FE6009908804E0EE54C8F0E090880684
:10DD6400E0547FFF9028BFE06004EF4480FF908878
:04DD740006EFF0E0E6
:01DD78002288
:0EF5FD00902D77123CEB902D7AECF0A3EDF000
:10F60B00E4FFFED3902D7BE09F902D7AE09E401976
:10F61B00902D77123CE28F828E831237ACFD90884F
:09F62B0001F00FBF00010E80DAAE
:01F6340022B3
:06F96A00902DB0123CEBF1
:10F97000E4FFEFC39D5017908800E0FE902DB01279
:0EF980003CE28F82758300EE1238550F80E452
:01F98E002256
:06FE3A00908809E0FF22A0
:06FE400090880AE0FF2299
:10FB4600E4FF12FE40EF6012E4FEEEC39F500B90FE
:0AFB56008800E0902DFCF00E80F016
:01FB60002282
:10FCD50012FE40EF600A908800E01238437F01224F
:03FCE5007F00227B
:06FE4600908801EFF0229C
:07FE0600908806E04402F0C1
:01FE0D0022D2
:07FE0E00908806E054FDF0AE
:01FE150022CA
:08842B00412DE604412DE5009E
:10F2D700E4FBFA908321EFF0A3EDF0902DE6E044F4
:10F2E70010FF902DE5E04F4480908320F09083201D
:10F2F700E0FF0BBB00010AEF30E709C3EB9430EAEC
:10F30700947540E9908324E0FE908323E0FDEDFFB0
:01F3170022D3
:07F1C700902DFDEFF0A905FA
:10F1CE00E4FDFCEA908324F0EB908323F0902DFD78
:10F1DE00E0908321F0A3E9F0902DE5E0FFA3E04F4E
:10F1EE004480908320F0908320E0FF0DBD00010C41
:0DF1FE00EF30E709C3ED9430EC947540E963
:01F20B0022E0
:10F7F9000A0D4C6F61642044656661756C74205311
:10F80900657474696E672E2E2E6E6565643A25647B
:0BF819002C2070696E2564004F4B002E
:10843300412D0E00412D0F01422D090258422D0CF2
:068443000000412D0B01B9
:10E8F1009017FCE07006902D0FE06054E47FF47EE9
:10E9010001FDFC902CAB123C14D3123B4340417BE4
:10E91100FF7AF779F99017FCE0FF902AC4E4F0A39D
:10E92100EFF0902D0FE0FF902AC6E4F0A3EFF01274
:10E9310079C612CF9812E647E49017FCF0902D0F9C
:10E94100F07BFF7AF879211279C6902D0E7405F0CB
:0DE9510030B009902D0FE0B40102E4F02277
:10FB9600E4FE9080147403F0D2B07D017F1F12F250
:0AFBA600D7EF20E202D2B402EA9980
:10F73E00E4902DFEF0FE7D017F1F12F2D7EF30E236
:10F74E001C902DFEE004F0E0640A7013F0FD7F1FA4
:0FF75E0012F2D7EE20E503D2B422C2B422D2B405
:01F76D002279
:10FA3B00902D09E475F001123914C3902D0AE0944E
:10FA4B0058902D09E09402400612BDEC12FC2A22BC
:0CFDA60012FD4312FC2A12FA9A02E6BC7D
:10EA9900E4FDFC902DFFF00D7F1F12F2D7AC06ADFF
:10EAA90007ED20E206902D0B7401F0902D0BE06428
:10EAB900017035ED30E231E4F0FD7F1F12F2D7AC81
:10EAC90006908100E0902DFFF0E054FCF0EC30E579
:10EAD90004E04401F0EC30E007902DFFE04402F03F
:08EAE900902DFFE0908100F088
:01EAF1002202
:10FAD60012EA9912F73E12FC2A12F8A4902D0EE0B3
:0DFAE600600AFF14F0EFB4010312CC8A2275
:0C844900492B71FFB6DDFFF5C4FFFA7B84
:06D44D00902C49123CEB9B
:10D45300902C4C123CE2E41238439011CA123CE285
:10D46300E9241CF9E43AFA90004BE4123855901180
:10D47300CA123CE2E9241CF9E43AFA90004B123751
:10D48300ACFFC394015077902C49123CE2C003C017
:10D4930002C001EF75F009A42471F582E4342BF581
:10D4A30083123CE289828A83D001D002D003123EE8
:10D4B30043902C4F123CEB902C4F123CE2E94A4B29
:10D4C30060249011CA123CE2E9241CF9E43AFA9070
:10D4D300004B1237ACFF902C4C123CE2EF12384356
:10D4E300902C4F023CE29011CA123CE2E9241CF951
:10D4F300E43AFA90004B740112381002D4717B00A5
:04D503007A00790031
:01D507002201
:10000E006C6F67696E322E68746D006572726F72F6
:10001E006D73672E68746D005374617475732E68FA
:10002E00746D00696E6465782E68746D006C65661B
:10003E00742E68746D006C6F67696E2E68746D0037
:10004E00756172742E68746D0074656C6E65742EB5
:10005E0068746D007564705F74656C2E68746D00E5
:10006E006367692F6C6F67696E2E636769006367DC
:10007E00692F7374617475732E63676900636769A2
:10008E002F72657365742E636769006367692F75D8
:10009E006172742E636769006367692F74656C6E95
:1000AE0065742E636769006367692F7564705F748A
:1000BE00656C2E636769003C48544D4C3E3C484588
:1000CE0041443E3C5449544C453E4E657420554186
:1000DE0052543C2F5449544C453E3C2F48454144C4
:1000EE003E3C4652414D4553455420636F6C733D23
:1000FE00223230252C38302522206672616D6562E1
:10010E006F726465723D22796573223E0A3C4652D7
:10011E00414D45206E616D653D226C6566742220F1
:10012E007372633D222F6C6566742E68746D223E69
:10013E003C4652414D45206E616D653D226D6169B3
:10014E006E22207372633D222F5374617475732E69
:10015E0068746D223E3C2F4652414D455345543EE8
:10016E003C2F48544D4C3E0A0A0A3C48544D4C3ED6
:10017E003C48454144206261736520746172676535
:10018E00743D226D61696E223E3C2F484541443ECE
:10019E003C626F64793E3C623E3C612068726566EB
:1001AE003D225374617475732E68746D22207461D0
:1001BE00726765743D226D61696E223E41646D69A0
:1001CE006E6973747261746F722053657474696EA4
:1001DE00673C2F613E0A3C62723E3C61206872654C
:1001EE00663D2274656C6E65742E68746D22207483
:1001FE0061726765743D226D61696E223E54435093
:10020E00204D6F64653C2F613E3C62723E3C612026
:10021E00687265663D227564705F74656C2E6874D5
:10022E006D22207461726765743D226D61696E2264
:10023E003E554450204D6F64653C2F613E3C6272CA
:10024E003E0A3C6120687265663D22756172742EAD
:10025E0068746D22207461726765743D226D6169E8
:10026E006E223E554152543C2F613E3C62723E3CE2
:10027E006120687265663D226367692F72657365DA
:10028E00742E63676922207461726765743D226DF6
:10029E0061696E223E5265736574204465766963AA
:1002AE00653C2F613E3C2F623E3C2F626F64793E6F
:1002BE003C2F68746D6C3E3C48544D4C3E3C46524F
:1002CE00414D45534554206672616D65626F72648F
:1002DE0065723D226E6F223E3C4652414D45206E68
:1002EE00616D653D226D22207372633D222F6C6F0E
:1002FE0067696E322E68746D22206672616D65625A
:10030E006F726465723D226E6F22207363726F6C22
:10031E006C696E673D226E6F22206E6F7265736917
:10032E007A65206D617267696E68696768743D30C1
:10033E003E3C2F4652414D455345543E3C2F48546A
:10034E004D4C3E3C68746D6C3E3C686561643E3C51
:10035E007469746C653E4E657420554152543C2F41
:10036E007469746C653E3C2F686561643E3C626FD7
:10037E0064793E3C63656E7465723E3C464F524DE9
:10038E00204E414D45203D226C6F67696E22204103
:10039E004354494F4E3D222F6367692F6C6F676937
:1003AE006E2E63676922204D4554484F443D4745A4
:1003BE00543E0A3C7461626C653E3C747220626706
:1003CE00636F6C6F723D2223323030306666223E90
:1003DE003C74643E55534552204C4F4720494E3C89
:1003EE002F74643E3C2F74723E3C74723E3C7464B7
:1003FE003E3C7461626C6520626F726465723D3161
:10040E003E3C74723E3C74643E3C7461626C653E6C
:10041E003C54523E3C54443E536974653A3C2F540E
:10042E00443E3C54443E3C2F54443E3C2F54523E9A
:10043E003C74723E3C74643E49443A3C2F74643EB4
:10044E003C74643E3C494E50555420545950453DE1
:10045E00227465787422204E414D453D22557365B8
:10046E00726E616D6522207374796C653D227769B9
:10047E006474683A323030223E3C2F74643E3C2F16
:10048E0074723E3C74723E3C74643E50617373777A
:10049E006F72643A3C2F74643E0A3C74643E3C496D
:1004AE004E50555420545950453D22506173737728
:1004BE006F726422204E414D453D22506173737719
:1004CE006F726422207374796C653D22776964744F
:1004DE00683A323030223E3C2F74643E3C2F7472A8
:1004EE003E3C74723E3C746420616C69676E3D22C2
:1004FE0063656E7465722220636F6C7370616E3DFE
:10050E002232223E3C696E70757420747970653D9E
:10051E00225375626D697422206E616D653D2222D3
:10052E002076616C75653D222020202020204F4BC7
:10053E00202020202020223E0A3C2F74643E3C2F97
:10054E0074723E3C2F7461626C653E3C2F74643E47
:10055E003C2F74723E3C2F7461626C653E3C2F746E
:10056E00643E3C2F74723E3C2F7461626C653E3C5F
:10057E002F464F524D3E3C2F63656E7465723E3C66
:10058E002F626F64793E3C2F68746D6C3E0A3C6836
:10059E00746D6C3E3C686561643E3C736372697059
:1005AE00743E66756E6374696F6E2073656E642833
:1005BE00297B73657454696D656F75742822746F29
:1005CE00702E6C6F636174696F6E3D272F6C6F6751
:1005DE00696E2E68746D27222C3330303029207DC1
:1005EE000A3C2F7363726970743E3C2F68656164B8
:1005FE003E3C626F64793E3C63656E7465723E3C50
:10060E00464F524D20414354494F4E3D2222204DDC
:10061E004554484F443D22474554223E3C74616246
:10062E006C653E3C74723E0A3C74643E3C7461627E
:10063E006C6520414C49474E3D2263656E74657270
:10064E00222043454C4C50414444494E473D2231B3
:10065E0030223E0A3C7472204247434F4C4F523D6B
:10066E002223223E3C74643E0A3C64697620414C4F
:10067E0049474E3D2263656E746572223E3C62723E
:10068E003E3C2F6469763E3C2F74643E3C2F747260
:10069E003E3C2F7461626C653E0A3C7020414C49B1
:1006AE00474E3D2263656E746572223E3C696E70E4
:1006BE00757420545950453D225375626D697422EC
:1006CE00204E414D453D226261636B222056414CC6
:1006DE0055453D2222206F6E636C69636B3D22731C
:1006EE00656E642829223E0A3C696E70757420740A
:1006FE007970653D68696464656E206E616D653DF7
:10070E0022222076616C75653D22223E0A3C2F70B6
:10071E003E3C2F7461626C653E3C2F63656E746562
:10072E00723E3C2F626F64793E3C2F68746D6C3E56
:10073E003C68746D6C3E3C626F64793E3C703E3C2E
:10074E0068323E5541525420436F6E74726F6C3C4A
:10075E002F68323E3C48523E3C42523E3C464F523F
:10076E004D20414354494F4E3D222F6367692F75EB
:10077E006172742E63676922204D4554484F443D83
:10078E0022474554223E0A3C5441424C4520636563
:10079E006C6C53706163696E673D3020626F72647A
:1007AE0065723D312063656C6C70616464696E675F
:1007BE003D352077696474683D313030253E0A3C02
:1007CE00545220616C69676E3D2263656E7465726A
:1007DE00223E3C544420414C49474E3D2263656EB7
:1007EE00746572223E4974656D3C2F54443E3C54F0
:1007FE004420414C49474E3D2263656E746572221A
:10080E003E53657474696E673C2F54443E3C2F54BE
:10081E00523E0A3C545220616C69676E3D226365FC
:10082E006E746572223E3C544420414C49474E3D05
:10083E002263656E746572223E4D6F64653C2F5463
:10084E00443E3C544420414C49474E3D2263656E24
:10085E00746572223E3C73656C6563742073697AAD
:10086E00653D223122206E616D653D226D6F64659E
:10087E00223E3C6F7074696F6E2076616C75653DBB
:10088E0022223E3C2F6F7074696F6E3E3C2F736553
:10089E006C6563743E3C2F54443E3C74723E3C5433
:1008AE004420414C49474E3D2263656E7465722269
:1008BE003E42617564726174653C2F54443E0A3C3D
:1008CE00544420414C49474E3D2263656E74657217
:1008DE00223E3C73656C6563742073697A653D22B4
:1008EE003122206E616D653D227365745F626175A4
:1008FE006472617465223E3C6F7074696F6E20760F
:10090E00616C75653D22223E3C2F6F7074696F6E6F
:10091E003E3C2F73656C6563743E3C2F54443E3CE5
:10092E002F74723E3C54523E3C544420414C494735
:10093E004E3D2263656E746572223E43686172613C
:10094E006374657220426974733C2F54443E3C5468
:10095E004420414C49474E3D2263656E74657222B8
:10096E003E3C73656C6563742073697A653D223114
:10097E0022206E616D653D227365745F6362223E57
:10098E003C6F7074696F6E2076616C75653D2222C6
:10099E00203E3C2F6F7074696F6E3E3C2F73656CFA
:1009AE006563743E3C2F54443E3C2F54523E3C549F
:1009BE00523E3C544420414C49474E3D2263656EA5
:1009CE00746572223E506172697479205479706533
:1009DE003C2F54443E3C544420414C49474E3D220A
:1009EE0063656E746572223E3C73656C656374203C
:1009FE0073697A653D223122206E616D653D2273E9
:100A0E0065745F7074223E3C6F7074696F6E2076F1
:100A1E00616C75653D2222203E3C2F6F7074696FAC
:100A2E006E3E3C2F73656C6563743E3C2F54443EA2
:100A3E003C2F54523E3C54523E3C544420414C496F
:100A4E00474E3D2263656E746572223E53746F701D
:100A5E00204269743C2F54443E3C544420414C493E
:100A6E00474E3D2263656E746572223E3C73656C23
:100A7E006563742073697A653D223122206E616D43
:100A8E00653D227365745F7362223E3C6F707469BC
:100A9E006F6E2076616C75653D2222203E3C2F6F75
:100AAE007074696F6E3E3C2F73656C6563743E3C6B
:100ABE002F54443E3C2F54523E0A3C54523E3C541A
:100ACE004420414C49474E3D2263656E7465722247
:100ADE003E486172647761726520466C6F77204381
:100AEE006F6E74726F6C3C2F54443E3C54442041E4
:100AFE004C49474E3D2263656E746572223E3C73CF
:100B0E00656C6563742073697A653D223122206EAF
:100B1E00616D653D227365745F6866223E0A3C6FA7
:100B2E007074696F6E2076616C75653D2222203E71
:100B3E003C2F6F7074696F6E3E0A3C2F73656C6547
:100B4E0063743E3C2F54443E3C2F54523E3C7472D0
:100B5E003E3C544420414C49474E3D2263656E74E1
:100B6E006572223E44656C696D697465723C2F54E2
:100B7E00443E3C544420414C49474E3D2263656EF1
:100B8E007465722220636F6C7370616E3D22322227
:100B9E003E3C7020616C69676E3D226C6566742206
:100BAE003E3C696E70757420747970653D22636881
:100BBE0065636B626F7822206E616D653D224431F4
:100BCE0022203E43686172616374657220313A0A75
:100BDE003C696E70757420747970653D2274657809
:100BEE007422206E616D653D224431562220736958
:100BFE007A653D2232222076616C75653D22223E59
:100C0E002C3C696E70757420747970653D22636832
:100C1E0065636B626F7822206E616D653D22443292
:100C2E0022203E43686172616374657220323A3CE1
:100C3E00696E70757420747970653D227465787470
:100C4E0022206E616D653D22443256222073697AF0
:100C5E00653D2232222076616C75653D22223E264C
:100C6E006E6273703B266E6273703B3C2F703E3C1F
:100C7E007020616C69676E3D226C656674223E3C25
:100C8E00696E70757420747970653D226368656352
:100C9E006B626F7822206E616D653D224433222097
:100CAE003E53696C656E742074696D653A3C696E6D
:100CBE0070757420747970653D2274657874222085
:100CCE006E616D653D22443356222073697A653D0F
:100CDE002232222076616C75653D22223E2028311B
:100CEE007E323535292A3230306D73266E6273703E
:100CFE003B266E6273703B3C2F703E3C7020616CE5
:100D0E0069676E3D226C656674223E0A3C696E70A0
:100D1E00757420747970653D22636865636B626FCC
:100D2E007822206E616D653D22443422203E44724D
:100D3E006F70204368617261637465723C2F544416
:100D4E003E3C2F74723E3C54523E3C544420414C27
:100D5E0049474E3D2263656E7465722220434F4CA7
:100D6E005350414E3D2233223E3C5020414C494788
:100D7E004E3D2263656E746572223E3C494E50555F
:100D8E005420545950453D225375626D697422208A
:100D9E004E414D453D224D6F646966792220564184
:100DAE004C55453D22557064617465223E3C2F5072
:100DBE003E3C2F54443E3C2F54523E3C2F54414215
:100DCE004C453E3C2F464F524D3E3C2F626F647950
:100DDE003E3C2F68746D6C3E3C68746D6C3E3C629C
:100DEE006F64793E3C703E3C68323E544350204323
:100DFE006F6E74726F6C3C2F68323E3C48523E3CB4
:100E0E0042523E3C464F524D20414354494F4E3D77
:100E1E00222F6367692F74656C6E65742E63676924
:100E2E0022204D4554484F443D22474554223E0A08
:100E3E003C5441424C452063656C6C537061636950
:100E4E006E673D302077696474683D3130302520FF
:100E5E00626F726465723D312063656C6C706164A3
:100E6E0064696E673D353E3C545220616C69676E15
:100E7E003D2263656E746572223E3C544420414CA3
:100E8E0049474E3D2263656E746572223E49746514
:100E9E006D3C2F54443E0A3C544420616C69676E8D
:100EAE003D2263656E746572223E56616C75653CBB
:100EBE002F54443E3C2F54523E3C545220616C6998
:100ECE00676E3D2263656E746572223E0A3C544421
:100EDE0020414C49474E3D2263656E746572223E39
:100EEE0054656C6E6574205365727665722F436C13
:100EFE0069656E743C2F54443E3C544420616C69C9
:100F0E00676E3D2263656E746572223E0A3C696EA1
:100F1E0070757420747970653D22726164696F22F8
:100F2E002076616C75653D2273657276657222203E
:100F3E006E616D653D2273635F726164696F22201D
:100F4E003E536572766572203C696E7075742074BE
:100F5E007970653D22726164696F222076616C75CD
:100F6E00653D22636C69656E7422206E616D653D10
:100F7E002273635F726164696F22203E436C696500
:100F8E006E743C696E70757420747970653D227252
:100F9E006164696F222076616C75653D22646973A8
:100FAE0061626C6522206E616D653D2273635F72B6
:100FBE006164696F22203E44697361626C653C2FE7
:100FCE0054443E3C2F54523E0A3C54523E3C5444F0
:100FDE0020414C49474E3D2263656E746572223E38
:100FEE00506F7274204E756D6265723C2F54443E84
:100FFE003C544420616C69676E3D2263656E746576
:10100E0072223E3C696E70757420747970653D2253
:10101E007465787422206E616D653D22706F7274F6
:10102E00222073697A653D223230222076616C75FA
:10103E00653D22223E3C2F54443E3C2F54523E0AE4
:10104E003C74723E3C544420414C49474E3D226311
:10105E00656E746572223E52656D6F7465205365C0
:10106E007276657220495020416464726573733CD8
:10107E002F54443E3C544420616C69676E3D22639C
:10108E00656E746572223E0A3C696E7075742074CA
:10109E007970653D227465787422206E616D653DB0
:1010AE0022495030222073697A653D223322207600
:1010BE00616C75653D22223E2E3C696E7075742002
:1010CE00747970653D227465787422206E616D6549
:1010DE003D22495031222073697A653D2233222008
:1010EE0076616C75653D22223E2E3C696E7075747C
:1010FE0020747970653D227465787422206E616D5E
:10110E00653D22495032222073697A653D22332291
:10111E002076616C75653D22223E2E3C696E70759F
:10112E007420747970653D227465787422206E6126
:10113E006D653D22495033222073697A653D223315
:10114E00222076616C75653D22223E3C2F54443E32
:10115E003C2F74723E0A3C54523E3C544420414C47
:10116E0049474E3D2263656E746572223E436C693B
:10117E00656E74206D6F646520696E616374697647
:10118E00652074696D656F75743C2F54443E3C54F4
:10119E004420616C69676E3D2263656E74657222D0
:1011AE003E0A3C696E70757420747970653D2274C8
:1011BE0065787422206E616D653D22635F74696D82
:1011CE00656F7574222073697A653D223522204D34
:1011DE0041584C454E4754483D322076616C7565FA
:1011EE003D22223E206D696E7574652028317E3950
:1011FE00392C303D44697361626C65293C2F54442F
:10120E003E3C2F54523E0A3C54523E3C54442041E4
:10121E004C49474E3D2263656E746572223E53659E
:10122E0072766572206D6F64652070726F7465637F
:10123E00742074696D656F75743C2F54443E3C5434
:10124E004420616C69676E3D2263656E746572221F
:10125E003E0A3C696E70757420747970653D227417
:10126E0065787422206E616D653D22745F74696DC0
:10127E00656F7574222073697A653D223522204D83
:10128E0041584C454E4754483D322076616C756549
:10129E003D22223E206D696E7574652028317E399F
:1012AE00382C303D44697361626C652C39393D438D
:1012BE00616E2774207265706C616365293C2F54D2
:1012CE00443E3C2F54523E0A3C54523E3C54442021
:1012DE00414C49474E3D2263656E74657222204330
:1012EE004F4C5350414E3D2232223E3C5020414CF9
:1012FE0049474E3D2263656E746572223E3C494EEF
:10130E0050555420545950453D225375626D6974A1
:10131E0022204E414D453D224D6F64696679222053
:10132E0056414C55453D22557064617465223E3CD4
:10133E002F503E3C2F54443E3C2F54523E3C2F5493
:10134E0041424C453E3C2F464F524D3E3C2F626F24
:10135E0064793E3C2F68746D6C3E3C48544D4C3E57
:10136E003C484541443E3C424F44593E3C48323E47
:10137E0041646D696E6973747261746F7220536526
:10138E007474696E673C2F48323E3C48523E0A3CAC
:10139E00464F524D20414354494F4E3D222F6367D5
:1013AE00692F7374617475732E63676922204D45BE
:1013BE0054484F443D22474554223E0A3C54414234
:1013CE004C452063656C6C53706163696E673D308C
:1013DE002077696474683D3130302520626F726405
:1013EE0065723D312063656C6C70616464696E6713
:1013FE003D353E3C54523E3C54443E4B65726E6508
:10140E006C2056657273696F6E3C2F54443E3C548B
:10141E0044203E3C2F54443E3C2F54523E0A3C54F2
:10142E00523E3C54443E4D414320416464726573C8
:10143E00733C2F54443E3C54443E3C2F54443E3C5B
:10144E002F54523E3C54523E3C54443E4E69636BC4
:10145E006E616D653C2F54443E0A3C54443E3C49FB
:10146E004E50555420545950453D225445585422FF
:10147E00204E414D453D22636F6D6D656E74222089
:10148E0056414C55453D2222206D61786C656E6744
:10149E0074683D31322073697A653D223230223EC6
:1014AE003C2F54443E3C2F54523E0A3C544420633D
:1014BE006F6C7370616E3D323E495020536574748B
:1014CE00696E673C2F54443E3C2F54523E3C54525E
:1014DE003E0A3C54443E4950204164647265737325
:1014EE003C2F54443E3C54443E3C494E50555420AF
:1014FE00545950453D225445585422204E414D4595
:10150E003D224950222076616C75653D2073697AC3
:10151E00653D323E2E0A3C494E505554205459508A
:10152E00453D225445585422204E414D453D2249B9
:10153E0050222076616C75653D2073697A653D3267
:10154E003E2E3C494E50555420545950453D225440
:10155E0045585422204E414D453D22495022207679
:10156E00616C75653D2073697A653D323E2E0A3C8D
:10157E00494E50555420545950453D2254455854C7
:10158E0022204E414D453D224950222076616C75F8
:10159E00653D2073697A653D323E3C2F54443E3C96
:1015AE002F54523E3C54523E3C54443E5375626E50
:1015BE006574204D61736B3C2F54443E0A3C544479
:1015CE003E3C494E50555420545950453D225445A9
:1015DE00585422204E414D453D22534D22207661D6
:1015EE006C75653D2073697A653D323E2E3C494EE1
:1015FE0050555420545950453D225445585422209C
:10160E004E414D453D22534D222076616C75653D10
:10161E002073697A653D323E2E0A3C494E50555430
:10162E0020545950453D225445585422204E414D88
:10163E00453D22534D222076616C75653D207369C0
:10164E007A653D323E2E3C494E50555420545950E9
:10165E00453D225445585422204E414D453D22537E
:10166E004D222076616C75653D2073697A653D3239
:10167E003E0A3C2F54443E3C2F54523E3C54523E64
:10168E003C54443E476174657761793C2F54443E27
:10169E003C54443E0A3C494E5055542054595045F2
:1016AE003D225445585422204E414D453D22475728
:1016BE00222076616C75653D2073697A653D323EF8
:1016CE002E3C494E50555420545950453D225445B8
:1016DE00585422204E414D453D22475722207661D7
:1016EE006C75653D2073697A653D323E2E0A3C4924
:1016FE004E50555420545950453D2254455854226D
:10170E00204E414D453D224757222076616C75652E
:10171E003D2073697A653D323E2E3C494E505554FC
:10172E0020545950453D225445585422204E414D87
:10173E00453D224757222076616C75653D207369C1
:10174E007A653D323E0A3C2F54443E3C2F54523E65
:10175E003C54523E3C54443E495020436F6E6669A1
:10176E00677572653C2F54443E3C54443E3C696E52
:10177E0070757420747970653D22726164696F2290
:10178E002076616C75653D2269705F737461746952
:10179E006322206E616D653D2269705F66726F6DAA
:1017AE0022203E5374617469630A3C696E707574CD
:1017BE0020747970653D22726164696F22207661B2
:1017CE006C75653D2269705F6468637022206E617E
:1017DE006D653D2269705F66726F6D22203E4448D2
:1017EE0043503C2F54443E3C2F54523E0A3C5452DC
:1017FE003E3C544420434F4C5350414E3D223222E6
:10180E00203E0A3C54523E3C544420636F6C73702D
:10181E00616E3D323E50617373776F726420536513
:10182E007474696E673C2F54443E3C2F54523E0AEA
:10183E003C54523E3C54443E557365726E616D6528
:10184E003C2F54443E3C54443E3C494E505554204B
:10185E00545950453D225445585422204E414D4531
:10186E003D22554E22204D41584C454E4754483D41
:10187E0031352076616C75653D22222073697A655B
:10188E003D31353E206D61783A31353C2F54443E22
:10189E003C2F54523E3C2F54523E0A3C54523E3C36
:1018AE0054443E50617373776F72643C42523E43B0
:1018BE006F6E6669726D3C2F54443E3C54443E3C00
:1018CE00494E50555420545950453D227061737302
:1018DE00776F726422204E414D453D225057222093
:1018EE004D41584C454E4754483D31352076616C3C
:1018FE0075653D22222073697A653D31353E206D36
:10190E0061783A31353C42523E0A3C494E5055546C
:10191E0020545950453D2270617373776F72642263
:10192E00204E414D453D22505722204D41584C45A9
:10193E004E4754483D31352076616C75653D222207
:10194E002073697A653D31353E3C2F54443E3C2F21
:10195E0054523E0A3C54523E3C544420416C6967FA
:10196E006E3D63656E74657220636F6C7370616E2D
:10197E003D323E3C494E50555420545950453D221F
:10198E005375626D697422204E414D453D224D6F57
:10199E0064696679222056414C55453D2255706446
:1019AE00617465223E3C2F54443E3C2F54523E0AF5
:1019BE003C54523E3C54443E4C6F61642044656638
:1019CE0061756C742053657474696E6720746F2032
:1019DE00454550524F4D3C2F54443E3C54443E3CA2
:1019EE00494E50555420545950453D225375626D01
:1019FE00697422204E414D453D224D6F64696679D2
:101A0E00222056414C55453D224C6F6164223E3C8E
:101A1E002F54443E3C2F54523E3C2F5441424C4591
:101A2E003E3C42523E0A4E6F74653A3C42523E264E
:101A3E006E62737020266E62737020266E627370F3
:101A4E00204E69636B6E616D65206F6E6C792063DD
:101A5E00616E2075736520202671756F743B302D75
:101A6E00392671756F743B2C2671756F743B612D21
:101A7E007A2671756F743B2C2671756F743B412DF0
:101A8E005A2671756F743B2C2671756F743B5F26E9
:101A9E0071756F743B2C2671756F743B2D267175A5
:101AAE006F743B0A3C2F464F524D3E3C2F424F44E3
:101ABE00593E3C2F48544D4C3E0A3C68746D6C3E6A
:101ACE003C626F64793E3C703E3C623E3C68323E06
:101ADE005544503C2F68323E3C2F623E3C2F703EA8
:101AEE003C48523E3C42523E3C464F524D204143B2
:101AFE0054494F4E3D222F6367692F7564705F7492
:101B0E00656C2E63676922204D4554484F443D2233
:101B1E00474554223E0A3C5441424C452063656C75
:101B2E006C53706163696E673D30207769647468C9
:101B3E003D3130302520626F726465723D31206315
:101B4E00656C6C70616464696E673D353E3C5452E1
:101B5E0020616C69676E3D2263656E74657222202A
:101B6E003E3C544420414C49474E3D2263656E74C1
:101B7E006572223E4974656D3C2F54443E0A3C54B6
:101B8E004420616C69676E3D2263656E74657222D6
:101B9E0020636F6C7370616E3D2232223E56616C13
:101BAE0075653C2F54443E3C2F54523E3C74723E5D
:101BBE003C544420414C49474E3D2263656E74654A
:101BCE0072223E5374617475733C2F54443E0A3C2A
:101BDE00544420616C69676E3D2263656E74657254
:101BEE002220636F6C7370616E3D2232223E3C691F
:101BFE006E70757420747970653D22726164696FC0
:101C0E00222076616C75653D227564705F656E226B
:101C1E00206E616D653D22656E5F726164696F2233
:101C2E00203E456E61626C650A3C696E707574206B
:101C3E00747970653D22726164696F222076616CE1
:101C4E0075653D227564705F64697322206E616DE7
:101C5E00653D22656E5F726164696F22203E446944
:101C6E007361626C653C2F54443E3C2F74723E0A85
:101C7E003C54523E3C544420414C49474E3D226315
:101C8E00656E746572223E4C6F63616C20506F728C
:101C9E00743C2F54443E3C544420616C69676E3D45
:101CAE002263656E7465722220636F6C7370616E51
:101CBE003D2232223E0A3C696E7075742074797032
:101CCE00653D227465787422206E616D653D224CEF
:101CDE00504F5254222073697A653D2232302220B1
:101CEE0076616C75653D22223E3C2F54443E3C2F5E
:101CFE0054523E0A3C74723E3C544420414C494777
:101D0E004E3D2263656E7465722220726F7773701A
:101D1E00616E3D223131223E52656D6F74652041F8
:101D2E006464726573733C2F54443E0A3C544420E1
:101D3E00616C69676E3D2263656E746572223E4901
:101D4E00503C2F54443E3C544420616C69676E3DB8
:101D5E002263656E746572223E506F72743C2F540E
:101D6E00443E3C2F74723E3C74723E3C544420619F
:101D7E006C69676E3D2263656E746572223E0A3C25
:101D8E00696E70757420747970653D22746578740F
:101D9E0022206E616D653D2241222073697A653D78
:101DAE002233222076616C75653D22223E2E0A3C3E
:101DBE00696E70757420747970653D2274657874DF
:101DCE0022206E616D653D2242222073697A653D47
:101DDE002233222076616C75653D22223E2E0A3C0E
:101DEE00696E70757420747970653D2274657874AF
:101DFE0022206E616D653D2243222073697A653D16
:101E0E002233222076616C75653D22223E2E0A3CDD
:101E1E00696E70757420747970653D22746578747E
:101E2E0022206E616D653D2244222073697A653DE4
:101E3E002233222076616C75653D22223E3C2F5462
:101E4E00443E3C544420616C69676E3D2263656E6E
:101E5E00746572223E0A3C696E70757420747970D6
:101E6E00653D227465787422206E616D653D225049
:101E7E00222073697A653D2235222076616C756564
:101E8E003D22223E3C2F54443E3C2F74723E0A3C6F
:101E9E0054523E3C544420414C49474E3D226365CA
:101EAE006E7465722220434F4C5350414E3D223387
:101EBE00223E3C5020414C49474E3D2263656E7494
:101ECE006572223E3C494E50555420545950453D62
:101EDE00225375626D697422204E414D453D224D4F
:101EEE006F64696679222056414C55453D225570E6
:101EFE0064617465223E3C2F503E3C2F54443E3C60
:101F0E002F54523E3C2F5441424C453E0A3C2F70BA
:101F1E003E3C2F464F524D3E3C2F626F64793E3C05
:101F2E002F68746D6C3EFF000EFF0351024B00FFD5
:101F3E000019FF059C01A201FF0026FF1368076030
:101F4E0002FF0031FF00C500B3FFFF003BFF017829
:101F5E00014DFFFF0044FF02C5008CFFFF004EFF46
:101F6E00073E06A803FF0057FF0DE6058204FF009B
:101F7E0062FF1AC8046C05FF006E00000000000628
:101F8E00FF007C000000000007FF008B0000000037
:101F9E000008FF0099000000000009FF00A60000E5
:101FAE000000000AFF00B500000000000B0000005A
:101FBE000000000000FFFFE05701251BFF9A6C0197
:101FCE002548FF93D5012569FF6E160125CFFFA782
:101FDE00E80125ABFFB2E4012524FF897E00000055
:101FEE00FF5FAF000000FFD13A000000FF69B300B1
:101FFE000000FF71ED000000FF917700000000006F
:04200E0000000000CE
:1084550049251B00E30000000000010160212548BB
:10846500007100007F01008E0200D40300EF0400BC
:10847500F305014606017307017C080000000009A9
:1084850009607525CF0142F10151000152010153E7
:1084950002015CF201C7F101D60301D70401D80539
:1084A50001E1F20250F1025F060261070262080271
:1084B5006BF202D7F102E60902E80A02E90B02F2C1
:1084C500F2035BF1036A0C036C0D036D0E0376F288
:1084D50003EEF103FD0F03FF100400110409F2047C
:1084E500921204CE1304F214052D1505701605AB72
:1084F5001705FD18000000002519602425AB01684B
:108505000001A30101DE02025B0302DE04030F0585
:10851500034006037107040A0804BA0900000000B5
:108525000A0A6042256900B90000E001012D020137
:10853500B20301DF04020B05023806028A0702B600
:108545000802E309030F0A035E0B038A0C03B70D48
:1085550003E30E04480F048310052011059A120544
:10856500E5120000000014146024252401670001B1
:10857500A301022D0202ADF102F10303210403510F
:108585000503810603C80703D4F2000000000A08AA
:06B6DD00902D2B123CEB46
:10B6E3009011CA123CE2E9241CF9E43AFA90004AA8
:10B6F30074FF123855902D2B123CE2123793B42F5E
:10B7030019902D2CE475F001123914902D2B123C55
:10B71300E21237937004FBFAF9227BFF7A1F793424
:10B72300902D2E123CEB902D2E123CE2123CF4E9AC
:10B733004A4B700302B816902D2E123CE2123CF4D1
:10B74300C003C002C001902D2B123CE2A801AC0241
:10B75300AD03D001D002D003123FCDEF600302B896
:10B76300099011CA123CE2E9241CF9E43AFAE924EB
:10B773003BF9E43AA801FCAD03902D2E123CE27E86
:10B78300007F0912376D902D2E123CE290000812B3
:10B7930037ACFFF4605BEF75F006A424C4F9741FA3
:10B7A30035F0FA7BFFC003C002C0019011CA123CFE
:10B7B300E2E9241CF9E43AFAE92444F9E43AA80159
:10B7C300FCAD03D001D002D0037E007F0612376D9B
:10B7D300902D2E123CE29000081237ACFF9011CA54
:10B7E300123CE2E9241CF9E43AFA90004AEF1238D9
:10B7F300559011CA123CE2E9241CF9E43AFAE9240F
:10B803003BF9E43AFA22902D2FE475F0091239142A
:09B8130002B7297B007A007900DC
:01B81C002209
:10F5C400902DB3123CEB902DB3123CE29000061246
:10F5D4003955FFAEF0900003123D63C003C002C072
:10F5E40001902DB3123CE2123CF4A801AC02AD032D
:09F5F400D001D002D00302376DF2
:10FA7B009011CA123CE2E9241CF9E43AFA900047CF
:0FFA8B00123D63EF75F003A429F9EA35F0FA2272
:068595004311FC0112017C
:06FE4C00902DB6023CEB14
:01FE77002268
:10FCE8009011FC123CEBE92436F9E43AFA900D96AF
:03FCF800023CEBE0
:10FBC9007B017A1279019011FC123CEBE92436F998
:09FBD900E43AFA900D96023CEBAF
:10ECA200E49011CDF09011CDE0FFC394075018EF1E
:10ECB20025E02481F582E4340DF583E4F0A3F0909D
:10ECC20011CDE004F080DEE49011CDF09011CDE0A2
:10ECD200FFC3940A501475F068EF900DD3123CD61E
:10ECE200E4F09011CDE004F080E2900D7F7404F026
:04ECF200A3E4F02285
:0EA29500902C20123CEB902C23ECF0A3EDF06B
:10A2A300900D7FE475F001123914C3900D7FE09493
:10A2B3007D40067410F0A3E4F0E49011CDF090110A
:10A2C300CDE0FFC3940A503FEF75F068A424BAF9B8
:10A2D300740D35F0FA7B01902C25123CEB9000199C
:10A2E3001237AC601A902C25123CE290000412390C
:10A2F30055FF900D7FE065F07003A3E06F60A190C0
:10A3030011CDE004F080B77B007A007900902C2512
:10A31300123CEBE49011CDF09011CDE0FFC3940A11
:10A32300506CEF75F068A424BAF9740D35F0FA7B1C
:10A3330001902C28123CEB9000191237ACFF700EE1
:10A34300902C28123CE2902C25123CEB8040EF64C9
:10A35300077033902C25123CE2E94A601D9011CA24
:10A36300123CE290001A1237ACFF902C28123CE208
:10A3730090001A1237ACD39F400C902C28123CE269
:10A38300902C25123CEB9011CDE004F0808A902CA8
:10A3930025123CE2E94A7004FBFAF922902C2512BB
:10A3A3003CE29000197402123855900DB5E090000C
:10A3B3000C123855900DB6E090000D123855900DE3
:10A3C300B7E090000E123855900DB8E090000F12D0
:10A3D3003855900012740575F0B41239F9900014D1
:10A3E300740575F0B41239F9900010E475F0011298
:10A3F30039F990001BE412385590001A7401123891
:10A40300559000187403123855900016E41238550D
:10A413009000177410123855900D7FE0FFA3E09061
:10A423000004CF8FF01239F9902C23E0FFA3E090C2
:10A433000006CF8FF01239F9902C20123CE212392A
:10A443002AFF902C25123CE2E5F08FF01239DA90C6
:10A453002C20123CE2900002123955FF902C251259
:0CA463003CE2900002E5F08FF01239F9A5
:01A46F0022CA
:10F29400E49011CDF09011CDE0FDC394075033ED0F
:10F2A40025E02481F582E4340DF583E0FCA3E0B588
:10F2B4000718ECB506149011CDE025E02481F58201
:10F2C400E4340DF583E4F0A3F0229011CDE004F0D2
:03F2D40080C322D2
:10F41A00E49011CDF09011CDE0FDC394075030ED8A
:10F42A0025E02481F582E4340DF583E0FCA3E04C69
:10F43A0070159011CDE025E02481F582E4340DF5B4
:10F44A0083EEF0A3EFF0229011CDE004F080C62203
:0FECF600900DABE04402F09011FFE0FEA3E0FFB1
:10ED05009011CA123CE2E92408F9E43AFAAD07ACDD
:10ED15000612E16A900DA5E0FF9011CA123CE2903F
:10ED25000008EF123855900DA6E0900009123855ED
:10ED3500900DA7E090000A123855900DA8E09000BC
:04ED45000B02385530
:102012009011CA123CE2902D8B123CEB9011FC12F3
:102022003CE2E92436F9E43AFA900D96123CEBEFE1
:10203200640260030221E3900DB8E004F070169090
:102042000DB7E004F0700E900DB6E004F07006904B
:102052000DB5E004F0E49011FFF0A3F0902D8B1287
:102062003CE29000191237ACFF64076004EFB4053C
:102072002190001A740112381090001A1237AC64C1
:102082003C6003023695902D8B123CE290001902BF
:1020920033B0902D8B123CE29000191237AC7003D2
:1020A20002369590001012395545F070030221B99D
:1020B20090001A74FF1237D9600302369590001B04
:1020C2001237ACFF640860159000191237ACFE6439
:1020D200026005EE6401704AEF640A7045900019CF
:1020E200E4123855E4901F20F0901F13F0900DABCE
:1020F2007480F090297E123CE2C003C002C00190BD
:102102002D8B123CE2D082D083D0E06B7008E9655F
:10211200827003EA65837004902981F01243A2025F
:102122003101902D8B123CE290001B1237ACFFD391
:10213200940440067E047F0480007403A80708808C
:1021420002C333D8FC90001A12385590001B740158
:102152001238109011F6E475F0011239149000193A
:102162001237AC540F147003022A1224FE602F148B
:102172007003022FE824FE7003022FE824FE70038E
:10218200022FE8240660030236959011FC123CE20D
:10219200E9240EF9E43AFA900021E4022A24E490B8
:1021A20011FFF0A3F09011CEF0A3F0900DAB7404E8
:1021B200F01243A20231FE902D8B123CE2900019E4
:1021C2001237AC540F640360030236959011FFF08E
:1021D200A3F09011CEF0A3F0900DAB7408F0023092
:1021E200E39011D2E475F0011239149011FC123C03
:1021F200E290000E1237AC644560109011D0E47585
:10220200F0011239149011D602233EE9240EF9E4AA
:102212003AFA9000021237ACFD9011FFE06D7001A6
:10222200E4600FEDFEA3E0FDEDFF9011FFEEF0A3E1
:10223200EFF09011FC123CE2E9240EF9E43AFA9034
:1022420000031237ACFF901200E06F7001E4600DE2
:102252009011FFE0FE9011FFEEF0A3EFF09011FC61
:10226200123CE2E9240EF9E43AFA9000061237AC85
:10227200543F70089000071237AC60109011D0E400
:1022820075F0011239149011DC02233E900D94E096
:10229200FEA3E0FF900D92E0FCA3E0FDEC4EFEED0C
:1022A2004F4E700F9000091237AC64016003023682
:1022B20095805B9000101239556D7003EC65F060EB
:1022C200059011D08076900012123955FF900D942E
:1022D200E065F07003A3E06F60059011D0805D901F
:1022E20011FC123CE2E9240EF9E43AFA90000912D8
:1022F20037ACFF640670030223F8EF6401600F90AD
:1023020011D0E475F0011239149011E0802E901171
:10231200E4E475F0011239149011FC123CE2E92454
:102322000EF9E43AFA9000141237AC640860119086
:1023320011E2E475F0011239149011E8E402276EFB
:10234200900D94E0FEA3E0FF900D92E04EFEA3E01C
:102352004F4E7020900010123955FF900D92E5F00B
:10236200F0A3EFF0900012123955FF900D94E5F0B2
:10237200F0A3EFF09011FC123CE2E9240EF9E43AEA
:10238200FA900014E4123855900016E4F5F0123970
:10239200F990000AE4F5F01239F99000101239555B
:1023A200FFAEF0900DA3EEF0A3EFF090000C123907
:1023B20055FD900010E5F08DF01239F990000CEE09
:1023C2008FF01239F9900012123955FFAEF0900DCC
:1023D200A3EEF0A3EFF090000E123955FD9000121B
:1023E200E5F08DF01239F990000EEE8FF01239F906
:1023F2009011E60236849011ECE475F00112391462
:102402007B017A0D79BA902D8B123CEB902D8B12B9
:102412003CE2C39011CAE99582EA95834003022403
:10242200EB902D8B123CE29000191237AC70030234
:1024320024DE9011FC123CE2E9240EF9E43AFA900F
:102442000016123955FFAEF0902D8B123CE290002F
:10245200041239556F7003EE65F060030224DE90BA
:1024620011FC123CE2E9240EF9E43AFA900014124B
:102472003955FFAEF0902D8B123CE29000061239D6
:10248200556F7003EE65F070539011FC123CE2E957
:10249200240EF9E43AFA90000C123955FFAEF0908E
:1024A2002D8B123CE212392AB50731EEB5F02D9090
:1024B20011FC123CE2E9240EF9E43AFA90000E1201
:1024C2003955FFAEF0902D8B123CE290000212398A
:1024D200556F7003EE65F07003022A81902D8CE433
:1024E20075F06812391402240E9011FC123CE2E9D4
:1024F200240EF9E43AFA9000211237AC543F6402F8
:102502007051900016123955FF900DA3E5F0F0A31B
:10251200EFF0E49011CDF09011CDE0FFC39407509D
:1025220028EF25E02481F582E4340DF583E0FEA353
:10253200E0FF900DA3E06E7003A3E06F700302262C
:10254200CB9011CDE004F080CE9011FAE475F00149
:102552001239149011FC123CE2E9240EF9E43AFA21
:102562009000211237AC30E2030236959011F4E468
:1025720075F001123914900021741412385590111B
:10258200FFE4F0A37428F0900020745012385590A4
:10259200001B1237ACFF9011CDF090001F1237AC28
:1025A20090001B12385590001FEF12385590001AF8
:1025B2001237ACFF9011CDF090001E1237AC900094
:1025C2001A12385590001EEF123855900019123722
:1025D200ACFF9011CDF090001D1237AC9000191293
:1025E200385590001DEF1238559000181237ACFF85
:1025F2009011CDF090001C1237AC90001812385593
:1026020090001CEF12385590001F740112381070A0
:10261200279011FC123CE2E9240EF9E43AFA900008
:102622001E7401123810701090001D0412381070C0
:102632000790001C041238109011FC123CE2E924AD
:102642000EF9E43AFA900014123955FFAEF0900DEB
:10265200A3EEF0A3EFF0900016123955FD9000148E
:10266200E5F08DF01239F9900016EE8FF01239F97B
:10267200900010123955FFAEF0900DA3EEF0A3EFCB
:10268200F090000C123955FD900010E5F08DF0121B
:1026920039F990000CEE8FF01239F99000121239CC
:1026A20055FFAEF0900DA3EEF0A3EFF090000E12E6
:1026B2003955FD900012E5F08DF01239F990000EB7
:1026C200EE8FF01239F90235EA7B007A0079009038
:1026D2002D8B123CEBE49011CDF09011CDE0FFC3B5
:1026E200940A507B75F068EF900DD3123CD6E070DF
:1026F2001A9011CDE075F068A424BAF9740D35F082
:10270200FA7B01902D8B123CEB80549011CDE0FFAF
:1027120075F068900DD3123CD6E064077038902DA6
:102722008B123CE2E94A601690001A1237ACFE7531
:10273200F068EF900DD4123CD6E0D39E4018901171
:10274200CDE075F068A424BAF9740D35F0FA7B0176
:10275200902D8B123CEB9011CDE004F00226DC9020
:102762002D8B123CE2E94A700C9011F875F00112BF
:102772003914023695902D8B123CE29011CA123C0C
:10278200EB902D8B123CE290001A74031238559094
:1027920000187403123855900016E4123855900050
:1027A20017740412385590001BE41238559011FC2E
:1027B200123CE2E9240EF9E43AFA90001612395575
:1027C200FF902D8B123CE2900004E5F08FF012395D
:1027D200F99011FC123CE2E9240EF9E43AFA900075
:1027E20014123955FF902D8B123CE2900006E5F051
:1027F2008FF01239F99011FC123CE2E9240EF9E44F
:102802003AFA90000C123955FF902D8B123CE2E5FA
:10281200F08FF01239DA9011FC123CE2E9240EF941
:10282200E43AFA90000E123955FF902D8B123CE2D9
:10283200900002E5F08FF01239F99000197401123C
:102842003855900DB5E090000C123855900DB6E059
:1028520090000D123855900DB7E090000E123855C9
:10286200900DB8E090000F123855900010E475F00A
:10287200011239F99011FC123CE2E9240EF9E43A12
:10288200FA90001B1237ACFF902D8B123CE29000A5
:102892000BEF1238559011FC123CE2E9240EF9E4D8
:1028A2003AFA90001A1237ACFF902D8B123CE2904C
:1028B200000AEF1238559011FC123CE2E9240EF99D
:1028C200E43AFA9000191237ACFF902D8B123CE2D9
:1028D200900009EF1238559011FC123CE2E9240EE7
:1028E200F9E43AFA9000181237ACFF902D8B123CA3
:1028F200E2900008EF1238557F017E0012ED05903C
:1029020011FC123CE2E9240EF9E43AFA900020129A
:1029120037AC54F0D394505003022A12E49011CDF4
:10292200F09011FC123CE2E9240EF9E43AFA90002C
:10293200201237ACC4540F24FB75F004A4FF90118D
:10294200CDE0FD7C00C39FEC95F04003022A12ED1E
:102952002436FFEC33FE9011FC123CE28F828E8310
:102962001237AC900DB9F07003022A12900DB9E043
:10297200FFB401089011CDE004F080A5EF6402706D
:102982006C74372DF582E43CF5831237AC64047025
:102992005CED2438FFE43CFE9011FC123CE28F8295
:1029A2008E831237ACFE74392DF582E43CF5831226
:1029B20037ACFDEDFF900DA3EEF0A3EFF0D394B48E
:1029C200EE940540067E057FB48008900DA3E0FEDC
:1029D200A3E0FF902D8B123CE2900012EE8FF012DA
:1029E20039F9900014EE8FF01239F980239011CD4D
:1029F200E02437FFE433FE9011FC123CE28F828E1A
:102A0200831237ACFF60099011CDE02FF002292329
:102A12009011FC123CE2E9240EF9E43AFA9000210A
:102A220074101238559011FC123CE2E9240EF9E4BC
:102A32003AFAE92421F9E43AFA12379344021238B5
:102A4200439011FC123CE2E9240EF9E43AFA9000B8
:102A520028740212385590002974041238559000D7
:102A62002A740512385590002B74B41238559011FF
:102A7200FFE4F0A3742CF090002074600233E7901E
:102A82002D8B123CE29011CA123CEBE4900DABF09C
:102A92009011FC123CE2E9240EF9E43AFA9000218A
:102AA2001237AC30E215902D8B123CE2900019E403
:102AB200123855900DAB74200232989011FC123CE2
:102AC200E2E9240EF9E43AFA9000201237ACC45439
:102AD2000F75F004A4FF9011CDF0C3901200E09F97
:102AE200FF9011FFE09400CF24ECCF34FFF0A3EF6E
:102AF200F0D3901200E094009011FFE09400500394
:102B0200022B909000181237ACFF902D8B123CE2F2
:102B12009000081237AC6F60030233B79011FC12B9
:102B22003CE2E9240EF9E43AFA9000191237ACFFBC
:102B3200902D8B123CE29000091237AC6F600302B9
:102B420033B79011FC123CE2E9240EF9E43AFA9010
:102B5200001A1237ACFF902D8B123CE290000A1241
:102B620037AC6F60030233B79011FC123CE2E924E8
:102B72000EF9E43AFA90001B1237ACFF902D8B123B
:102B82003CE290000B1237AC6F60030233B7901136
:102B9200FC123CE2E9240EF9E43AFA9000211237E1
:102BA200AC20E403022CFD902D8B123CE29000102D
:102BB200123955FDACF04C7003022CFD901F20E041
:102BC2006003022CF7E9240CF9E43AFA12E16A9064
:102BD20011FC123CE2E9240EF9E43AFA90001C12CC
:102BE20037ACFF900DA5E06F6003022CFD90001D35
:102BF2001237ACFF900DA6E06F6003022CFD90002F
:102C02001E1237ACFF900DA7E06F6003022CFD90FF
:102C1200001F1237ACFF900DA8E06F6003022CFD7D
:102C2200900DA5E0FF902D8B123CE290000CEF126C
:102C32003855900DA6E090000D123855900DA7E082
:102C420090000E123855900DA8E090000F123855E2
:0B2C520090001B1237AC6003022CDD69
:102C5D00902D8B123CE290001A1237ACFF900018A9
:102C6D001237ACC39FFF902D8EF09000161237AC2B
:102C7D00131313541FFEC3EF9E902D8EF0E0FF90A3
:102C8D000016123810C3EF648094805007EFF404DF
:102C9D00902D8EF0902D8EE0FF902D8B123CE290BA
:102CAD0000171237AC1313543FFEC3EF9E902D8EB9
:102CBD00F09000171238109000161237AC13131342
:102CCD00541FFF9000171237AC2F90001812385573
:102CDD00900DAB7401F0902D8B123CE29000181208
:102CED0037AC90001A1238558006900DAB7401F078
:102CFD00902D8B123CE29000191237AC540F123DFF
:102D0D00EC2D2A012D67022F4D03329F043332051E
:102D1D0033950633B707327C0800003695900DAB1E
:102D2D00E020E00302369590001974031238559097
:102D3D000DAB7440F0900010E4F5F01239F9D3901A
:102D4D001200E094009011FFE09400400312ECF6A5
:102D5D00E49011CEF0A3F00230E3900DABE020E053
:102D6D00030225559011FC123CE2E9240EF9E43AD8
:102D7D00FA9000211237AC641260030225559000C1
:102D8D00201237AC54F0D394505003022E8FE490A0
:102D9D0011CDF09011FC123CE2E9240EF9E43AFA5F
:102DAD009000201237ACC4540F24FB75F004A4FF1F
:102DBD009011CDE0FD7C00C39FEC95F04003022EF9
:102DCD008FED2436FFEC33FE9011FC123CE28F8226
:102DDD008E831237AC900DB9F07003022E8F900DCB
:102DED00B9E0FFB401089011CDE004F080A5EF64C7
:102DFD0002706C74372DF582E43CF5831237AC64A8
:102E0D0004705CED2438FFE43CFE9011FC123CE2B2
:102E1D008F828E831237ACFE74392DF582E43CF52A
:102E2D00831237ACFDEDFF900DA3EEF0A3EFF0D3C1
:102E3D0094B4EE940540067E057FB48008900DA3F2
:102E4D00E0FEA3E0FF902D8B123CE2900012EE8F7E
:102E5D00F01239F9900014EE8FF01239F9802390A9
:102E6D0011CDE02437FFE433FE9011FC123CE28FCC
:102E7D00828E831237ACFF60099011CDE02FF002E6
:102E8D002DA0902D8B123CE2900019740312385531
:102E9D009011FC123CE2E9240EF9E43AFA90001884
:102EAD001237ACFF902D8B123CE2900008EF1238D8
:102EBD00559011FC123CE2E9240EF9E43AFA900027
:102ECD00191237ACFF902D8B123CE2900009EF12D6
:102EDD0038559011FC123CE2E9240EF9E43AFA90CF
:102EED00001A1237ACFF902D8B123CE290000AEFC6
:102EFD001238559011FC123CE2E9240EF9E43AFA2D
:102F0D0090001B1237ACFF902D8B123CE290000B02
:102F1D00EF1238557F017E0012ED05900DAB744216
:102F2D00F0902D8B123CE2900010E4F5F01239F97F
:102F3D00E49011FFF0A3F09011CEF0A3F00230E376
:102F4D009011FC123CE2E9240EF9E43AFA900021CA
:102F5D001237AC20E003022FEB20E413902D8B12DF
:102F6D003CE290001012395545F060030236959001
:102F7D001200E02401FF9011FFE03400FE12ED0578
:102F8D00900DAB7410F0D3901200E094009011FFEF
:102F9D00E094004007900DABE04402F09011FC125C
:102FAD003CE2E9240EF9E43AFA9000211237AC30F4
:102FBD00E407900DABE04401F01243A2902D8B126B
:102FCD003CE2900010E475F0011239F9900019748B
:102FDD000812385590001BE41238550231439011F8
:102FED00FC123CE2E9240EF9E43AFA900021123782
:102FFD00AC30E5269000261237ACFE900027123734
:10300D00ACFDEDFF900D97EE8FF0123914C39012B9
:10301D0000E09FF09011FFE09EF0D3901200E0943D
:10302D00009011FFE094004012902D8B123CE29025
:10303D0000191237AC20E40312ECF6902D8B123CE4
:10304D00E29000191237AC30E40302325B9011FCB0
:10305D00123CE2E9240EF9E43AFA9000221237AC60
:10306D00FE9000231237AC7C002400FFEC3E900D47
:10307D00A3F0A3EFF0900DA3E0FEA3E0FF902519C0
:10308D00EEF0A3EFF0902D8B123CE290001412396C
:10309D0055FDACF0D3EF9DEE9C500A900DA3E07062
:1030AD0002A3E07008900DA3ECF0A3EDF0900DA33A
:1030BD00E0FEA3E0FF902D8B123CE2900012EE8F0C
:1030CD00F01239F9900DABE054037003023695E41C
:1030DD009011CEF0A3F01243A2900DABE030E52994
:1030ED00E49011CEF0A3F0902D8B123CE2900019DC
:1030FD00E41238559011FC123CE2E9240EF9E43A41
:10310D00FA90002174140233C9900DABE030E43B0A
:10311D00E49011CEF0A3F0902D8B123CE2900010B4
:10312D00E475F0011239F9900019740412385590B4
:10313D00001BE41238559011FC123CE2E9240EF903
:10314D00E43AFA90002174110233C9D39011CFE003
:10315D0094009011CEE094004068900DABE030E00B
:10316D000F902D8B123CE2900010E4F5F01239F91E
:10317D00902D8B123CE290001012395545F0702ABB
:10318D00900012123955FFAEF0D39011CFE09F9001
:10319D0011CEE09E4005EEF0A3EFF09011CEE0FFD2
:1031AD00A3E0900010CF8FF08031902D8B123CE278
:1031BD00900010123955FF9011CEE5F0F0A3EFF00D
:1031CD00801C900DABE030E015901F20E0700F904B
:1031DD002D8B123CE2900010E4F5F01239F9901F9E
:1031ED0020E0700D902D8B123CE290001BE4123804
:1031FD0055900D8F123CE2900D96123CEBD3901131
:10320D00CFE094009011CEE094004038902D8B12B9
:10321D003CE2900010123955FFAEF0D39400EE94BD
:10322D00004021EF2428FFE43E9011FFF0A3EFF0C2
:10323D009011FC123CE2E9240EF9E43AFA900021D7
:10324D0074188025900DABE020E1030236959011A6
:10325D00FFE4F0A37428F09011FC123CE2E9240E77
:10326D00F9E43AFA90002174101238550233D590D2
:10327D000DABE020E003023695902D8B123CE290D1
:10328D000019E4123855900DAB7410F01243A202E0
:10329D003695D3901200E094009011FFE094004019
:1032AD000312ED009011FC123CE2E9240EF9E43A10
:1032BD00FA9000211237AC30E035900DABE0902D37
:1032CD008B30E01E123CE2900019740712385590B5
:1032DD00001AE4123855900010E4F5F01239F90295
:1032ED00336F123CE29000197406123855807390BA
:1032FD000DABE030E01A902D8B123CE2900019746A
:10330D0005123855900010E4F5F01239F902369592
:10331D00D3901200E094009011FFE094005003024E
:10332D0036950233B7D3901200E094009011FFE070
:10333D009400400312ED009011FC123CE2E9240EC2
:10334D00F9E43AFA9000211237AC30E027902D8B3A
:10335D00123CE2900019740712385590001AE412CD
:10336D0038557F017E0012ED05900DAB7410F012F3
:10337D0043A28036D3901200E094009011FFE094A8
:10338D000050030236958022900DABE020E0030241
:10339D003695902D8B123CE290001974071238551A
:1033AD0090001AE41238550236959011FC123CE249
:1033BD00E9240EF9E43AFA90002174101238559070
:1033CD0011FFE4F0A37428F09011FC123CE2E92403
:1033DD000EF9E43AFA9000207450123855902D8B66
:1033ED00123CE29000081237ACFF9011FC123CE247
:1033FD00E9240EF9E43AFA90001CEF123855902D9D
:10340D008B123CE29000091237ACFF9011FC123C7C
:10341D00E2E9240EF9E43AFA90001DEF12385590C6
:10342D002D8B123CE290000A1237ACFF9011FC126A
:10343D003CE2E9240EF9E43AFA90001EEF123855F9
:10344D00902D8B123CE290000B1237ACFF9011FCCB
:10345D00123CE2E9240EF9E43AFA90001FEF12381B
:10346D0055902D8B123CE290000C1237ACFF901151
:10347D00FC123CE2E9240EF9E43AFA900018EF123E
:10348D003855902D8B123CE290000D1237ACFF9009
:10349D0011FC123CE2E9240EF9E43AFA900019EF1E
:1034AD00123855902D8B123CE290000E1237ACFF66
:1034BD009011FC123CE2E9240EF9E43AFA90001A5C
:1034CD00EF123855902D8B123CE290000F1237AC55
:1034DD00FF9011FC123CE2E9240EF9E43AFA900057
:1034ED001BEF1238559000097406123855902D8B2C
:1034FD00123CE2900004123955FF9011FC123CE28F
:10350D00E9240EF9E43AFA900014E5F08FF012393F
:10351D00F9902D8B123CE2900006123955FF901157
:10352D00FC123CE2E9240EF9E43AFA900016E5F0BB
:10353D008FF01239F9900D92E0FFA3E090000CCFBF
:10354D008FF01239F9900D94E0FFA3E090000ECFAB
:10355D008FF01239F9902D8B123CE212392AFF901F
:10356D0011FC123CE2E9240EF9E43AFA900010E560
:10357D00F08FF01239F9902D8B123CE2900002126F
:10358D003955FF9011FC123CE2E9240EF9E43AFAA8
:10359D00900012E5F08FF01239F9902D8B123CE26C
:1035AD009000191237AC9011FC30E417123CE2E98F
:1035BD00240EF9E43AFA900023E4123855900022D3
:1035CD00E48017123CE2E9240EF9E43AFA90002265
:1035DD00740512385590002374781238559011FFE8
:1035ED00E0FF9011FC123CE2E9240EF9E43AFA9066
:1035FD000002EF123855901200E09000031238557A
:10360D00900024E4F5F01239F9900024E4F5F0125D
:10361D0039F99011FC123CE290000E7445123855A8
:10362D00E9240EF9E43AFA900001E41238559000BD
:10363D0007E4123855900006E412385590000874CE
:10364D00FF123855900DA0E475F001123914900D4C
:10365D00A0E0900004123855900DA1E090000512E5
:10366D00385590000AE4F5F01239F990000AE4F5A6
:10367D00F01239F99011EEE475F001123914901130
:0F368D00D4E475F001023914E49011FFF0A3F0BA
:01369C00220B
:10F63500E490273DF090273DE0FFC39414502790B8
:10F645000004C083C0827D00EF75F00CA4244CF942
:10F65500742635F0FA7B01D007D00612427D90273B
:07F665003DE004F080CF221C
:10E8830090273EE475F001123914E490273DF0908F
:10E89300273DE0FFC394145054EF75F00CA4244CAF
:10E8A300F9742635F0FA7B01900002123955FFAE58
:10E8B300F012392AFDE5F04EFEED4F4E6027900031
:10E8C3000A123955FFC390273FE09FFF90273EE090
:10E8D30095F0FEC3EF94B0EE940440097E007F04EC
:0DE8E3007D0012427D90273DE004F080A2F0
:01E8F0002205
:06AE6A00902C52123CEB9B
:10AE7000E490273DF090273DE0FFC394145071EF1C
:10AE800075F00CA4244CF9742635F0FA7B01902C53
:10AE900058123CEB12392A45F0604D902C58123C68
:10AEA000E290000212395545F0603D12392AFFAE9A
:10AEB000F0902C52123CE212392A6F7003E5F06ECA
:10AEC0007026902C58123CE2900002123955FFAEC9
:10AED000F0902C52123CE2900002123955B507084E
:10AEE000E5F0B5060302AFBC90273DE004F0808595
:10AEF000E490273DF090273DE0FFC394145034EFD9
:10AF000075F00CA4244CF9742635F0FA7B01902CD2
:10AF100058123CEB12392A45F07010902C58123C14
:10AF2000E290000212395545F0600890273DE00498
:10AF3000F080C290273DE064147068902644F0A32E
:10AF4000F090273CF0A3F090273DE0FFC39414500D
:10AF50004CEF75F00CA4244CF9742635F0FA7B0103
:10AF6000902C58123CEB90000A123955FFC39027E1
:10AF70003FE09FFF90273EE095F0FEC3902645E01E
:10AF80009F902644E09E500DEEF0A3EFF090273DF9
:10AF9000E090273CF090273DE004F080AA90273C09
:10AFA000E0A3F0902C58123CE2A801AC02AD039053
:10AFB0002C52123CE27E007F0412376D902C581206
